:020000040800F2
:10000000F82500206DB10108C5AD0108C7AD010894
:10001000D7AD0108D9AD0108DBAD01080000000033
:10002000000000000000000000000000DFDE00080B
:10003000DDAD01080000000099DE0008DFAD010819
:10004000E1B10108E5B10108E9B10108EDB101082C
:10005000F1B10108F5B10108F9B10108FDB10108DC
:1000600001B2010805B2010809B201080DB2010888
:10007000E3AD010811B20108E9AD010815B20108AC
:1000800019B20108EFAD01081DB2010821B2010843
:1000900025B2010829B201082DB2010831B20108C8
:1000A00035B2010839B201083DB2010841B2010878
:1000B00045B2010849B201084DB2010851B2010828
:1000C00055B2010859B201085DB2010861B20108D8
:1000D00065B20108F5AD010811AE01082DAE0108A9
:1000E00069B201086DB2010871B2010875B2010868
:1000F00049AE010879B201087DB2010881B2010858
:1001000085B2010889B201088DB2010891B20108D7
:100110004FAE01086BAE010895B2010899B2010813
:100120009DB20108A1B20108A5B2010887AE01087D
:1001300070B56DA582B0DFF8F0472978DFF8EC677D
:1001400004F20450017069784170314602F06EFE8D
:10015000294602F06BFEDFF8D81704F2045002F0D3
:1001600065FE4FF4A56020442978017069784170DC
:100170004FF4A5603146204402F058FE4FF4AA60C7
:10018000204402F08FFFDFF8AC27012104F2045075
:1001900003F030FC04F24C50019000230320009047
:1001A0004FF400720FF22C010FF2551003F0F6FF1E
:1001B000012814BF0FF228010FF24C01032005F0B3
:1001C00098F802B0BDE870400FF26001032005F01E
:1001D00090B80000496E71756972655461736B0067
:1001E0006C6F673E2043726561746520496E71755E
:1001F000697265416E616C79736973206661696CBF
:100200007572650D0A0000006C6F673E20437265D1
:1002100061746520496E7175697265416E616C79B2
:10022000736973206F6B0D0A000000006C6F673EEE
:100230002050726F636573732053746172742E0D56
:100240000A00000070B5DFF8F04604F1240005F064
:10025000A1FB801F00250026C1B200293BD0C0B2FF
:1002600010F003010BD0EDB263196D1C93F82A3026
:1002700006EB8602303B491E03EB4206F3D18008B1
:1002800029D0EDB2621906EB860192F82A20303AA5
:1002900002EB41016A1C01EB8103D2B2A118521C8E
:1002A00091F82A10303901EB430101EB8103D2B2FE
:1002B000A118521C91F82A10303901EB430101EBCF
:1002C0008103D2B2A118551C91F82A103039401E72
:1002D00001EB4306D5D1334632460FF2100103201D
:1002E00005F007F8304670BD2F0000006C6F673EC8
:1002F000206769646E756D3A25642C25780D0A00B7
:100300002DE9F04F83B000220C21322005F06CFB68
:10031000DFF814960FF22C65C9F8840438B9294621
:10032000022004F0E6FFD9F884040028F7D0FFF794
:1003300089FFC9F8980402E0642006F0CEF803F0C3
:100340009AFA0028F8D0D9F898340FF218611A46B2
:10035000032004F0CEFF0FF22461032004F0C9FF54
:100360007FE100BF09EB400A01208DF80000ADF8E5
:10037000085003208DF801008DF80310080A8DF84D
:1003800002000622BDF808008DF8050069464FF608
:10039000FF7000278DF8047002F012FE8DF8060041
:1003A0000822000A8DF807006946022006F051FA7B
:1003B00006F0EEFDB84600240026834606F0E8FD70
:1003C000A0EB0B00B0F57A7F0ED2022006F0F3FA14
:1003D0000446022006F025FB0646022006F07DF8C2
:1003E000002CEBD0042EE9D306F0D2FDA0EB0B00DD
:1003F000B0F57A7F61D2002C5FD0042E5DD3204609
:1004000006F0CCFD060058D022463146022006F008
:10041000F0FA0446821E92B231464FF6FF7002F0A7
:10042000CFFD31198A1E9DF800303478517812784A
:10043000A34202BF9DF801307478A34234D1BDF8C5
:100440000840B37864009C4204BF42EA012188421C
:100450002AD1012B27DB13F0030008D006EB08019B
:10046000401EC9780AF8081008F10108F6D198086A
:1004700000F0198006EB0801C9780AF8081008F1A5
:1004800001017218D2780AF80120491C7218D2783A
:100490000AF80120491C7218401ED2780AF801207F
:1004A00001F10108E6D10127304606F01CFE27B114
:1004B000D9F894042818C9F8940440F23F21D9F8D7
:1004C00094048842C0F0BF800020C9F8940499F8D1
:1004D0008104401C89F8810440F23E3006F05EFD44
:1004E000050050D0FF2240F23E3106F061FEAF2001
:1004F0002870FA2068700120A87099F88104E870CB
:10050000D9F89804E871010E2971010C6971010A8A
:10051000A97107F05EF9C9F89C04010E2972E8720E
:10052000010C6972010AA9725FF0000019F800104D
:100530002A18401C11732A1819F800101173401C56
:1005400040F22E318842F1DB4FF44E72A91C4FF677
:10055000FF7002F035FD0146000A85F83A0385F880
:100560003B13AA2085F83C0340F23E33552085F822
:100570003D032A464FF4A5600021484403F0D9F911
:10058000284606F0B0FD4FF4B17006F007FD0500F7
:1005900050D0FF224FF4B17106F00AFEAF20287050
:1005A000FA2068700220A87099F88104E870D9F8E0
:1005B0009804E871010E2971010C6971010AA97191
:1005C000D9F89C04E872010E2972010C6972010AC3
:1005D000A972002009EB00012A1891F82E1311735B
:1005E000401C09EB00012A1891F82E131173401CCE
:1005F000B0F5A97FEEDB4FF4AE72A91C4FF6FF7089
:1006000002F0DEFC0146000A85F85E0185F85F1104
:10061000AA2085F860014FF4B173552085F8610177
:100620002A464FF4A5600021484403F082F9284689
:1006300006F059FD99F88104102804DB0020C9F860
:10064000880489F8810406F0A3FCD9F89014401AB4
:10065000B0F57A7F05D306F09BFCC9F8900401F051
:1006600033FAD9F88804A8B906F092FCD9F88C14AA
:10067000401AB24988420DD306F08AFCC9F88C04AE
:10068000FF220120C9F888044FF49061484607F022
:100690006DFBD8E7D9F888040028D4D00822A849EF
:1006A000022006F0D6F86421A54800F0F5FB99F881
:1006B000811481422ED001208DF800008DF80510A4
:1006C00006208DF80100062202208DF802006946FE
:1006D000C6208DF8030000208DF804004FF6FF704F
:1006E00002F06EFC8DF806000822000A8DF8070063
:1006F0006946022006F0ADF86421684600F0CCFBA4
:1007000099F8812482429ED00FF28C21022004F0BD
:10071000F0FD98E7D9F89404082880F0AB8009EB45
:10072000400501EB8100400000F2E24101208DF81C
:1007300000008DF8031003208DF801000622080444
:10074000000E8DF80200694608208DF805004FF074
:10075000000A8DF804A04FF6FF7002F031FC8DF80E
:1007600006000822000A8DF807006946022006F0FC
:1007700070F806F00DFC0027D04600244FEA000672
:1007800006F006FC801BB0F57A7F0FD2022006F03F
:1007900012F98046022006F044F90446022005F0D2
:1007A0009CFEB8F1000FEBD0042CE9D306F0F0FB6F
:1007B000801BB0F57A7FBFF446AFB8F1000F3FF46D
:1007C00042AF042CFFF43FAF404606F0E7FB0400C5
:1007D0003FF439AF42462146022006F00AF90646A8
:1007E000821E92B221464FF6FF7002F0E9FBA1197A
:1007F000891E9DF8003026784A780978B34202BFF6
:100800009DF801306678B34227D1A378102B04BF3E
:1008100041EA0221884220D1012B1CDB13F00300A6
:1008200005D0E119C978E9557F1C401EF9D1980817
:1008300011D0E119C978E955791C6218D2786A5447
:10084000491C6218D2786A54491C62184F1CD2782D
:100850006A54401EEDD14FF0010A204606F043FCD9
:10086000BAF1000F3FF4EFAED9F894040830C9F89C
:100870009404E8E60FF2601101EB400140F23313FB
:1008800031F8101C994208BF0E253FF46BAD40F2C1
:10089000F513994214BFAA2907253FF463AD40F22E
:1008A0008943994214BF4B2908253FF45BAD40F2C0
:1008B0001D2399421ABF40F66A0399420A253FF464
:1008C00051AD40F20113994208BF10253FF44AADE3
:1008D000642914BFDD291E253FF444AD40F2DB231B
:1008E00099421CBF40F2223399420AD040F2D173A0
:1008F00099421FBF40F60603994240F241139942C4
:1009000001D130252EE540F6AF03994208BF0525F9
:100910003FF428ADB42908BF09253FF423ADBF2912
:100920000CBF142501251DE5E00E00201428000849
:1009300034A30020B11E000810A30020E09304009F
:10094000642B000877617272696E673E207851757A
:10095000657565437265617465206661696C757261
:10096000650D0A006C6F673E2069646E756D686581
:10097000783A25642C25780D0A0000006C6F673EDC
:1009800020496E71756972655461736B205374618F
:1009900072740D0A0000000077617272696E673E22
:1009A000205175657279506172616D657465722848
:1009B000292D3E436869636B656E20686F757365AA
:1009C00020737769746368696E67206661696C6516
:1009D000643A25780D0A0000BC022604BD02FC0121
:1009E000FD01FE01460201020002FF01470248022A
:1009F0000602A304A90431010001FF002802270216
:100A00002C0132012D013001110033013401350177
:100A100036013701380139013A013B013C013D0102
:100A20003E013F014001F501F601F701F801F9012E
:100A3000FA01FB0189048A048B048C048D048E0462
:100A40008F0490041D021E021F02200221022202B6
:100A500023022402250226023002010102010301C1
:100A60000401050106010701080109010A010B0142
:100A70000C010D010E010F01100113011401780387
:100A8000790301000200B702050006000700080014
:100A90000A000B000D000E0045004600470048000C
:100AA0000C00030004000F001000090013001400E4
:100AB000150016001700180019001A001B001C0072
:100AC0006400650066006700680069006A006B00EA
:100AD0006C006D006E006F0070007100720073009A
:100AE0007400750076007700780079007A007B004A
:100AF0007C007D007E007F008000810049024A0268
:100B00004B020F031003110312033F00400041008A
:100B10004C024D024E025800550056005900570035
:100B20005D005E005F0060006100620063005A00CB
:100B30005B004B004C004D004E004F005000510038
:100B4000520019011A0114031503D201D301D40173
:100B5000D5011B011C011D011E011F0120012101E6
:100B600022012301240125012601270128011D035B
:100B7000760179017801DB02DC02DD02DE02DF02B0
:100B8000E002E102E202E302E402E502E602E70239
:100B9000E802E902EA02EB02EC02ED02EE02EF02E9
:100BA000F002F102F202F302F402F502F602F70299
:100BB000F802F902FA02FB02FC02FD02FE02FF0249
:100BC00000030103020303030403050306030703F1
:100BD000080309030A03220323032403250326032E
:100BE0002703280329032A032B032C032D032E0399
:100BF0002F03300331033203330334033503360349
:100C00003703380339033A033B033C033D033E03F8
:100C10003F034003410342034303440345034603A8
:100C20004703480349034A034B034C034D034E0358
:100C30004F0350035103D107D207D307D407D50779
:100C4000D607D707D807D907DA07DB07DC07DD07A0
:100C5000DE07DF07E007E107E207E307E407E50750
:100C6000E607E707E807E907EA07EB07EC07ED0700
:100C7000EE07EF07F007F107F207F307F407F507B0
:100C8000F607F707F807F907FA07FB07FC07FD0760
:100C9000FE07FF07000806080708080809080A08F1
:100CA0000B080C080D080E080F0810081108120890
:100CB00013081408150816081708180819081A0840
:100CC0001B081C081D081E081F08200821082208F0
:100CD00023082408250826082708280829082A08A0
:100CE0002B082C082D082E082F0830083108320850
:100CF000330834083508AF08B008B108B208B308A3
:100D000041014201430144014501460147014801B7
:100D100049014A014B014C014D014E014F01500167
:100D20005101520153015401550156015701580117
:100D300059015A015B015C015D015E015F016001C7
:100D40006101620163016401650166016701680177
:100D500069016A016B016C016D016E016F01700127
:100D6000670868086A086B086C086D086E086F08E9
:100D70007008710872087308B400B500B600B700B7
:100D8000B800B900BA00BB00BC003E00BE0049007C
:100D9000B10029012A01AA00AB00AC00AD00AE00F1
:100DA000AF00B000D300D400D500D600A404A50441
:100DB000D800D900DA00DB00AA04AB0427003D000C
:100DC0001D001E001F00200021002200230024001F
:100DD000A000A100A200A300A400A500A600A700F7
:100DE000BF00C000C100C200C300C400C500C600EF
:100DF000C700C800C900CA00CB00CC00CD00CE009F
:100E0000CF00D000D100D200FB000300DD00DE00E7
:100E1000DF00E000E100E200E300E400E500E600BE
:100E2000E700E800E900EA00EB00EC00ED00EE006E
:100E3000EF00F000F100F200F300F400F500F6001E
:100E4000F700F800F900FA0000B583B001228DF830
:100E500000208DF8030006228DF801208DF8051082
:100E6000020A080A8DF802208DF80400062269465D
:100E70004FF6FF7002F0A4F88DF806000822000A71
:100E80008DF807006946022005F0E3FC64216846FE
:100E900000F002F803B000BD2DE9F04381B04FF639
:100EA000FF7805460C46ADF8008006F071F8002684
:100EB0000027814606F06CF8A0EB0900A0420ED294
:100EC000022005F078FD0646022005F0AAFD07463F
:100ED000022005F002FB002EECD0042FEAD306F02E
:100EE00057F8A0EB0900A04280F08680002E79D050
:100EF000042F77D3304606F051F8040000F0AB80A1
:100F000032462146022005F074FD0646821E92B24A
:100F10002146404602F054F8A1198A1E6B78517898
:100F20001278062B13D1A078E17841EA0020401E08
:100F300080B2010AA170E07032462946204602F0D4
:100F4000C1FA88BB06220FF21811032027E0267889
:100F50002D78AE4201BF65789D4242EA0123984256
:100F600030D1012D18BF032D1CD1A278012A06D142
:100F7000BDF80000E1780840ADF800002AE0022A40
:100F80000AD1BDF80000E17800EA0120ADF80000C8
:100F9000BDF80000217911E00FF2F801022004F001
:100FA000A8F917E0052D15D1BDF80000217900EA58
:100FB0000120ADF80000BDF8000061790843ADF8EC
:100FC000000007E042EA012302460FF2001103206D
:100FD00004F08FF9204606F086F8BDF8000001B055
:100FE000BDE8F0830FF20C11032004F082F9BDF884
:100FF000000001B0BDE8F0830FF224110FF2481495
:10100000032004F076F92A782146032004F071F9D0
:101010006A782146032004F06CF9AA78214603205F
:1010200004F067F9EA782146032004F062F92A798E
:101030002146032004F05DF96A792146032004F07B
:1010400058F9AA792146032004F053F9EA79214698
:10105000032004F04EF9BDF8000001B0BDE8F083B4
:101060006C6F673E20576169744D6F64627573528F
:1010700065706C795F53696E676C654572726F72EB
:101080002C46756E6374696F6E436F64653A25789C
:101090000D0A000077617272696E673E20576169C0
:1010A000744D6F646275735265706C795F53696ECD
:1010B000676C652D3E4461746120697320746F6FA5
:1010C000206C6F6E673A25780D0A00006C6F673EE2
:1010D00020576169744D6F646275735265706C79E5
:1010E0005F53696E676C654572726F7225782C2547
:1010F000780D0A006C6F673E20576169744D6F640C
:101100006275735265706C795F53696E676C6520A8
:1011100055415254204552524F520D0A00000000D2
:101120006C6F673E20576169744D6F6462757352CE
:1011300065706C795F53696E676C654F757454693F
:101140006D650D0A000000006C6F673E2053656EF0
:10115000643A25780D0A000000B583B001228DF8AD
:1011600003008DF8002005228DF80120020A0020DE
:101170008DF804008DF80220481E8041C043C00F46
:101180008DF80500062269464FF6FF7001F018FF42
:101190008DF806000822000A8DF807006946022033
:1011A00005F057FB64216846FFF776FEC0B203B036
:1011B00000BD00002DE9F24F86B00024411EC9B2E7
:1011C0001128009141D00098401CC0B205900098B1
:1011D0000599884236DADFF8CC5C082229460220DD
:1011E00005F037FB009E64212846FFF755FE864236
:1011F00000F0718301208DF8040001AD06206870B5
:1012000006220220A87001A9C620E87000202871DB
:10121000009868714FF6FF7001F0D2FEA8710822A5
:10122000000AE87101A9022005F013FB009D64216A
:1012300001A8FFF731FE85420BD00FF2A861022012
:1012400004F057F807B0BDE8F08F10200590009427
:10125000C1E705F09DFE0490DFF84C5CA0E00120A2
:101260008DF804008DF8071003208DF805008DF827
:101270000990080A8DF80600062201A94FF6FF70B2
:101280004FF000088DF8088001F09AFE8DF80A00F2
:101290000822000A8DF80B0001A9022005F0D9FAF6
:1012A00005F076FE0026C2460027039005F070FE8A
:1012B0000399401AB0F57A7F0FD2022005F07BFB2C
:1012C0008246022005F0ADFB0746022005F005F935
:1012D000BAF1000FEAD0042FE8D305F059FE0399C4
:1012E000401AB0F57A7F5BD2BAF1000F58D0042FC4
:1012F00056D3504605F052FE070051D052463946AB
:10130000022005F076FB8246821E92B239464FF6E5
:10131000FF7001F055FE07EB0A018A1E9DF80430AC
:1013200097F800C051781278634502BF9DF80530E8
:1013300097F801C063452BD1BB784FEA490B9B4519
:1013400004BF42EA0121884222D1012B1EDB13F0A7
:10135000030105EB440005D0BA19D2788255761CFA
:10136000491EF9D1990811D0BA19D2788255721C48
:10137000BB18DB788354521CBB18DB788354521C97
:10138000BB18561CDB788354491EEDD14FF0010881
:10139000384605F0A8FEB8F1000F1CBF4C44E4B27B
:1013A000262C1ADA05F0F4FD0499401AB0F57A7F7C
:1013B00013D20FF26C5030F8141040F2991291428F
:1013C00008BF4FF00A093FF44AAFB1F5BF7F0CBF29
:1013D0004FF014094FF0010941E705F0D9FD0499D8
:1013E000401AB0F57A7F80F05A8208F0D0F80600F3
:1013F00000F071820098401C08F0DAF808F090F8CC
:101400000246DFF8541E304608F02DF82878697837
:1014100041EA002008F0CCF808F082F802460EA15C
:10142000304608F020F8A878E97841EA002008F072
:10143000BFF808F075F802460FF23051304608F058
:1014400012F82879697941EA002008F0B1F808F02B
:1014500067F8024601A103E06D730000736D73002D
:10146000304608F000F8A879E97941EA002008F050
:101470009FF808F055F802460FF2F841304607F0A1
:10148000F2FF287A697A41EA002008F091F808F022
:1014900047F802460FF2E841304607F0E4FFA87A29
:1014A000E97A41EA002008F083F808F039F80246AA
:1014B0000FF2D441304607F0D6FF287B697B41EA22
:1014C000002008F075F808F02BF802460FF2C04132
:1014D000304607F0C8FFA87BE97B41EA002008F00E
:1014E00067F808F01DF802460FF2B041304607F0E9
:1014F000BAFF287C697C41EA002008F059F808F01E
:101500000FF802460FF2A041304607F0ACFFA87C6E
:10151000E97C41EA002008F04BF808F001F80246A7
:101520000FF28C41304607F09EFF287D697D41EA2D
:10153000002008F03DF807F0F3FF02460FF2784173
:10154000304607F090FFA87DE97D41EA002008F0D1
:101550002FF807F0E5FF02460FF26441304607F02E
:1015600082FF287E697E41EA002008F021F807F01A
:10157000D7FF02460FF25041304607F074FFA87EB5
:10158000E97E41EA002008F013F807F0C9FF02469F
:101590000FF23C41304607F066FF287F697F41EA41
:1015A000002008F005F807F0BBFF02460FF22C41BF
:1015B000304607F058FFA87FE97F41EA002007F096
:1015C000F7FF07F0ADFF02460FF21C41304607F06F
:1015D0004AFF95F8200095F8211041EA002007F015
:1015E000E7FF07F09DFF02460FF20841304607F083
:1015F0003AFF95F8220095F8231041EA002007F001
:10160000D7FF07F08DFF02460FF2F431304607F0A6
:101610002AFF95F8240095F8251041EA002007F0EC
:10162000C7FF07F07DFF02460FF2E031304607F0BA
:101630001AFF95F8260095F8271041EA002007F0D8
:10164000B7FF07F06DFF02460FF2C831304607F0D2
:101650000AFF95F8280095F8291041EA002007F0C4
:10166000A7FF07F05DFF02460FF2B031304607F0EA
:10167000FAFE95F82A0095F82B1041EA002007F0B1
:1016800097FF07F04DFF02460FF29831304607F002
:10169000EAFE95F82C0095F82D1041EA002007F09D
:1016A00087FF07F03DFF02460FF28431304607F016
:1016B000DAFE95F82E0095F82F1041EA002007F089
:1016C00077FF07F02DFF02460FF26C31304607F02E
:1016D000CAFE95F8300095F8311041EA002007F075
:1016E00067FF07F01DFF02460FF25431304607F046
:1016F000BAFE95F8320095F8331041EA002007F061
:1017000057FF07F00DFF02460FF23C31304607F05D
:10171000AAFE95F8340095F8351041EA002007F04C
:1017200047FF07F0FDFE02460FF22831304607F072
:101730009AFE95F8360095F8371041EA002007F038
:1017400037FF07F0EDFE02460FF21031304607F08A
:101750008AFE95F8380095F8391041EA002007F024
:1017600027FF07F0DDFE02460FF2F821304607F0B2
:101770007AFE95F83A0095F83B1041EA002007F010
:1017800017FF07F0CDFE02460FF2E021304607F0CA
:101790006AFE95F83C0095F83D1041EA002007F0FC
:1017A00007FF07F0BDFE02460FF2CC21304607F0DE
:1017B0005AFE95F83E0095F83F1041EA002007F0E8
:1017C000F7FE07F0ADFE02460FF2B421304607F0F7
:1017D0004AFE95F8400095F8411041EA002007F0D4
:1017E000E7FE07F09DFE02460FF29C21304607F00F
:1017F0003AFE95F8420095F8431041EA002007F0C0
:10180000D7FE07F08DFE02460FF28421304607F026
:101810002AFE95F8440095F8451041EA002007F0AB
:10182000C7FE07F07DFE02460FF27021304607F03A
:101830001AFE95F8460095F8471041EA002007F097
:10184000B7FE07F06DFE02460FF25821304607F052
:101850000AFE95F8480095F8491041EA002007F083
:10186000A7FE07F05DFE02460FF24021304607F06A
:10187000FAFD95F84A0095F84B1041EA002007F070
:1018800097FE07F04DFE02460FF22821304607F082
:10189000EAFD31460FF2282000F0A4FA1BE007F021
:1018A00076FE0546069807F08DFE07F039FE0246E3
:1018B000DFF8D81B284607F0D6FD0FF2205007F0BE
:1018C00046FE024606A1284607F0CDFD29460FF642
:1018D0008C1000F087FA0098401CC0B2009076E4AB
:1018E0007265740077617272696E673E205570414F
:1018F0006C61726D506172616D657465722D3E43ED
:101900006869636B656E20686F75736520737769AE
:10191000746368696E67206661696C65640D0A00AE
:10192000810484037D01A801AE01AF0192019301FE
:1019300099019A019B019C019D019E019F01A001BB
:10194000A101A2017E017F01800181018201830149
:101950008401850186018701880189018A018B0143
:101960008C018D018E018F0190019101616C61727A
:101970006D656E00696E7370656374696F6E0000EB
:10198000616C61726D680000616C61726D73000062
:10199000696E7370656374696F6E6800696E7370E9
:1019A000656374696F6E730075736572656E31007F
:1019B00075736572656E320075736572656E33009E
:1019C00075736572656E340075736572656E35008A
:1019D000696E7370656374696F6E3100696E7370E0
:1019E000656374696F6E3200696E737065637469E4
:1019F0006F6E3300696E7370656374696F6E340067
:101A0000696E7370656374696F6E350061676F31FD
:101A1000000000006D6964310000000072656172B1
:101A20003100000075736572736D73310000000042
:101A300061676F32000000006D69643200000000D1
:101A4000726561723200000075736572736D733276
:101A50000000000061676F33000000006D696433AF
:101A600000000000726561723300000075736572DA
:101A7000736D73330000000061676F340000000075
:101A80006D6964340000000072656172340000000A
:101A900075736572736D73340000000061676F3594
:101AA000000000006D69643500000000726561721D
:101AB0003500000075736572736D733500000000AA
:101AC000434D442D313035002DE9F047DFF8285DD6
:101AD000D5F884048AB004F048FC002800F0768130
:101AE000D5F8840400230022694604F0A5FA0128F1
:101AF00040F06C81BDF806004FF6FF74A04270D133
:101B0000DDF8008007F043FD5FEA000900F05E8128
:101B100000260FF2507703AD398801208DF80C00B4
:101B200068700622080AA870E9700020287103A9CD
:101B300001206871204601F043FAA8710822000ACA
:101B4000E87103A9022004F084FE642103A8FFF7D2
:101B5000A3F9C0B2FF281ED0761C60B10020DFF8C8
:101B60009C1C07F0DDFC824605A9304601F096F981
:101B70000146524609E0002107F0D2FC824605A941
:101B8000304601F08BF952460146484607F06BFC9F
:101B9000BF1C102EC0DB102E1BDA484606F008F9D9
:101BA00007F0F5FC0446404607F00CFD07F0B8FCD2
:101BB00002460FF66841204607F055FC0FF21C2044
:101BC00007F0C5FC0246B5A1204607F04CFC2146B3
:101BD000F8E049460FF2FC1000F004F90AB0BDE845
:101BE000F0874FF6FE72904208D1BDF804000099CC
:101BF000C0B2FFF7DFFA0AB0BDE8F087A0F132010A
:101C0000102940D2BDF808100FF250640FF60C46B0
:101C1000C9B2FFF7A1FABDF80810009D81420FF28A
:101C20007C2818D007F0B3FC0746284607F0CAFC0A
:101C300007F076FC02463146384607F014FC0FF2F6
:101C40009C1007F084FC02464146384607F00BFC26
:101C500039462046B8E007F09AFC0746284607F0C8
:101C6000B1FC07F05DFC02463146384607F0FBFB4D
:101C70008BA007F06CFC02464146384607F0F3FBA8
:101C800039462046A0E0874E08223146022004F063
:101C9000E0FD64213046FFF7FFF8BDF804104A1E4E
:101CA00082422AD001208DF80C0003AF0620787004
:101CB00061180220B8707971C620F87006220804F5
:101CC000000E387103A9204601F07AF9B871082294
:101CD000000AF87103A9022004F0BBFD642103A8E7
:101CE000FFF7DAF8BDF80410491E814205D0009ACA
:101CF0000FF63C31022003F0FCFA082231460220A4
:101D000004F0A7FD64213046FFF7C6F8BDF80410C3
:101D1000491E81423DD1BDF80810BDF80600FFF70D
:101D200093F8BDF80810814233D1D5F8840404F04B
:101D30001CFBE8B1D5F884040123002207A904F0B4
:101D40007BF9012814D10798009988423ED00C46AF
:101D500007F01DFC0546204607F034FC07F0E0FBC9
:101D600002460FF6B821284607F07DFB4CA021E083
:101D7000009C07F00CFC0546204607F023FC07F00A
:101D8000CFFB02460FF69421284607F06CFB44A0D7
:101D900010E0009C07F0FBFB0546204607F012FC14
:101DA00007F0BEFB02460FF67421284607F05BFBE6
:101DB0000FF2280007F0CBFB024638A1284607F0B7
:101DC00052FB29460FF2944000F00CF80AB0BDE82F
:101DD000F0870000434D442D313033004641554CCF
:101DE00054000000F0B581B007460C4607F0CFFB69
:101DF000002506004ED005F0CBF807F0E3FB07F016
:101E00008FFB02460FF61421304607F02CFB05F03D
:101E1000E0FC07F0D7FB07F083FB02460FF65821E2
:101E2000304607F020FB384607F091FB02461FA121
:101E3000304607F018FBDFF8C80907F088FB0246B8
:101E40000FF64021304607F00EFB22460FF64021E8
:101E5000304607F03AFB304606F099FC040016D0F5
:101E600005F096F8024623460FF62C21042003F0D5
:101E700040FA204603F08EFD83B222460021DFF8AF
:101E8000840901F056FD0546204605F02CF9304640
:101E900005F08EFF284601B0F0BD000072657400A9
:101EA0004F4B0000642B0008D4A30020636D640036
:101EB0002DE9F04F054683B000246C5405F068F816
:101EC00002462B460FF6F011042003F012FA2846C2
:101ED00006F038FC00275FEA000800F0B7810FF633
:101EE0003C1107F099FA05460FF69811404607F0A5
:101EF00093FA064610200FF6E0114268032003F023
:101F0000F8F910200FF6E0110268032003F0F1F950
:101F1000002D00F09881E868032840F09481002E9D
:101F200000F09181D6F81090DFF8DC6806F124010A
:101F3000484607F055FB00281CBF99F800003028E0
:101F400040F081810FF63011404607F065FA834674
:101F50000FF63C11404607F05FFA8146BDA14046AE
:101F600007F05AFA82460FF69411DAF8102003208F
:101F700003F0BFF9BBF1000F0BD0DBF80C00032816
:101F800007D1DBF8147005F024FC381A074648BF67
:101F90007F42DAF810000FF6741107F021FB0028D9
:101FA00055D10FF67011484607F036FA88B1C0686F
:101FB00001280ED1BFF34F8FDFF85008DFF850280B
:101FC000016801F4E06111430160BFF34F8F00BF6E
:101FD000FDE748460FF6481107F01EFAF8B1C06851
:101FE00001281CD140F25B70A6F8B4000F223C20FF
:101FF000A6F8B800301D0FF63C110FF6481B07F08D
:1020000025FB0922594606F1540007F01FFB09225F
:10201000594606F1840007F019FB07F0DCFB0FF6C8
:102020003011484607F0F8F920B1C068012808BF10
:1020300000F028F90FF62811484607F0EDF930B105
:10204000C068012803D107F02AFD07F041FD1E2FCB
:1020500008D3DAF810000FF6141107F0C1FA0028BF
:1020600040F092800FF61001484607F0D5F948B1CC
:10207000C168032906D14069694605F04DFA6846F2
:1020800005F0CBF9D4A1484607F0C6F968B1C1689C
:1020900004290AD107693946301D07F0A1FA20B199
:1020A0003946301D07F078FD01240FF6C801484677
:1020B00007F0B2F978B1C16804290CD10769394633
:1020C00006F1540007F08CFA28B1394606F15400A5
:1020D00007F062FD641C0FF6A801484607F09CF962
:1020E00078B1C16804290CD10769394606F184002A
:1020F00007F076FA28B1394606F1840007F04CFD66
:10210000641C0FF68401484607F086F950B1C16897
:10211000032907D14069B6F8B41081421CBFA6F864
:10212000B400641C0FF66801484607F075F950B119
:10213000C168032907D14069B6F8B81081421CBFB5
:10214000A6F8B800641CE4B20CB107F044FB6E6959
:1021500007F01DFA0446304607F034FA07F0E0F9BC
:1021600002460FF2B861204607F07DF9C4A007F0DF
:10217000EEF90246C3A1204607F075F921460FF299
:10218000DC00FFF72FFE05E03A460FF610010220B3
:1021900003F0AFF8DAF810000FF61C0107F020FA90
:1021A00000283AD16F69B9F1000F36D00FF67001EF
:1021B000484607F031F983460FF65401484607F0C8
:1021C0002BF90446BBF1000F18BF002C25D0DBF81B
:1021D0000C00032804BFE06803281ED10C2004F083
:1021E000DDFE060019D037600023DBF814000FF283
:1021F0007401B0804FF0FF3201EB4000314630F8FF
:10220000020CF08060693081DFF8EC05D0F88404BE
:1022100003F04EFD304604F066FFDAF810000FF2CE
:10222000A07107F0DDF918B96869494600F0D6F8E1
:10223000DAF810000FF2907107F0D2F918B9686956
:10224000494600F083F8404605F0B2FD03B0BDE812
:10225000F08F0000636D640028280008434D442D72
:1022600039390000320033003400350036003700C1
:10227000380039003A003B003C003D003E003F0082
:102280004000410030B581B007F081F904005BD017
:1022900005F09FFA07F096F907F042F902460FF2AF
:1022A000D851DFF86455204607F0DDF8281D07F007
:1022B0004EF9024648A1204607F0D5F8B5F8B4001B
:1022C00007F080F907F02CF902460FF2BC612046B6
:1022D00007F0C9F8B5F8B80007F074F907F020F96D
:1022E00002460FF2AC61204607F0BDF80FF2245011
:1022F00007F02DF902460FF2D861204607F0B3F837
:102300000FF2E06007F023F902460FF2CC6120469D
:1023100007F0A9F80FF2E86007F019F902460FF28A
:10232000D461204607F09FF857A007F010F9024645
:102330000FF2DC61204607F096F8214601B0BDE8B7
:1023400030400FF2D4604DE501B030BD2DE9F047CB
:102350008A460027BAF1000F82B0804639D00FF2CA
:10236000C061504607F058F8060003D0F068032813
:1023700008BF77690FF2F47440F25F19FFB220884A
:10238000694600F08BFD0146504607F045F806000F
:102390001BD0F068032818D10C2004F0FFFD0500C5
:1023A00013D0C5F80080AF8000232088E8804FF06C
:1023B000FF32706928812946DFF83C04D0F8840494
:1023C00003F076FC284604F08EFEA41CB9F1010946
:1023D000D5D102B0BDE8F08769700000F0B50D00FE
:1023E00081B004464AD00FF24041284607F014F865
:1023F00006001CD0F068032819D10C2004F0CEFD93
:10240000070014D03C6000237069B8804FF0FF32A1
:102410004FF6FF70F880394600203881DFF8D80386
:10242000D0F8840403F044FC384604F05CFE0FF25C
:10243000F851284606F0F0FF05001FD0E868032891
:102440001CD10C2004F0AAFD060017D03460002334
:102450006869B0804FF0FF324FF6FE70F080314671
:1024600000203081DFF89003D0F8840403F020FCD2
:10247000304601B0BDE8F04004F035BE01B0F0BD1B
:102480004F4B0000726574006F6B00001C28000841
:102490002DE9F0460D460FF29851D74C85B0D1E9A1
:1024A000002302A86421C0E900234FF49460FF22B6
:1024B000204405F05BFC55F8040F0FF2C83107F01B
:1024C0008FF800283AD16E68CF4D96B3314605F1AA
:1024D000240007F061FB07F07EF9C5A604F2045062
:1024E00031780FF23037017071784170394600F061
:1024F0009DFC314600F09AFC05F1240104F20450E1
:1025000000F094FC4FF4A56020443178017071789C
:1025100041704FF4A5603946204400F087FC3146F5
:1025200000F084FC4FF4A56005F12401204400F084
:102530007DFC05F124020FF2005177E02E680FF2C6
:102540000C51304607F04CF850B96E68304603F035
:1025500021FA81B23046FFF7ABFC05B0BDE8F0864A
:102560000FF2F041304607F03BF860B9A86806F07A
:10257000E9F8002800F0398101466868FFF732FC6D
:1025800005B0BDE8F0869BA1304607F029F848B9B0
:10259000062202A94FF6FF7000F012FD02460FF26C
:1025A000BC4143E00FF2C441304607F019F870B95E
:1025B0000FF2B05408222146022004F04AF96421A7
:1025C0002046FEF769FC02460FF2AC412EE00FF206
:1025D000C041304607F004F870BB01208DF80000C0
:1025E000062206208DF80100694602208DF80200BF
:1025F000C6208DF8030000208DF8040003208DF81C
:1026000005004FF6FF7000F0DBFC8DF80600082295
:10261000000A8DF807006946022004F01AF96421C7
:102620006846FEF739FC02460FF27041032002F0C3
:1026300060FE05B0BDE8F0860FF27C41304606F042
:10264000CFFF002840F0A28001208DF80000002577
:1026500003208DF801004FF6FF7907208DF8020066
:102660008DF80450D1208DF80300062230208DF81B
:1026700005006946484600F0A3FC8DF806000822D4
:10268000000A8DF807006946022004F0E2F804F021
:102690007FFC00260027824604F07AFCA0EB0A00AB
:1026A000B0F57A7F0ED2022004F085F906460220AA
:1026B00004F0B7F90746022003F00FFF002EEBD01D
:1026C000042FE9D304F064FCA0EB0A00B0F57A7F94
:1026D00059D2002E57D0042F55D3304604F05EFC5B
:1026E000070050D032463946022004F082F90646EF
:1026F000821E92B23946484600F062FCB919891E22
:102700009DF800303E784A780978B34202BF9DF8C0
:1027100001307E78B34233D1BB78602B04BF41EAED
:10272000022188422CD1012B2ADB4FF4946013F054
:1027300003022044394607D0CE7800F8016B6D1CA7
:10274000521E01F10101F7D1980819D079196219C7
:10275000C97882F8A014691C7A186318D27883F8B3
:10276000A024491C7A186318D27883F8A024491C45
:102770007A186318D27883F8A0244D1C401EE5D146
:10278000384604F0B0FC0FF240312BE00FF250312C
:10279000304606F025FF40B994F880040FF250311E
:1027A00040F0010084F880041CE00FF25C313046F8
:1027B00006F016FF40B994F880040FF2603140F043
:1027C000020084F880040DE00FF26831304606F014
:1027D00007FF50B994F880040FF26C3140F0040008
:1027E00084F88004032002F084FD05B0BDE8F08683
:1027F0002F00000063726300E00E00200000F03F35
:1028000034A300200814002010A300200CED00E0E9
:102810000400FA0541442D32300000006D657373E9
:102820006167656964000000636869636B656E00D9
:1028300077617272696E673E20436D6448616E6CA9
:1028400064654C6F6769632D3E436869636B656EB1
:1028500020686F75736520737769746368696E6744
:10286000206661696C6564206D6573736167656975
:10287000643A25780D0A000074696D657374616DA2
:10288000700000006465766963656964000000009B
:102890006465736972656400696E663E20434D44E9
:1028A0005F5570646174612074733A25752C64619E
:1028B00074613A25730D0A00696E663E204172729A
:1028C000697665506174682074733A25752C64616B
:1028D00074613A25730D0A006C6F673E206D736753
:1028E00069643A25640D0A006C6F673E2064657662
:1028F00069636569643A25730D0A00006C6F673E71
:1029000020636D6D3A25730D0A000000434D442D80
:1029100030310000646576696365726573657400C3
:10292000646576696365666163746F7279726573F5
:102930006574000034372E3130372E3132342E3268
:10294000323600006775616E6778696E00000000BE
:10295000646576696365706172616D6765740000B6
:102960007363616E73746174696F6E00434D442DBF
:1029700030320000757365726E616D650000000095
:102980007573657270776400706F72740000000078
:1029900068656172746265617400000077617272CB
:1029A000696E673E20747364696666206572726F33
:1029B000723A25640D0A0000434D442D3033000067
:1029C000434D442D30350000434D442D303400003C
:1029D00070726F6A656374006669726D77617265A3
:1029E0000000000041442D32305F464D5F56302ECE
:1029F0003600000068617264776172650000000053
:102A000041442D32305F48445F56312E3000000083
:102A10007374617475730000434D442D313032007E
:102A20006E756D6265720000616C61726D00000010
:102A300001010032000100006C6F673E20446576A2
:102A40006963652049443A25730D0A007265636520
:102A50006976650073656E64000000006C6F673E08
:102A6000206372633A25780D0A00000047657443BD
:102A70006869636B656E00006C6F673E2043686930
:102A8000636B656E4E756D6265723A25780D0A004E
:102A9000536574436869636B656E00006C6F673ED5
:102AA00020536574436869636B656E4E756D62652E
:102AB000723A25780D0A000047657452656769739C
:102AC00074657244617461006C6F673E2047657481
:102AD0005265676973746572446174610D0A000020
:102AE0005570436869636B656E53746174757300E8
:102AF0006C6F673E205570436869636B656E5374F5
:102B0000617475730D0A00005570416C61726D50EF
:102B10006172616D65746572000000006C6F673EE4
:102B2000205570416C61726D506172616D657465A4
:102B3000720D0A005570416C61726D506172616D69
:102B400065746572616C6C006C6F673E20557041F6
:102B50006C61726D506172616D6574657220616C3B
:102B60006C0D0A00010302C60001658F31010001EE
:102B70002702FF0028022C0132012D013001110033
:102B800033013401350136013701380139013A0189
:102B90003B013C013D013E013F01400101010201B9
:102BA00003010401050106010701080109010A01E9
:102BB0000B010C010D010E010F0110011301140195
:102BC00028027803790301000200B702050006001D
:102BD000070008000A000B000D000E00450046002B
:102BE000470048000C00030004000F00100009001B
:102BF00013001400150016001700180019001A0021
:102C00001B001C0064006500660067006800690026
:102C10006A006B006C006D006E006F007000710048
:102C200072007300740075007600770078007900F8
:102C30007A007B007C007D007E007F0080008100A8
:102C40003F00400041005800590055005700560011
:102C50005D005E005F0060006100620063005A007A
:102C60005B004B004C004D004E004F00520019011C
:102C70001A011B011C011D011E011F012001210160
:102C800022012301240125012601270128017601C3
:102C900079017801AF08B008B108B208B308410162
:102CA00042014301440145014601470148014901F0
:102CB0004A014B014C014D014E014F0150015101A0
:102CC0005201530154015501560157015801590150
:102CD0005A015B015C015D015E015F016001610100
:102CE00062016301640165016601670168016901B0
:102CF0006A016B016C016D016E016F017001670863
:102D000068086A086B086C086D086E086F08700820
:102D1000710872087308B400B500B600B700B800B7
:102D2000B900BA00BB00BC003E00BE004900B100C3
:102D300029012A01AA00AB00AC00AD00AE00AF0033
:102D4000B000D300D400D500D600D800D900DA00F6
:102D5000DB00B70227003D001D001E001F00200001
:102D60002100220023002400A000A100A200A30053
:102D7000A400A500A600A7003001BF00C000C1004C
:102D8000C200C300C400C500C600C700C800C90017
:102D9000CA00CB00CC00CD00CE00CF00D000D100C7
:102DA000D200FB000300DD00DE00DF00E000E100F8
:102DB000E200E300E400E500E600E700E800E900E7
:102DC000EA00EB00EC00ED00EE00EF00F000F10097
:102DD000F200F300F400F500F600F700F800F90047
:102DE000FA007D01A801AE01AF01920193019901A2
:102DF0009A019B019C019D019E019F01A001A101DF
:102E0000A2017E017F018001810182018301840191
:102E1000850186018701880189018A018B018C0166
:102E20008D018E018F01900191010000024600E0AA
:102E3000521C1378002BFBD111F8013B137012F8D0
:102E4000013B002BF8D17047F0B4002818BF0029CF
:102E500019D0140017D01C0015D00024D21A01E09C
:102E6000641C24B2A2420EDB002501E06D1C2DB2D1
:102E700006194F5D765DBE42F2D16E1C9E42F5D1C1
:102E80002044F0BC7047F0BC002070470146002091
:102E900000291CBF084602F07DBD704730B40022F7
:102EA00000294FD0044601230A2C0A46C0F0228094
:102EB00003EB83056B000A25B4FBF5F40A2C17D34A
:102EC00003EB83056B000A25B4FBF5F40A2C0FD342
:102ED00003EB83056B000A25B4FBF5F40A2C07D33A
:102EE00003EB83056B000A25B4FBF5F40A2CDFD253
:102EF0002BB300BFB0FBF3F403FB140004F1300567
:102F00000A2402F8015BB3FBF4F3C3B1B0FBF3F4A2
:102F100003FB140004F130050A2402F8015BB3FB43
:102F2000F4F363B1B0FBF3F403FB140004F13005D8
:102F30000A24B3FBF4F3002B02F8015BDAD1002082
:102F400010700A4630BC104670470000002160B186
:102F500007E000BF01EB810210F8011B303901EBE3
:102F600042010278303A0A2AF4D30846704700003A
:102F7000002118B30278302A0AD14278782A18BF83
:102F8000582A05D1801C03E0573A02EB0111401C7E
:102F90000278130011D0A2F1300CBCF10A0F38BF37
:102FA000303AF2D3A2F1410CBCF1060F38BF373AE8
:102FB000EBD3A2F16103062BE6D30846704700006D
:102FC000130000D1704770B412F003040FF2505395
:102FD00000F00C8011F8016B0546704000F0FF0016
:102FE00033F81000641E80EA1520F3D1920829D02E
:102FF00011F8015B0446684000F0FF0033F8100050
:1030000011F8015B80EA14200446684000F0FF00DC
:1030100033F8100011F8015B80EA14200446684080
:1030200000F0FF0033F8100011F8015B80EA142073
:103030000446684000F0FF0033F81000521E80EA9A
:103040001420D5D170BC7047010901EB810200F05A
:103050000F0000EB4200C0B270470A2190FBF1F173
:1030600001EB8102A0EB420040EA0110C0B27047C0
:1030700070B50446254600E06D1C2E7830000DD05A
:10308000A6F120005F28F7D3304606F0A7FD002800
:10309000F2D1304606F0ACFD0028EDD100202870BA
:1030A000204670BD002100281CBF0268002A17D0EE
:1030B000DFF878130A680AB9086010E0916869B10E
:1030C0009268916851B10A46916839B10A4691688F
:1030D00000291EBF0A4691680029F1D190600121A4
:1030E000084670470000000070B50446DFF83C0356
:1030F000056892B068460421002202604260826046
:10310000C2601030491EF8D1267830000FD0202E32
:103110000BD0A6F120005F2809D3304606F05EFDF3
:1031200028B9304606F064FD08B9641CECE70126B6
:103130000094204603E000BF4DF82600761C02787C
:10314000002A3CD0102E3ADA0278130018BF202A49
:103150001CBF10F8012F002A11D0202A1CBF10F824
:10316000012F002A0BD0202A1EBF10F8012F002AA1
:10317000202A04D0401CE7E7002200F8012B027847
:10318000130019D0202A17D10022027010F8012F45
:1031900092B10278202A0FD10022027010F8012F7C
:1031A00052B10278202A07D10022027010F8012FB4
:1031B00012B10278202ADFD00278002ABCD1002088
:1031C0004DF8260000E0AD685DB1012EFBDB2968FB
:1031D000204606F005FA0028F5D16A6869463046AF
:1031E000904712B070BD2DE9F04105460E464FF0F4
:1031F000FF38002700E07F1CBFB23C4655F8240092
:1032000028B1314606F0ECF90028F4D1A04640463A
:10321000BDE8F081DFF818120A6822B9086070472B
:10322000116999B10A4682420ED0116971B10A46FC
:10323000824209D0116949B10A46824204D011691B
:1032400021B10A468242EBD1824202D000210161C3
:10325000106170470021C1607047002918BF002A23
:1032600009D0531E134206D10160436000218160E2
:10327000C1600120704700207047C368D0F808C0C3
:103280004268A3EB0C039A420AD3D0F80CC003683F
:1032900002EA0C029954C168491CC16001207047C0
:1032A00000207047C1688068081A7047C168816053
:1032B0007047134670B40022002918BF002B37D086
:1032C000C4688568641B9C4201D2230030D08568A5
:1032D000466804683540645D8C5402F101028468DC
:1032E000641C5B1E846023D04668056834402C5DF6
:1032F0008C5402F101028468641C5B1E846017D048
:103300004668056834402C5D8C5402F101028468E3
:10331000641C5B1E84600BD04668056834402C5DDD
:103320008C5402F101028468641C5B1E8460CED15F
:1033300070BC10467047134670B40022002918BFB5
:10334000002B3AD04468C568641B85682C19641C3E
:103350009C4201D2230030D0C568466804683540DD
:103360008E5C665502F10102C468641C5B1EC46079
:1033700023D04668056834408E5C2E5502F1010268
:10338000C468641C5B1EC46017D04668056834407E
:103390008E5C2E5502F10102C468641C5B1EC46081
:1033A0000BD04668056834408E5C2E5502F1010250
:1033B000C468641C5B1EC460CED170BC10467047EC
:1033C0008368D0F80CC00022ACEB030C614504D23A
:1033D00002684068C9180840125C1046704710B473
:1033E00013001BD003781B094C1C0A2BACBF3733CE
:1033F00030330B700178CB0801EB13731B09A1EB81
:103400000313DBB2611C0A2BACBF3733303323709C
:10341000401C2023521E01F8013BE3D10D2008700F
:103420000A2048700020887010BC704740A6002019
:1034300044A60020002302B9704730B4C45C04F0F5
:103440000F0524093034E4B23A2CA8BFE41D01F87A
:10345000134005F13004E4B201EB43053A2CA8BF58
:10346000E41D5B1C1BB293426C70E7DB30BC704701
:103470002DE9F04190460026B8F1000F04460D46B4
:103480001ED0A05D06F0C8FBC7B2A019407806F0B8
:10349000C3FBC0B23A2FACBFA7F13701A7F130018F
:1034A0003A28ACBF3738303806EBD672C9B2C0B252
:1034B0005210B61C40EA011036B2A8544645E0DB73
:1034C000BDE8F08130B4002301E05B1C521E94B2D1
:1034D00014B39BB2C45CCD5CAC421AD1521E5B1CCF
:1034E00094B2CCB19BB2C45CCD5CAC4211D1521E43
:1034F0005B1C94B284B19BB2C45CCD5CAC4208D17D
:10350000521E5B1C94B23CB19BB2C45CCD5CAC421D
:10351000DBD030BC0020704730BC01207047000079
:103520000000C1C081C1400101C3C003800241C28B
:1035300001C6C006800741C70005C1C581C440045B
:1035400001CCC00C800D41CD000FC1CF81CE400E0B
:10355000000AC1CA81CB400B01C9C009800841C81B
:1035600001D8C018801941D9001BC1DB81DA401A8B
:10357000001EC1DE81DF401F01DDC01D801C41DC5B
:103580000014C1D481D5401501D7C017801641D68B
:1035900001D2C012801341D30011C1D181D040109B
:1035A00001F0C030803141F10033C1F381F240328B
:1035B0000036C1F681F7403701F5C035803441F45B
:1035C000003CC1FC81FD403D01FFC03F803E41FE0B
:1035D00001FAC03A803B41FB0039C1F981F840381B
:1035E0000028C1E881E9402901EBC02B802A41EA8B
:1035F00001EEC02E802F41EF002DC1ED81EC402C5B
:1036000001E4C024802541E50027C1E781E640268A
:103610000022C1E281E3402301E1C021802041E09A
:1036200001A0C060806141A10063C1A381A240628A
:103630000066C1A681A7406701A5C065806441A45A
:10364000006CC1AC81AD406D01AFC06F806E41AE0A
:1036500001AAC06A806B41AB0069C1A981A840681A
:103660000078C1B881B9407901BBC07B807A41BA8A
:1036700001BEC07E807F41BF007DC1BD81BC407C5A
:1036800001B4C074807541B50077C1B781B640768A
:103690000072C1B281B3407301B1C071807041B09A
:1036A0000050C190819140510193C053805241928A
:1036B0000196C056805741970055C195819440545A
:1036C000019CC05C805D419D005FC19F819E405E0A
:1036D000005AC19A819B405B0199C059805841981A
:1036E0000188C04880494189004BC18B818A404A8A
:1036F000004EC18E818F404F018DC04D804C418C5A
:103700000044C184818540450187C0478046418689
:103710000182C042804341830041C1818180404099
:10372000F0B50FF21070DFF8F846D0E9002387B04B
:103730000021CDE90023684602F096FF0FF64821EC
:10374000C4F8D40102A8ECC9ECC0002102A802F020
:10375000ACFE04F6FC10FFF7A5FC0FF2E0610320BD
:1037600001F0C7FD07B0F0BD2DE9F046DFF8B04627
:1037700083B004F60820FFF74DFD04F60820FFF79C
:1037800069FD04F6EC1006F0E7FA4FF48060029051
:1037900040F6B83204F2EC50019004F6EC114FF40C
:1037A000806000904FF4F670231804F1580006F082
:1037B0000DFB4FF47A7002F090FE0FF298610FF259
:1037C000EC790FF2C07A032001F093FD12E0494634
:1037D000032001F08EFDD4F8E031180004D0FA681F
:1037E000B96892B228469847384603F07CFC02201C
:1037F00002F073FE04F60820FFF72CFD00F037F905
:10380000D4F8DC01010018BF80470021002006F039
:1038100060FF0128EBDB0A2104F1580006F076FC7A
:10382000D4F8D4110222684602F04AFF009800261C
:103830001028DCD1019FF8680028D8D0B9680D188D
:10384000A06F0028C3D03A46294604F1580006F07C
:1038500052FD00281DBFB4F8D011491C01260021DB
:10386000A4F8D01103462A465146032001F041FD39
:10387000012EB9DBAFE7DFF8A805806F7047DFF8EE
:10388000A00590F8CC01704770B504460FF2E051E6
:10389000606883684268DFF88C55032001F029FDD9
:1038A0001026286868B161684A68896807F086FB55
:1038B00038B9686828B12068C16880686A6889B2C8
:1038C00090470C35761EECD170BD70B504460D46A0
:1038D0000021002006F0FDFE01284FF0FF360EDB30
:1038E00006F050FE58B9DFF8380590F8CC11491CA5
:1038F00080F8CC112046294606F048FE06463046A0
:1039000070BD70B504460D4606F03CFE4FF0FF3624
:1039100068B92946204606F059FE0646012E06DB08
:10392000DFF8FC0490F8CC11491C80F8CC1130462B
:1039300070BD2DE9F04D80468A4615461C4602F0C2
:1039400029F8401DC0B2001900F1100B584603F0D1
:1039500025FB0026070048D0594607F045FB87F8AD
:1039600000A07E7007F11000B860FC60E4B114F0B4
:10397000030005D0BA68A95D9155761C401EF9D1A7
:10398000A00811D0BA68A95D9155711CBB686A5C2A
:103990005A54491CBB686A5C5A54491CBB686A5C2F
:1039A0005A544E1C401EEDD1B868FA684146104486
:1039B00006F0F2F8DFF86804D0F8D40140F6B83227
:1039C000394602F056FE38B90FF2D041052001F019
:1039D00090FC0120BDE8F08D02460FF2E04102208C
:1039E00001F087FC384603F07EFB0020BDE8F08D37
:1039F0000000000030B4B8B3130035D05FF000040D
:103A0000DFF81C3404EB440503EB8505D5F81051B1
:103A100065B904EB440503EB850383F80C11C3F887
:103A20001421C3F81001012030BC7047641C04EB62
:103A3000440503EB8505D5F81051002DE9D0641C31
:103A400004EB440503EB8505D5F81051002DE0D0BB
:103A5000641C04EB440503EB8505D5F81051002DDB
:103A6000D7D0641C102CCDDB30BC002070472DE972
:103A7000F04383B000200290ADF80400DFF8A043CB
:103A800094F8CC0148B194F9CE0130B9012084F802
:103A9000CE0103F07DFAC4F8E40103F079FAD4F81A
:103AA000E411401A642807D394F8CC0120B1002017
:103AB00084F8CC0184F8CE0101A902A806F009FE21
:103AC000054694F9CD01A84201BFD74E0298311D99
:103AD000884205D1BDF80400B6F8B410884209D078
:103AE000A06F84F8CD5128B105F0D9FF0020A06760
:103AF00005F0EEFF94F8740020B903F049FAC4F819
:103B0000D80107E003F044FAD4F8D811401AB0F510
:103B1000FA5F02D2B4F8D001D8B105F0C0FF00209E
:103B2000A4F8D00184F8740005F0D2FFA06F80B132
:103B300004F1580006F057FC020005D00FF21851AE
:103B4000032001F0D6FB04E00FF23C51032001F00A
:103B5000D0FB03F01DFAD4F8E811401A47F23051B7
:103B6000884209D303F014FAC4F8E80125B9B4F87F
:103B7000D201401CA4F8D201B4F8D20105281ADB06
:103B8000A06F80B104F1580006F02DFC30B1024660
:103B90000FF2C441032001F0ACFB04E00FF2E84156
:103BA000032001F0A6FB0020A4F8D20103200FF2AD
:103BB000303101F09EFBA06F002840F09D8006F0A0
:103BC000E1FC28B9984EB6F8B410301D06F027FD78
:103BD000012DC0F29180944E0298311D884202BF9F
:103BE000BDF80400B6F8B410884240F08580042087
:103BF00020720FF20841B6F8B800208306F12400C5
:103C0000E06006F15400206406F18400E0640120C5
:103C1000A0760020E076032001F06BFB214604F142
:103C2000580006F093FA68B102460FF2E83103201B
:103C300001F05FFBB4F8D201401CA4F8D20103B03C
:103C4000BDE8F0830FF2F831032001F052FBB6F823
:103C5000B4000FF2A8210090331D2A46032001F082
:103C600048FB06F18400009006F1540306F124029B
:103C70000FF2BC21032001F03CFBB6F8B8000FF2B4
:103C8000E4214208032001F034FB0020A4F8D20113
:103C900005F005FF04F17C0004210022026082602F
:103CA000026182612030491EF8D105F011FF4FF406
:103CB0008870251810260FF22039DFF870812868E7
:103CC00078B115F8042C0146434604F1580006F07B
:103CD00093FA07462A683B464946032001F009FB50
:103CE0001FB90C35761EEAD104E0B4F8D001401CAF
:103CF000A4F8D001FEF7C6FA03B0BDE8F08370B5B2
:103D000082B00C460FF2A83154F8040F05F068FC9D
:103D1000C0B9A068FFF71AF9E6680546304601F019
:103D200039FE83B260683246E9B2FFF702FE00282E
:103D300074D062680FF2803102B0BDE87040032099
:103D400001F0D7BA24680FF28C31204605F048FC08
:103D500070B9002106F0BDFC314C0FF2803194F8AF
:103D60007430A26F0090032001F0C3FA02B070BD5E
:103D70000FF2A431204605F033FC70B9284C4FF403
:103D80008270204405F088FF4FF482706421204443
:103D900005F04EFF0FF288313AE00FF29C312046D9
:103DA00005F01EFCA0B9224806F01DFB020007D05A
:103DB0000FF2A421032001F09CFA0FF2883127E0D2
:103DC0000FF2C421032001F094FA0FF278311FE0C2
:103DD0000FF29031204605F003FCF8B90FF21C21D8
:103DE0000F4C032001F085FA214604F1580006F03B
:103DF000ADF9020005D00FF21C21032001F079FA81
:103E000004E00FF23C21032001F073FA0FF25C3161
:103E100002B0BDE87040032001F06BBA02B070BD83
:103E2000B8040020C805002010A30020893800082D
:103E30001005002010000000040000006C6F673EB9
:103E40002050726F746F636C20696E6974204F4BE1
:103E50002E0D0A006C6F673E2050726F746F636C9A
:103E6000207461736B2073746172742E0D0A0000EC
:103E70006C6F673E2052656365697665204E657795
:103E8000206D657373616765252E2A732C20706120
:103E9000796C6F61643A0D0A000000006462673E4D
:103EA000204D515454206D65737361676520512016
:103EB000707574204F4B2E0D0A00000077617272EE
:103EC000696E673E204D515454206D657373616770
:103ED000652051206661756C743A25640D0A0000F6
:103EE0006C6F673E20434F4E4E4543545F464149F9
:103EF0004C5F5245415554482E0D0A006C6F673E89
:103F00002053797374656D20736F636B65742070D3
:103F10006174683A25642C207365727665723A255F
:103F2000732C20706F72743A25752E0D0A000000F4
:103F30006C6F673E204D5154542D636C69656E74EF
:103F400049643A25732C20757365726E616D653A0C
:103F500025732C20757365727077643A25730D0A8A
:103F6000000000006C6F673E204D51545420506992
:103F70006E6720696E7674657220256420730D0A61
:103F8000000000006C6F673E204D51545420707546
:103F9000626C69736820746F703A25732C207265A7
:103FA0007475726E3A25640D0A0000006C6F673EEE
:103FB000204D515454207075626C6973682066619D
:103FC000696C2C204D515454206E6F7420636F6EB9
:103FD0006E6563742E0D0A006C6F673E204D515460
:103FE00054207375627363726962652025732C2097
:103FF00072657475726E3A25640D0A006C6F673EC7
:1040000020446F204D51545420636F6E6E6563746D
:10401000200D0A006C6F673E2052657475726E2029
:10402000636F64652066726F6D204D515454206338
:104030006F6E6E6563742069732025640D0A00003D
:104040006C6F673E204D51545420436F6E6E656314
:104050007465640D0A0000006C6F673E2052657441
:1040600075726E20636F64652066726F6D204D51AE
:10407000545420646973636F6E6E65637420697352
:104080002025640D0A0000006C6F673E204D5154DE
:1040900054204469736F6E6E656374656420666155
:1040A000696C2072657475726E2E0D0A0000000036
:1040B0007075626C697368006C6F673E204D515477
:1040C00054207075626C697368202573204F4B2EE5
:1040D0000D0A000073746174757300006C6F673EA5
:1040E000204D51545420636C69656E7420636F6E6B
:1040F0006E6563743A25642C2070696E67206F7555
:10410000743A25642C204E657420706174683A25D9
:10411000642E0D0A0000000070696E670000000048
:104120006C6F673E20746573742070696E67204FF2
:104130004B2E0D0A00000000646973636F6E6E659C
:10414000637400006C6F673E2074657374204D517A
:10415000545420646973636F6E6E6563742E0D0A28
:1041600000000000636F6E6E656374006C6F673EE5
:104170002074657374204D51545420636F6E6E65C6
:1041800063742E0D0A000000F0B0010869370008C2
:104190000000000000000000000400002DE9F04BCA
:1041A0008046164682B00C469946B00002F0F6FEF4
:1041B0005FEA000B57D05C2002F0F0FE07004FD002
:1041C000C7F830B0A5220A9DB100584603F0CEFDD5
:1041D000386B00EB8600001FC608F60006F00700EB
:1041E00007F1340122780A70227882B162784A702D
:1041F000627862B1A2788A70A27842B1E278CA701D
:10420000E27822B1001D241D091D1028EAD30020E8
:10421000072D87F8430028BF0625FD62FD64386539
:10422000381D06F0F1FE07F1180006F0EDFEC5F1AD
:104230000700B8613F617F620020786587F8580009
:104240004A464146304605F0ADFB38600B9800B158
:104250000760384600F00CF8012002B0BDE8F08B92
:10426000584602F040FF4FF0FF3002B0BDE8F08B3F
:1042700030B581B0044605F012FCDFF81858D5F8C7
:10428000D800401CC5F8D800D5F8C800002841D196
:10429000C5F8C840D5F8D800012846D105F1280056
:1042A00006F0A5FE05F13C0006F0A1FE05F1500068
:1042B00006F09DFE05F1640006F099FE05F1780018
:1042C00006F095FE05F18C0006F091FE05F1A000C8
:1042D00006F08DFE4FF48070284406F088FE4FF4FF
:1042E0008A70284406F083FE284606F080FE05F119
:1042F000140006F07CFE05F1B40006F078FE4FF4E1
:1043000080702844C5F8CC004FF48A702844C5F862
:10431000D0000AE0D5F8E40038B9E06AD5F8C81052
:10432000C96A884228BFC5F8C840D5F8F400401CC7
:10433000C5F8F40060640122E06AD5F8E01082401C
:104340001143C5F8E01000EB800205EB8200211D4F
:10435000283006F05CFE05F0BBFBD5F8E40070B138
:10436000D5F8C800E16AC06A884208D2DFF8381878
:104370004FF080500860BFF34F8FBFF36F8F01B0D5
:1043800030BD70B5050041D0DFF80847D4F8FC0017
:1043900038B1502080F31188BFF34F8FBFF36F8F78
:1043A000FEE7D4F8FC00401CC4F8FC00D4F8DC6044
:1043B000D4F8C800001D06F062FE58B9D4F8C80051
:1043C000D4F8E010C06A012202FA00F021EA0000ED
:1043D000C4F8E000AD19D4F8C8004560B542D4F87F
:1043E000C80005D2011DD4F8D00006F01CFE0AE07A
:1043F000011DD4F8CC0006F016FED4F8F800854272
:1044000038BFC4F8F85000F08DF840B9DFF89817BD
:104410004FF080500860BFF34F8FBFF36F8F70BDB8
:1044200030B581B04FF4007002F0B8FD050063D0E4
:104430005C2002F0B3FD04005BD02563A5224FF49D
:104440000071284603F092FC206B0FF2C0024FF47B
:10445000FE710844C508ED0005F0070004F13401C1
:1044600013780B7073B153784B705BB193788B708A
:10447000002B07D0D378CB7023B1001D121D091D6E
:104480001028EDD3002084F84300E062E06420654A
:10449000201D06F0B9FD04F1180006F0B5FD072057
:1044A000A061246164620020606584F858000022E5
:1044B0000FF64111284605F075FA20602046FFF7F7
:1044C000D7FE502080F31188BFF34F8FBFF36F8F5B
:1044D000DFF8C0054FF0FF31C0F8F8100121C0F837
:1044E000E4100021C0F8DC1001B0BDE8304005F058
:1044F0007DBA284602F0F7FD502080F31188BFF303
:104500004F8FBFF36F8FFEE70000000049444C451A
:1045100000000000DFF87C05D0F8FC10491CC0F852
:10452000FC10704770B5DFF86C55D5F8FC0000261C
:10453000002438B9502080F31188BFF34F8FBFF3A8
:104540006F8FFEE705F0ABFAD5F8FC00401EC5F80A
:10455000FC00D5F8FC00002851D1D5F8D80010BBDC
:104560004DE0E868C66806F1180006F088FD301DC9
:1045700006F085FDF06AD5F8E01001228240114373
:10458000C5F8E01000EB800205EB8200311D2830F9
:1045900006F03DFDF06AD5F8C810C96A884224BF0C
:1045A0000120C5F8EC0028680028DAD16EB1D5F8F2
:1045B000CC00006810B94FF0FF3004E0D5F8CC0013
:1045C000C068C0684068C5F8F800D5F8E8604EB12A
:1045D00000F062FA10B10120C5F8EC00761EF7D1A8
:1045E000C5F8E840D5F8EC0048B1DFF8BC154FF04D
:1045F000805001240860BFF34F8FBFF36F8F05F029
:1046000067FA204670BD00002DE9F54FDFF884847D
:1046100081B0D8F8FC00401CC8F8FC000726D8F888
:10462000D80081424FF00009C0F02E82761E06EBC2
:10463000860008EB80044FF0000AA06A002866D0CC
:10464000E06A4068E06204F13001884204BF4068DB
:10465000E062E06AC068009009EBC901019800EBD4
:10466000810000F10805E06A4068E06204F1300171
:10467000884204BF4068E062E06AC768002F0CBF50
:10468000D8F8C8B0BB460BF1340045F8040C45F827
:1046900008BCDBF82C00A860DBF830006861DBF8B0
:1046A00044002860287903280BD1D8F8FC00401C6E
:1046B000C8F8FC00DBF8280008B102202871FFF7D9
:1046C00031FF0021DBF84C00E86000202861012068
:1046D0002871DBF830000278A52A10D14278491CF5
:1046E000A52A02BF491C8278A52A02BF491CC278AC
:1046F000A52A02BF491C10F8042FA52AEED088086D
:1047000028832435009887420AF1010AABD1002E94
:10471000D1448BD1D8F8CC60306800284FF0000A23
:1047200064D070684068706006F10801884204BF78
:10473000406870607068C468019809EBC90100EBBB
:10474000810000F1080570684068706006F108019A
:10475000884204BF406870607068C768002F0CBF53
:10476000D8F8C8B0BB460BF1340045F8040C45F846
:1047700008BCDBF82C00A860DBF830006861DBF8CF
:1047800044002860287903280BD1D8F8FC00401C8D
:10479000C8F8FC00DBF8280008B102202871FFF7F8
:1047A000C1FE0021DBF84C00E860002028610220F7
:1047B0002871DBF830000278A52A10D14278491C14
:1047C000A52A02BF491C8278A52A02BF491CC278CB
:1047D000A52A02BF491C10F8042FA52AEED088088C
:1047E00028832435A7420AF1010AACD1D8F8D06059
:1047F0003068D14400284FF0000A64D070684068E7
:10480000706006F10801884204BF406870607068FB
:10481000C468019809EBC90100EB810000F10805AB
:1048200070684068706006F10801884204BF406803
:1048300070607068C768002F0CBFD8F8C8B0BB465E
:104840000BF1340045F8040C45F808BCDBF82C00EB
:10485000A860DBF830006861DBF844002860287944
:1048600003280BD1D8F8FC00401CC8F8FC00DBF88A
:10487000280008B102202871FFF754FE0021DBF860
:104880004C00E8600020286102202871DBF830002D
:104890000278A52A10D14278491CA52A02BF491CDA
:1048A0008278A52A02BF491CC278A52A02BF491CEA
:1048B00010F8042FA52AEED0880828832435A742B3
:1048C0000AF1010AACD1D8F8140000260028D1441E
:1048D00066D0D8F818004068C8F8180008F11C0124
:1048E000884204BF4068C8F81800D8F81800D0F80B
:1048F0000CA0019809EBC90100EB810000F108044C
:10490000D8F818004068C8F8180008F11C0188425F
:1049100004BF4068C8F81800D8F81800C568002D12
:104920000CBFD8F8C8702F4607F1340044F8040CC7
:1049300044F8087CF86AA060386B6061786C20608D
:10494000207903280AD1D8F8FC00401CC8F8FC00E4
:10495000B86A08B102202071FFF7E4FD0021F86C6D
:10496000E0600020206104202071386B0278A52AC5
:1049700010D14278491CA52A02BF491C8278A52A79
:1049800002BF491CC278A52A02BF491C10F8042F97
:10499000A52AEED088082083761C24345545AFD153
:1049A000B144D8F8B4000026002867D0D8F8B80081
:1049B0004068C8F8B80008F1BC01884204BF4068EC
:1049C000C8F8B800D8F8B800D0F80CA0DDF804009A
:1049D00009EBC90100EB810000F10804D8F8B80028
:1049E0004068C8F8B80008F1BC01884204BF4068BC
:1049F000C8F8B800D8F8B800C568002D0CBFD8F8C2
:104A0000C8702F4607F1340044F8040C44F8087CC1
:104A1000F86AA060386B6061786C206020790328A8
:104A20000AD1D8F8FC00401CC8F8FC00B86A08B1EC
:104A300002202071FFF776FD0021F86CE060002075
:104A4000206103202071386B0278A52A10D14278AA
:104A5000491CA52A02BF491C8278A52A02BF491C0D
:104A6000C278A52A02BF491C10F8042FA52AEED04F
:104A700088082083761C24345545AFD10298B14470
:104A800010B1029900200860FFF74CFD484603B0C2
:104A9000BDE8F08FE8A10020F0B5DFF8405681B006
:104AA000D5F8FC000024002870D1D5F8DC00461CA5
:104AB000C5F8DC6026D1D5F8CC00006838B15020AC
:104AC00080F31188BFF34F8FBFF36F8FFEE7D5F8E8
:104AD000CC00D5F8D010C5F8CC10C5F8D000D5F86A
:104AE000F000401CC5F8F000D5F8CC00006810B903
:104AF0004FF0FF3004E0D5F8CC00C068C0684068D3
:104B0000C5F8F800D5F8F800864230D31FE0381D0C
:104B100006F0B5FAB86A18B107F1180006F0AFFA56
:104B2000F86AD5F8E010012282401143C5F8E01080
:104B300000EB800205EB8200391D283006F067FA91
:104B4000F86AD5F8C810C96A884228BF0124D5F888
:104B5000CC00006810B94FF0FF3006E0D5F8CC006B
:104B6000C068C76878688642D1D2C5F8F800D5F821
:104B7000C800C06A00EB800105EB8100806A022852
:104B8000D5F8E80028BF012438B904E0D5F8E800DA
:104B9000401CC5F8E80006F084FAD5F8EC0000B136
:104BA0000124204601B0F0BD04ED00E010B5DFF8AF
:104BB0002C45D4F8FC0018B10120C4F8EC0010BD5D
:104BC000C4F8EC00D4F8C800006B0168B1F1A53F4F
:104BD00004BF4168B1F1A53F07D18168B1F1A53F9C
:104BE00004BFC068B0F1A53F07D0D4F8C80000F1F9
:104BF0003401D4F8C80006F055FAD4F8E000B0FA51
:104C000080F0C0F11F0000EB800104EB8100816A9D
:104C100039B9502080F31188BFF34F8FBFF36F8FE6
:104C2000FEE7C16A4968C16200F13002914204BFE7
:104C30004968C162C06AC068C4F8C80010BD70B5D8
:104C40000D4638B9502080F31188BFF34F8FBFF362
:104C50006F8FFEE7DFF88444D4F8C810183106F0EF
:104C6000E2F9D4F8DC60D4F8C800001D06F007FAB9
:104C700058B9D4F8C800D4F8E010C06A012202FA8A
:104C800000F021EA0000C4F8E00015F1010F08D19E
:104C9000D4F8C800011D04F1B400BDE8704006F06E
:104CA000B6B9D4F8C800AD194560B542D4F8C8000B
:104CB00006D2011DD4F8D000BDE8704006F0B3B9AB
:104CC000011DD4F8CC0006F0AEF9D4F8F800854206
:104CD00038BFC4F8F85070BD30B581B0C068C46842
:104CE0003CB9502080F31188BFF34F8FBFF36F8F13
:104CF000FEE704F1180006F0C2F9DFF8E053D5F83A
:104D0000FC0088B9201D06F0BAF9E06AD5F8E01079
:104D1000012282401143C5F8E01000EB800205EB50
:104D20008200211D283002E004F11801284606F017
:104D30006EF9D5F8C800E16AC06A88423ABF01201E
:104D4000C5F8EC00002001B030BD38B9502080F328
:104D50001188BFF34F8FBFF36F8FFEE7DFF87C132F
:104D6000D1F8F0200260D1F8DC1041607047F0B556
:104D7000040081B00D4607D1502080F31188BFF3A5
:104D80004F8FBFF36F8FFEE73DB9502080F311883E
:104D9000BFF34F8FBFF36F8FFEE704F080FEDFF8A5
:104DA0003C03D0F8DC102A6812F1010F13D06368BD
:104DB000D0F8F0602768BE4201D099420DD2CE1AD9
:104DC00096420AD2511A59182960D0F8F010216081
:104DD000D0F8DC006060002400E0012404F078FEDC
:104DE000204601B0F0BDDFF8F4120120C1F8EC005C
:104DF00070470000F0B581B0DFF8E442DFF8DC6214
:104E00004FF0805525E000BFD6F8FC00401CC6F8E6
:104E1000FC007069471EBF41FFF784FBFF0FC7B955
:104E200004F03DFE306AC768381D06F028F9D6F850
:104E3000D800401EC6F8D800D6F8D400401EC6F8E8
:104E4000D40004F045FE386B02F04DF9384602F00C
:104E50004AF9D6F8D4000028D6D1B06A022804D383
:104E60002560BFF34F8FBFF36F8F06F01CF9F0E79B
:104E7000DFF86802D0F8C8007047DFF86002D0F8A9
:104E8000E41009B901207047D0F8FC0008B90220ED
:104E900070470020704730B5040081B046D0DFF87D
:104EA0003C52E06AD5F8C810C96A88423ED2A0696F
:104EB000002805D4D5F8C800C06AC0F10700A06179
:104EC000E16A606901EB810205EB820128318842C9
:104ED00028D1201D06F0D3F870B9E06A00EB8001FC
:104EE00005EB8100806A38B9D5F8E000E26A01215B
:104EF00091408843C5F8E0000122D5F8C800C06A97
:104F0000E0628240D5F8E0101143C5F8E01001B02E
:104F1000211D00EB800205EB8200BDE83040283007
:104F200006F075B8D5F8C800C06AE06201B030BDBF
:104F300030B504460020002C81B047D0DFF89C51EA
:104F4000D5F8C8108C4207D0502080F31188BFF3E9
:104F50004F8FBFF36F8FFEE7216D39B9502080F37B
:104F60001188BFF34F8FBFF36F8FFEE7E26AE36CE8
:104F7000491E9A42216529D041BB201D06F07FF8C9
:104F800070B9E06A00EB800105EB8100806A38B9F6
:104F9000D5F8E000E26A012191408843C5F8E000BD
:104FA0000122E06CE062C0F10700A061E06AD5F880
:104FB000E01082401143C5F8E01000EB800205EBE1
:104FC0008200211D283006F022F8012001B030BDFA
:104FD000F0B5044685B000202070DFF80001D0F85D
:104FE000D8100391D0F8D80000EBC001880001F080
:104FF000D5FF050062D003990FF2E8060022FFF703
:1050000003FB03900020029038E00027029800EB99
:10501000C00105EB81004168204604F0BDFD20463B
:1050200000F0B8FC0F2806D221182022401C0F28BF
:1050300001F8012BFAD30021215404440299029A69
:1050400001EBC10005EB80008068019002EBC2001B
:1050500005EB80003A46008C0090029800EBC001FE
:1050600005EB810031460369204606F01DF8204615
:1050700000F090FC04440298401C029002980399AE
:10508000884215D2029800EBC00105EB8100007B3D
:10509000401E0328B9D8DFE800F003050709B4E78C
:1050A0005227B3E74227B1E75327AFE74427ADE7DD
:1050B000284605B0BDE8F04002F015B805B0F0BDD7
:1050C000DFF81800D0F8C81021B1D0F8C8100A6D68
:1050D000521C0A65D0F8C80070470000E8A1002003
:1050E00004ED00E009256309257509257509257575
:1050F0000D0A0000F0B5DFF86447012084F82800AD
:1051000085B0E06A012805D004F0C9FC0120E06206
:1051100004F0DEFC4FF4807204F1400104F1300031
:10512000FEF79BF80FF65801ECC968460021ECC069
:10513000684601F0BAF94FF4A0702044FDF7B2FFC1
:105140000FF22071032000F0D4F805B0F0BD00008C
:1051500000B581B00FF22471032000F0CAF800BF3F
:1051600000F017FA0A2001F0B8F9F9E770B5054622
:1051700004F095FCDFF8E40601680026002419B964
:1051800040F82650B41D1BE04168012600291EBFCF
:10519000022681680029F3D0C168032600291EBFBA
:1051A000042601690029EBD04169052600291EBFAC
:1051B0000626816900291EBF0726C1690029DFD0A4
:1051C00004F086FCE0B270BDDFF8902610B492F8CF
:1051D00028301C0081B00FD0062B06DA0A4601B039
:1051E000014610BC184601F034BB02EB830252F8B2
:1051F000182C01B010BC104701B010BC704700B5AE
:105200000A46014681B0DFF85806FEF752F880B230
:1052100001B000BD00B581B0DFF84406FEF742F8EA
:1052200080B201B000BD0EB430B504464FF48060CA
:1052300001F0B4FE050020D003AB22464FF480619C
:1052400005F04CFF284600F0A5FBDFF8102692F889
:10525000283019000ED0062B05DA82B229461846EE
:1052600001F0F7FA06E002EB830281B252F8182C43
:1052700028469047284601F036FF30BC5DF810FB09
:105280002DE9F04782460026BAF1000F0D462ED0D8
:1052900028002CD02809A5EB0010411E894133209D
:1052A000C943C90F01EB151701F078FE5FEA00084A
:1052B000BFB21CD0012F15DB0FF2DC59AC1BA4B21E
:1052C000112CA8BF1024224641465046FEF787F80D
:1052D000424631464846FFF7A6FFA6197F1EA24464
:1052E000B6B2EBD14046BDE8F04701F0FCBEBDE8E8
:1052F000F0870CB470B50C4601002AD0DFF85C557D
:1053000095F82A10814224D34FF4806001F046FEC4
:1053100006001ED004AB22464FF4806105F0DEFE8D
:10532000304600F037FB95F82830014618000DD0C4
:10533000062B04DA8AB2314601F08BFA06E005EB5F
:10534000830289B252F8182C30469047304601F05B
:10535000CAFE70BC5DF80CFB2DE9F04B01260FF284
:105360004459DFF8F884F0B201F025FB050000F0A5
:10537000A78098F82800864232D1681C01F00EFE02
:10538000040000F09D802A462146F0B201F031FB76
:1053900000206055F1B298F8283099421AD1D8F817
:1053A0002C0078B118000DD0062B04DA2A462146CD
:1053B00001F04FFA06E008EB8302294652F8182C58
:1053C000204690472A46214608F13000FDF7B3FFFA
:1053D000204673E02146F0B200F018F920466DE057
:1053E00098F82910F0B2884206D101F01AFBB0F506
:1053F0007A7F28BF002450D2F0B201F0DCFA0746D1
:105400000B2F5DDBF0B201F00CFBB0F57A7F57D3C8
:105410000024BB46A1B2F0B201F0DEFA732834D109
:10542000BBF1070F31DBA1B2F0B201F0D5FA88F879
:105430002000611C89B2F0B201F0CEFA88F8210098
:10544000A11C89B2F0B201F0C7FA88F82200E11C71
:1054500089B2F0B201F0C0FA88F82300211D89B2A8
:10546000F0B201F0B9FA88F82400611D89B2F0B2F7
:1054700001F0B2FA88F825004946002088F8260095
:1054800008F1200004F0ACF828B1641CBC42ABF178
:10549000010BBFDB14E0002C12D4681C01F07EFD70
:1054A00007000DD02A463946F0B201F0A2FA0020DA
:1054B00078553919F0B200F0A9F8384601F013FE1A
:1054C000761C062EFFF64FAFBDE8F08B70B5DFF807
:1054D0008C6396F8283098420C46154617D1F06A2E
:1054E00068B118000BD0062B02DA01F0B2F906E021
:1054F00006EB8302294652F8182C204690472A468C
:10550000214606F13000BDE87040FDF714BFBDE84C
:1055100070407BE070B505003AD000F03BFACF4C0C
:105520000646E06A88B194F8283018000DD0062BA2
:1055300004DAB2B2294601F08CF906E004EB8302EA
:10554000B1B252F8182C28469047B2B2294604F15D
:105550003000FDF7F0FEE06ABDA588B194F8283070
:1055600018000DD0062B04DA0222294601F071F949
:1055700006E004EB8302022152F8182C28469047DB
:10558000294604F13000BDE870400222FDF7D3BE89
:1055900070BD70B5B14C04F13000FDF783FE86B2EA
:1055A0009EB3711E04F13000FDF70AFF0D2818BFED
:1055B0000A2821D1701C01F0F1FC05001CD03246F4
:1055C000294604F13000FDF774FE86B20020A8558C
:1055D000A819801E41780D2912BF0A2900214170A7
:1055E00001780D2912BF0A29002101702846FDF714
:1055F0007BFD284601F077FDB6F5807F05D104F1EB
:105600003000BDE87040FDF751BE70BD70B5044676
:105610000D4606220FF28C21284605F0CFFC00280B
:1056200018D08E4E96F829108C426DD12846FDF781
:105630001FFD0FF2C421284603F0D2FF00284BD1F2
:10564000200086F828405FD0062C0FF27C2053DA29
:105650004BE06D1C2878010018BF20281CBF15F8EE
:10566000010F00280CD020281CBF15F8010F0028BE
:1056700006D020281EBF15F8010F00282028E8D1E9
:105680002878010012D0202810D115F8010F68B138
:1056900020280BD115F8010F40B1202806D115F8AC
:1056A000010F18B1202808BF6D1CE9D02846FDF76E
:1056B000DFFC0FF23C21284603F092FF20BB674E2F
:1056C000200086F829401FD0062C0FF2E010B8BF4A
:1056D00019220BDB192110E0002086F82900200098
:1056E00012D0062C0FF2F41006DA132201462046DF
:1056F000BDE8704001F0ADB8132106EB840252F80A
:10570000182CBDE87040104770BD70B50D460FF203
:10571000F41155F8040F03F063FF00BB6E684DA150
:10572000304603F05DFF38B94C4CE06A012811D0D7
:1057300004F0B5F901200AE047A1304603F050FF1C
:1057400040B9464CE06A28B104F0A9F90020E062B3
:1057500004F0BEF96A680FF2B411032073E02C68FC
:105760000FF2C411204603F03BFF48B90FF2C011FD
:105770000320FFF7BEFD3949012081F8280070BDE4
:105780000FF2C811204603F02BFF00283ED16D68B0
:10579000002D5BD0284600F0FDF8304C0646E06A4C
:1057A00088B194F8283018000DD0062B04DAB2B274
:1057B000294601F04EF806E004EB8302B1B252F83C
:1057C000182C28469047B2B2294604F13000FDF764
:1057D000B2FDE06A1EA588B194F8283018000DD0FB
:1057E000062B04DA0222294601F033F806E004EB26
:1057F0008302022152F8182C28469047294604F1CA
:105800003000BDE870400222FDF795BD0FF2441153
:10581000204603F0E5FEC8B96E68104C76B13046FC
:10582000FDF794FB054694F82A10C0B2884205D0D3
:1058300004F035F984F82A5004F04AF994F82A2043
:105840000FF21C110220BDE8704052E570BD00004F
:105850000D0A00006F6E00006F666600A000002059
:10586000D00000206C6F673E20436F6E736F6C65D5
:1058700020696E69742E0D0A000000006C6F673E8F
:1058800020436F6E736F6C65207461736B2073744B
:105890006172742E0D0A00003078253034583A2594
:1058A0007300000073797374656D0000506C65615E
:1058B000736520696E707574207061737320776FE3
:1058C00072642E0D0A000000436F6E736F6C6520CA
:1058D0006C6F67696E204F4B2E0D0A005061737319
:1058E000776F7264206572726F722E0D0A0000006D
:1058F000524F4F54000000003132333435363738C0
:10590000000000006563686F000000006C6F673E78
:1059100020436F6E736F6C652073657420656368D8
:105920006F3A25732E0D0A006C6F676F7574000057
:105930006C6F673E20434D44207069706520776925
:105940006C6C2072657365742E0D0A007669727432
:1059500075616C006C6F676C6576656C00000000AB
:1059600077617272696E673E2053797374656D203A
:105970006C6F67206C6576656C3A25642E0D0A00A5
:10598000D8B10108515100080000000000000000DB
:105990000002000000F10103810704D010F8011B90
:1059A00089B18107FAD10268B2F10131914311F056
:1059B000803F04BF50F8042FF6E710F8011B11B127
:1059C00010F8011BFBE7C01A7047A0F1610106291E
:1059D00024BFA0F14101062904D330380A288041B0
:1059E000C00F704701207047F0B5060081B00F4628
:1059F000144607D1502080F31188BFF34F8FBFF3B7
:105A00006F8FFEE7002F0EBF502007FB06F05030CF
:105A100001F0C4FA05002CD0002F0EBF2D6005F157
:105A200050002860EE632F6404F039F8E96B2A6CAB
:105A300028685143084468600020A8632868E96B1F
:105A40002A6CA860491E286851430844E8604FF05A
:105A5000FF3085F8440085F8450005F1100005F099
:105A6000C6FA05F1240005F0C2FA04F031F885F811
:105A70004C40284601B0F0BD30B5044681B05020FE
:105A800001F08CFA050033D02D600120E86300207E
:105A9000286404F004F8E96B2A6C28685143084430
:105AA00068600020A8632868E96B2A6CA860491E1A
:105AB000286851430844E8604FF0FF3085F84400FF
:105AC00085F8450005F1100005F091FA05F1240074
:105AD00005F08DFA03F0FCFF002085F84C4068606B
