:020000040800F2
:10000000300B0020F9790108B15B0108B35B0108EE
:10001000C75B0108C95B0108CB5B01080000000059
:10002000000000000000000000000000D39900085C
:10003000CD5B0108000000008D990008CF5B01082E
:10004000897F01088D7F0108917F0108957F010854
:10005000997F01089D7F0108A17F0108A57F010804
:10006000A97F0108AD7F0108B17F0108B57F0108B4
:10007000D75B0108B97F0108E15B0108BD7F01087A
:10008000C17F0108EB5B0108C57F0108C97F01083A
:10009000CD7F0108D17F0108D57F0108D97F0108F4
:1000A000DD7F0108E17F0108E57F0108E97F0108A4
:1000B000ED7F0108F17F0108F57F0108F97F010854
:1000C000FD7F010801800108058001080980010801
:1000D0000D800108F55B0108095C01081D5C010841
:1000E0001180010815800108198001081D80010890
:1000F000315C010821800108258001082980010860
:100100002D800108318001083580010839800108FF
:100110003B5C01084F5C01083D80010841800108FB
:1001200045800108498001084D800108635C010891
:1001300070B504000D00002C05D1AC4201D10020A7
:1001400000E001201CE0002D01D1012018E0207802
:1001500001F072FB0600287801F06EFB864207D1A1
:100160002078002801D100200AE0641C6D1CEEE715
:10017000207801F061FB0600287801F05DFB301A61
:1001800070BD70B50400200001F060FB401C05004C
:100190002800DFF8A81A096888470600002E01D158
:1001A000002005E02A002100300001F077FB30003C
:1001B00070BD70B52820DFF8841A096888470400EC
:1001C000002C06D02825002632002900200001F04E
:1001D000A5FB200070BD38B50400002C27D0206896
:1001E0000500E068C00505D4A068002802D0A0681A
:1001F000FFF7F1FFE068C00507D42069002804D0AC
:100200002069DFF8841B09688847E068800507D407
:10021000206A002804D0206ADFF86C1B0968884730
:100220002000DFF8641B096888472C00D5E731BD42
:100230002DE9F14F84B00E00002400255FF0000A84
:10024000DFF8ECBB5FF000085FF000090027012039
:10025000029030782D2805D10020DFF8D81B824687
:100260008B46761C3078302800D1761C30783128C7
:100270001CDB30783A2819DA0020DFF8BC1B22009A
:100280002B0001F07FFB04000D003078303801F0C6
:100290004BFC22002B0001F05FFC04000D00761CDB
:1002A0003078302802DB30783A28E5DB30782E28A9
:1002B00029D17078302826DB70783A2823DA761C2A
:1002C0000020DFF8741B22002B0001F05BFB040010
:1002D0000D003078303801F027FC22002B0001F0AF
:1002E0003BFC04000D00761C0020DFF8481B424652
:1002F0004B4601F031FC804689463078302802DBDD
:1003000030783A28DCDB3078652802D03078452810
:100310001AD1761C30782B2801D1761C06E0307873
:100320002D2803D15FF0FF300290761C3078302802
:100330000ADB30783A2807DA0A20317800FB071008
:10034000B0F13007761CF1E752465B4620002900E9
:1003500001F018FBCDE90001029800FB07F001F065
:10036000E3FB42464B4601F0F7FB02000B00002086
:10037000DFF8C41A01F06EFEDDE9002301F002FB94
:1003800004000D000498C0E906452000290002F091
:100390007BF80499486103200499C860300005B0D7
:1003A000BDE8F08F401E50EA600050EAA00050EA1D
:1003B000201050EA202050EA2040401C70472DE9D0
:1003C000F84304000F00002C02D02068002801D15F
:1003D000002033E0A068C7196068B84203DB2068DA
:1003E000A16808442AE03800FFF7DCFF060030006F
:1003F000DFF84818096888470500002D0AD12068F1
:10040000DFF88419096888470020606000202060B8
:10041000002013E0002D08D0D4F80480D4F8009018
:1004200042464946280001F039FA2068DFF8581999
:100430000968884766602560A0682844BDE8F283A3
:1004400038B50400002C02D02068002801D100201B
:1004500008E02068A16808440500280001F0F6F9CA
:10046000A168401832BD2DE9F04180460E000027FA
:10047000D8E906450020002122002B0002F030F8C8
:1004800015D1002E05D002213000FFF798FF07009C
:1004900005E00220DFF8A417096888470700002F4D
:1004A00000F092804AA1380002F02AF88CE0D8F8D7
:1004B000140001F039FB22002B0002F043F831F068
:1004C00000410122DFF8203C02F0FCF827D2200096
:1004D0002900DFF8182CDFF8183C02F0F3F81ED2E0
:1004E000200029000022DFF80C3C02F003F916D8A6
:1004F000002E05D015213000FFF761FF070005E051
:100500001520DFF83817096888470700002F5BD0EF
:10051000D8F814202FA1380002F004F954E0002E7E
:1005200005D040213000FFF74AFF070005E04020DA
:10053000DFF80817096888470700002F44D020001B
:10054000290002F009F922002B0001F0FBFF31F035
:1005500000410122DFF8903B02F0B4F812D22000F3
:10056000290031F00041DFF8942BDFF8943B02F0D2
:10057000A9F807D222002B00DFF8881B380002F010
:10058000D1F821E02000290031F00041DFF8782B7C
:10059000DFF8783B02F096F809D32000290031F00B
:1005A00000410122DFF86C3C02F0A4F806D82200DA
:1005B0002B0009A1380002F0B5F805E022002B005D
:1005C00006A1380002F0AEF83800BDE8F081000066
:1005D000300000002564000025650000256600004D
:1005E000010000220878302806DB08783A2803DA70
:1005F00008783038821815E00878412806DB08783A
:10060000472803DA0878373882180BE00878612821
:1006100006DB0878672803DA08785738821801E083
:10062000002066E01201491C0878302806DB0878B3
:100630003A2803DA08783038821815E0087841281B
:1006400006DB0878472803DA0878373882180BE089
:100650000878612806DB0878672803DA08785738B5
:10066000821801E0002044E01201491C087830287B
:1006700006DB08783A2803DA08783038821815E063
:100680000878412806DB0878472803DA08783738E5
:1006900082180BE00878612806DB0878672803DAFF
:1006A00008785738821801E0002022E01201491C26
:1006B0000878302806DB08783A2803DA08783038DA
:1006C000821815E00878412806DB0878472803DA05
:1006D0000878373882180BE00878612806DB08783C
:1006E000672803DA08785738821801E0002000E014
:1006F000100070472DE9F84F04000D0015F1010BB3
:100700005FF0000A2878222804D0DFF82C05056065
:100710000020E9E09BF80000222811D09BF800009F
:1007200000280DD01AF1010ABAF1000F08D058467E
:1007300010F1010B00785C28ECD11BF1010BE9E70B
:100740001AF10100DFF8F414096888470700002F48
:1007500001D10020C8E0681C83463E009BF80000E1
:10076000222800F0B5809BF80000002800F0B0803F
:100770009BF800005C2806D09BF8000030701BF14D
:10078000010B761CEAE71BF1010B9BF800006228C5
:100790000AD066280CD06E280ED0722810D074288B
:1007A00012D0752814D08CE008203070761C8CE0B4
:1007B0000C203070761C88E00A203070761C84E0B3
:1007C0000D203070761C80E009203070761C7CE0B3
:1007D0001BF10100FFF704FF80461BF1040BB8F585
:1007E0005C4F02D3B8F5604F02D3B8F1000F00D1CF
:1007F0006BE0B8F5584F23D3B8F55C4F20D29BF887
:1008000001005C2803D19BF80200752800D05CE051
:100810001BF10300FFF7E4FE81461BF1060BB9F55F
:100820005C4F02D3B9F5604F00D34EE0DFF8E80922
:1008300010EA88205FEA8951890D084310F5803855
:1008400004208246B8F1800F02D2012082460AE0DD
:10085000B8F5006F02D20220824604E0B8F5803F6E
:1008600001D2032082465644BAF1010F1FD026D38D
:10087000BAF1030F0BD012D3BAF1040F1FD1761EB9
:1008800018F0BF0050F0800030705FEA9818761EB4
:1008900018F0BF0050F0800030705FEA9818761EA4
:1008A00018F0BF0050F0800030705FEA9818761E94
:1008B000DFF8680910F80A0050EA08003070564462
:1008C00003E09BF800003070761C1BF1010B45E73C
:1008D000002030709BF80000222801D11BF1010B91
:1008E00027610420E0605846BDE8F28F2DE9F84FFB
:1008F00004000D005FF000095FF0000A2600307868
:10090000002812D03078002802D03078202805DB6B
:100910003078222802D030785C2801D1012000E014
:10092000002050EA0A0A761CE9E7BAF1000F26D146
:10093000301B8146002D06D019F103012800FFF776
:100940003EFD804605E019F10300BC49096888476F
:100950008046B8F1000F01D10020B6E047462220C2
:1009600038707F1C2100380001F0CAFD222007F8F2
:100970000900002007EB090148704046A5E0002C63
:1009800017D1002D05D003212800FFF718FD804660
:1009900004E00320A949096888478046B8F1000FA0
:1009A00001D1002091E0A3A1404601F0A9FD4046FD
:1009B0008BE0260030788346C0B2002819D019F1A8
:1009C0000109B9F1000F14D05FFA8BFB5946DFF82B
:1009D000500801F0F1FE002802D019F1010906E0EB
:1009E0005FFA8BFBBBF1200F01DA19F10509761CC8
:1009F000E0E7002D06D019F103012800FFF7DFFC26
:100A0000804605E019F103008C4909688847804653
:100A1000B8F1000F01D1002057E047462600222000
:100A200038707F1C3078002848D0307820280ADBC6
:100A30003078222807D030785C2804D0307838709D
:100A4000761C7F1CEEE75C2038707F1C3078761CAB
:100A50008346C0B2082813D0092821D00A2817D00D
:100A60000C2811D00D2817D0222805D05C281BD1C6
:100A70005C2038707F1CD5E7222038707F1CD1E7BE
:100A8000622038707F1CCDE7662038707F1CC9E774
:100A90006E2038707F1CC5E7722038707F1CC1E75C
:100AA000742038707F1CBDE75FFA8BFB5A46DFF875
:100AB000681C380001F036FE7F1DB3E72220387035
:100AC0007F1C002038707F1C4046BDE8F28F38B58F
:100AD00004000D0029002069FFF708FF32BD00283F
:100AE00007D00178002904D00178212901DA401CBF
:100AF000F5E770472DE9F04104000D0016000027CE
:100B0000FFF757FB804600204B490860B8F1000F03
:100B100001D1002022E02000FFF7E1FF0100404664
:100B200000F02FF80700002F04D14046FFF753FBD9
:100B3000002013E0002E0DD03800FFF7D0FF070093
:100B40003878002806D04046FFF745FB3A48076052
:100B5000002003E0002D00D02F604046BDE8F0816A
:100B600010B50400002200212000FFF7C3FF10BDD4
:100B700010B50400002300220021200000F060F8DE
:100B800010BD38B504000D00002D01D100204EE04D
:100B90000422DFF8401C280001F019FE002803D1D0
:100BA0000220E060281D42E00522DFF82C1C28000E
:100BB00001F00DFE002803D10020E060681D36E042
:100BC0000422DFF8181C280001F001FE002805D1DE
:100BD0000120E06001206061281D28E0287822289B
:100BE00004D129002000FFF785FD20E028782D287A
:100BF00005D02878302807DB28783A2804DA29003D
:100C00002000FFF715FB12E028785B2804D12900AB
:100C1000200000F0BBF80AE028787B2804D12900E6
:100C2000200000F075FA02E003480560002032BDA4
:100C30000000000022220000BCA9002014000020B7
:100C40002DE9F04104000D0016001F005FF00008C0
:100C5000002C01D1002095E0002F55D0207B00F022
:100C6000FF00C0B2002817D0022807D022D30428E2
:100C700034D02DD306283FD036D382E0052138006A
:100C8000FFF79DFB8046B8F1000F04D0DFF8441B4E
:100C9000404601F035FC74E006213800FFF78FFB79
:100CA0008046B8F1000F04D0DFF82C1B404601F05D
:100CB00027FC66E005213800FFF781FB8046B8F18C
:100CC000000F04D0DFF8141B404601F019FC58E077
:100CD00039002000FFF7C7FB804652E039002000B2
:100CE000FFF7F5FE80464CE03B0032002900200073
:100CF00000F0A4F8804644E03B00320029002000C8
:100D000000F092FA80463CE0207B00F0FF00C0B289
:100D100000280FD0022807D012D304281CD015D3E6
:100D2000062827D01ED32CE0DFF8A80AFFF729FAFF
:100D3000804626E0DFF8A00AFFF723FA804620E08D
:100D4000DFF8980AFFF71DFA80461AE0002120001C
:100D5000FFF789FB804614E000212000FFF7B7FE73
:100D600080460EE0002332002900200000F066F8E3
:100D7000804606E0002332002900200000F054FAEB
:100D800080464046BDE8F08118000020F8B5040018
:100D90000D0028785B2804D0DFF888040560002067
:100DA00045E00520E060681CFFF799FE0500287803
:100DB0005D2801D1681C3AE0FFF7FBF90600A0604E
:100DC000A068002801D1002031E02800FFF787FE4D
:100DD00001003000FFF7D5FEFFF781FE0500002D72
:100DE00001D1002023E028782C2817D1FFF7E1F962
:100DF0000700002801D1002019E037607E603E0026
:100E0000681CFFF76CFE01003000FFF7BAFEFFF729
:100E100066FE0500002DE6D1002008E028785D2858
:100E200001D1681C03E0DFF8FC0305600020F2BD7F
:100E30000000F03F0000F0BF000024402DE9F34F18
:100E400087B014001D0000275FF005090798D0F84F
:100E500008A000265FF0000B002001900020039006
:100E6000BAF1000F03D0761CDAF800A0F8E7002EE4
:100E700015D1002D05D003212800FFF7A0FA0700A7
:100E800005E00320DFF84819096888470700002FAC
:100E900003D099A1380001F033FB380021E1002D87
:100EA00067D0A868834601212800FFF788FA8046AA
:100EB000B8F1000F01D1002013E15B2088F8000099
:100EC000A868401CA860079880688246BAF1000FA5
:100ED00039D00198002836D12B0022000898411CF7
:100EE0005046FFF7ADFE2800FFF7AAFAA860DAF82F
:100EF0000000002824D0002C02D05FF0020901E09D
:100F00005FF0010919F101012800FFF758FA804646
:100F1000B8F1000F01D10020E3E02C2088F8000098
:100F200018F10108002C04D0202088F8000018F1E6
:100F30000108002088F80000A86819EB0000A860EC
:100F4000DAF800A0C2E702212800FFF738FA80464D
:100F5000B8F1000F01D10020C3E05D2088F8000047
:100F600018F10108002088F800002868584407009C
:100F7000B6E0B000DFF8581809688847009000987C
:100F8000002801D10020ACE0B000069000200590C0
:100F900000980290059A0699029800F0BFFC02980A
:100FA000079880688246BAF1000F26D00198002881
:100FB00023D1002322000898411C5046FFF740FE31
:100FC00004900498009941F82B001BF1010B049840
:100FD00000280DD0049800F039FC002C01D001212C
:100FE00000E0002110EB0900081810F1020901E0EF
:100FF00001200190DAF800A0D5E70198002805D17A
:101000004846DFF8CC17096888470700002F01D150
:10101000012001900198002819D000208346B34593
:101020000EDA009850F82B00002806D0009850F8EF
:101030002B00DFF8AC17096888471BF1010BEEE7BE
:101040000098DFF89C1709688847002049E05B207A
:101050003870781C8046002088F800000020834605
:10106000B3452EDA009850F82B0000F0EFFB039008
:1010700003980290009850F82B000590029A059969
:10108000404600F00BFC03988044701E83450ED050
:101090002C2088F8000018F10108002C04D0202032
:1010A00088F8000018F10108002088F80000009876
:1010B00050F82B00DFF82817096888471BF1010B4F
:1010C000CEE70098DFF81817096888475D2088F890
:1010D000000018F10108002088F8000018F101084C
:1010E000380009B0BDE8F08F0000B03C0100C0FF3F
:1010F000FFFFDF410000E0C15B5D000044F3C2E49C
:10110000E4E9634C687C01088DEDB5A0F7C6B03EFC
:10111000F8B504000E0030787B2803D04148066003
:10112000002076E00620E060701CFFF7D8FC060087
:1011300030787D2801D1701C6BE0FFF73AF805008C
:10114000A060A068002801D1002062E03000FFF715
:10115000C6FC01002800FFF7CDFAFFF7C0FC06002F
:10116000002E01D1002054E0286928620020286167
:1011700030783A2803D02B480660002049E0701CE4
:10118000FFF7ADFC01002800FFF7FBFCFFF7A7FC11
:101190000600002E01D100203BE030782C2830D111
:1011A000FFF707F80700002801D1002031E02F6089
:1011B0007D603D00701CFFF792FC01002800FFF7E6
:1011C00099FAFFF78CFC0600002E01D1002020E0E8
:1011D000286928620020286130783A2803D0114815
:1011E0000660002015E0701CFFF779FC0100280064
:1011F000FFF7C7FCFFF773FC0600002ECDD10020DF
:1012000007E030787D2801D1701C02E005480660B7
:101210000020F2BD65CDCD4100FC0F00987C010897
:10122000707C0108BCA900202DE9F14F8EB00E00A2
:1012300014001D000020009000200290002001906A
:1012400007275FF000090E98D0F80880002003906F
:101250000020059000200690B8F1000F05D00398FB
:10126000401C0390D8F80080F6E70398002841D18D
:10127000002D09D0002C01D0311D00E003212800F1
:10128000FFF79DF8019009E0002C01D0301D00E02F
:101290000320DFF83C150968884701900198002871
:1012A00001D1002035E2019882467B208AF80000B7
:1012B0001AF1010A002C11D00A208AF800001AF154
:1012C000010A00208146701E814507DA09208AF84C
:1012D00000001AF1010A19F10109F4E77D208AF8EA
:1012E00000001AF1010A00208AF800001AF1010A30
:1012F00001980EE2002D00F0CF80A8688146002CF6
:1013000001D0022700E00127791C2800FFF757F8D9
:101310008246BAF1000F01D10020FAE17B208AF861
:1013200000001AF1010A002C04D00A208AF80000FB
:101330001AF1010A00208AF80000A8683818A8608D
:101340000E9880688046761CB8F1000F7BD0002C88
:1013500018D031002800FFF732F88246BAF1000FAA
:1013600001D10020D5E100208346B34507DA0920EA
:101370008AF800001AF1010A1BF1010BF5E7A868D1
:101380003018A8602900D8F82000FFF7AFFA28002D
:10139000FFF756F8A860002C01D0022700E00127D3
:1013A00039002800FFF70BF88246BAF1000F01D18F
:1013B0000020AEE13A208AF800001AF1010A002C60
:1013C00004D009208AF800001AF1010AA868381828
:1013D000A8602B00220031004046FFF731FC2800B6
:1013E000FFF72EF8A860002C01D0012000E00020BB
:1013F000D8F80010002901D0012100E000210F18C9
:10140000791C2800FEF7DBFF8246BAF1000F01D1FC
:1014100000207EE1D8F80000002804D02C208AF8B3
:1014200000001AF1010A002C04D00A208AF80000FA
:101430001AF1010A00208AF80000A8683818A8608C
:10144000D8F8008080E7002C01D0711C00E0022158
:101450002800FEF7B4FF8246BAF1000F01D1002048
:1014600057E1002C0CD000208146701E814507DA20
:1014700009208AF800001AF1010A19F10109F4E7BC
:101480007D208AF800001AF1010A00208AF8000085
:101490002868484401903BE103988000DFF830134E
:1014A0000968884700900098002801D1002030E1A9
:1014B00003988000DFF818130968884702900298A3
:1014C000002806D10098DFF8181309688847002023
:1014D0001FE1039880000C9000200B90009804906E
:1014E0000B9A0C99049800F019FA0498039880005C
:1014F0000A900020079002980490079A0A9904988D
:1015000000F00CFA04980E9880688046761C002C37
:1015100000D0F719B8F1000F31D00021D8F8200021
:10152000FFF7E4F90890029941F82900002322000E
:1015300031004046FFF784FB0990009941F82900EB
:1015400019F101090898002814D00998002811D031
:10155000099800F07BF90490089800F077F9002CC6
:1015600001D0B11C00E00021049AD219801808189B
:10157000871C01E001200590D8F80080CAE7059893
:10158000002804D1380092490968884701900198E1
:10159000002801D1012005900598002827D00020BF
:1015A00081460398814518DA029850F829000028EE
:1015B00005D0029850F829008949096888470098A1
:1015C00050F82900002805D0009850F829008449D7
:1015D0000968884719F10109E3E702988049096819
:1015E000884700987E4909688847002091E07B2061
:1015F000019908700198401C8246002C04D00A20F2
:101600008AF800001AF1010A00208AF80000002080
:101610008146039881455ADA002C0BD0002083467E
:10162000B34507DA09208AF800001AF1010A1BF114
:10163000010BF5E7029850F8290000F007F9069031
:1016400006980490029850F829000790049A079988
:10165000504600F023F9069882443A208AF80000A8
:101660001AF1010A002C04D009208AF800001AF1AE
:10167000010A009850F82910504600F041FF0098E8
:1016800050F8290000F0E2F882440398401E81459A
:1016900004D02C208AF800001AF1010A002C04D092
:1016A0000A208AF800001AF1010A00208AF80000D6
:1016B000029850F829004A4909688847009850F86C
:1016C000290047490968884719F10109A1E70298EB
:1016D0004349096888470098414909688847002CB0
:1016E0000CD000208146701E814507DA09208AF857
:1016F00000001AF1010A19F10109F4E77D208AF8C6
:1017000000001AF1010A00208AF800001AF1010A0B
:1017100001980FB0BDE8F08F787C010870B5040027
:101720000D00A668002E07D02900306AFEF700FDE4
:10173000002801D03668F5E7300070BD01604860D0
:10174000704770B504000D00A668002D0ED0002E65
:1017500001D1A5600AE0002E04D03068002801D035
:101760003668F8E729003000FFF7E8FF70BD70B574
:1017700004000D001600002E0ED0306A002803D0A1
:10178000306A1749096888472800FEF7FAFC30627A
:1017900031002000FFF7D5FF70BD70B504000D00CB
:1017A0001600002E12D0F068800506D4306A00289A
:1017B00003D0306A0A49096888473562F06850F4F6
:1017C0000070F06031002000FFF7BBFF70BD00002B
:1017D00014000020807C0108887C0108907C0108AE
:1017E0001800002070B504000D00FEF7E2FC0600B2
:1017F000002E08D00320F060C6E90645200029002D
:1018000000F042FE7061300070BD38B50400FEF794
:10181000D0FC0500002D05D00420E8602000FEF774
:10182000B0FC2861280032BD80B5FEF7C2FC00285C
:1018300001D00621C16002BD10B50446012000F0B0
:10184000DDFF2046BDE8104000F0EABF00F10103D3
:10185000810704D010F8011B89B18107FAD1026811
:10186000B2F10131914311F0803F04BF50F8042FD1
:10187000F6E710F8011B11B110F8011BFBE7C01AC5
:1018800070478268521C8260426832B10268531C01
:10189000036011704168491E4160704762B38B0755
:1018A00008D0521E11F8013B00F8013B00F02480E3
:1018B0008B07F6D1830740F0208000BF103A07D392
:1018C00030B4B1E83810103AA0E83810F9D230BC82
:1018D000530724BFB1E80810A0E8081044BF51F82E
:1018E000043B40F8043BD20724BF31F8022B20F818
:1018F000022B44BF0B7803707047083A07D3B1E856
:101900000810083A40F8043B40F804CBF7D25307DC
:10191000E4E70268531C03601170704762F30F2202
:1019200062F31F42401810F0030308D0C91A1FD3F6
:10193000DB0748BF00F8012D28BF20F8022D130057
:1019400030B414461546103928BF20E93C00FAD8B7
:10195000490728BF20E90C0048BF40F8042D890042
:1019600028BF20F8022D48BF00F8012D30BC704779
:10197000C91818BF00F8012DCB0728BF00F8012DAA
:1019800070470102B0B581EA030C0CF0004C40F244
:10199000FF7515EA11541DBF15EA1357AC42AF424B
:1019A00039E0E41923EA455343F48013C90241F0B6
:1019B000004141EA505EC7021100A7FB0202002865
:1019C0004FF00000EEFB01204FF00001E3FB072188
:1019D00018BF42F00102401800214941E3FB0E010B
:1019E000A4F580640F0302D252004041494154F1F2
:1019F00001046CDD470872F1004250F1000051EB28
:101A00000451A1F580115CBF41EA0C01B0BD4CEA64
:101A100005510020B0BD05EA1357AC4214BFAF42D8
:101A200041E050EA410E1CBF52EA430E02E061461B
:101A30000020B0BD24423C441BD15FEA070EF6D023
:101A4000090302BF01460020AEF1140EB1FA81F77E
:101A5000AEEB070401FA07FE0C37C7F1200100FACC
:101A600007F7C8404EEA000E23EA455343F48013BB
:101A7000A2E733F00043B3FA83F704BFB2FA82FE61
:101A800077440B3FE41BB7F1200E2FBF02FA0EF391
:101A9000BB40C7F1200E22FA0EFE38BF43EA0E0308
:101AA000BA40641C82E750EA410E14BF52EA430E6A
:101AB0006FF000014FF4001717EB430F8ABF194670
:101AC00017EB410FB5E74CEA05510020B0BDD4F14A
:101AD0000104B4F120070FDAC4F12007520828BF2F
:101AE00042F0010210FA07F501FA07F7E1BF2A43B5
:101AF000E0403843E1400FE0352C98DCC7F120048A
:101B000052EA400220FA07F218BF42F0010231FA0D
:101B100007F0A1400A43002172F1004250F1000099
:101B200051EB0C01B0BD0000010040F10980F4460A
:101B3000404200F005F851F000416047010000BF4D
:101B400009D0B0FA80F18840C91CC1F5846109054B
:101B500001EBD02140057047F0B44FF0004591EA09
:101B6000030C44BF6B4000F0F7BC00BF841A71EB5C
:101B7000030603D2001BB141121973414FF4001C3C
:101B80001CEB410F34BF7CEB430443E00C0DA4EB92
:101B90001356352E50DC45EAC323DB0A45EAC12142
:101BA000C912B6F120050DDD63FA05F6EB4086EAB1
:101BB0000305124218BF45F00105C01851F100019C
:101BC0000CD213E062FA06F5F2405540F3415A4058
:101BD000B340F3405A408018594107D349085FEA9F
:101BE00030005FEA350528BF45F0010501F5801199
:101BF000420875F1004250F1000041EB0451F0BC85
:101C00004FF4001C1CEB410F38BF70470020090D3A
:101C1000090570471CEB410F10D252EA43060BD066
:101C2000BCEB410F05D80C0DAB43661E342EB5DD61
:101C300002E0AB4380185941F0BC7047F0BC7047DC
:101C40002DE9FF4D86B0DDE90801CDE904010798D3
:101C5000C0F30A5040F2FF71884208D1079800276C
:101C6000000305BF069800280224012412E0012881
:101C700007DA06A800F0DAFD012802DB00270024BD
:101C800008E0079A40F2FE3161F31E520792471AAC
:101C90004FF0FF34002104A800F0EAFD0546129839
:101CA00010B112990020088035B9DDE90823002021
:101CB000002100F015FC11D0002C11D53FB2012FEE
:101CC00013D1DDE906230020C84900F009FC05D046
:101CD000012D0AD1C64900F003FC2ED1C549B6E159
:101CE000022C04D1DDE90601B1E1012D59DB022D01
:101CF00008BFDDE9080100F0AA81012C1BD107987B
:101D00000028099802D4002848D532E0002809D4D8
:101D1000002D43D14FF0FF3104A800F0A9FD0028A9
:101D20003CD538E02DBB4FF0FF3104A800F0A0FDFA
:101D300000281ED519E0012D09D1099800283FB2CD
:101D400002D4012F2ADA14E0012F12DA26E00998D2
:101D5000002811D46DB94FF0FF3104A800F088FDC0
:101D6000002844BF0798002803D500204FF0004109
:101D70006DE1002000216AE100F0BAFD222101603E
:101D800065B94FF0FF3104A800F072FD002844BF90
:101D90000798002802D50020974958E1002097496C
:101DA00055E10798002848BF002D08D500F0A0FD98
:101DB000212101604FF0FF306FF0004147E1DDE984
:101DC00006010022002300F095FC38BF019209D3E0
:101DD00081F00041CDE906014FF0FF3104A800F089
:101DE00047FD0190012F13D1DDE90601844A854B9F
:101DF00000F068FC0CD2DDE9062300204FF08041A2
:101E0000FFF7C0FDCDE9060100260024794D1CE056
:101E1000DDE9062300207C49744DFFF7B3FD002265
:101E20002B46FFF799FE00F02FFBA0F1200630466D
:101E3000FFF77AFE0022754BFFF7A4FD00222B4628
:101E4000FFF78AFE04460D4676010FF21C2030444F
:101E500000902246DDE906012B4600F073FB824626
:101E60008B46DDE9060122462B46FFF775FE02464A
:101E70000B465046594600F041FDCDE90201DDE92F
:101E80000223FFF77FFDCDE906AB0646884600F04A
:101E900061FE32464346FFF775FDDDE9062300F09B
:101EA00051FB064688460020524922462B4600F048
:101EB00049FB00224FF08043FFF764FD3246434662
:101EC000FFF74AFEDDE90223FFF75CFD02460B4601
:101ED000DDE90601FFF740FE82468B464C4A4D4B3A
:101EE00000F00CFDCDE904013846FFF71DFE009A15
:101EF00006468846D2E9000132464346FFF72CFEEB
:101F0000DDE90423FFF728FECDE90401DDE908231C
:101F1000FFF738FD0022404BCDE9020100F0D2FB73
:101F2000C0F07E8001223D4B00F0E4FB7CD9002212
:101F3000002300F0C7FBDDE9022339BF00202C4954
:101F400000202A49FFF708FE00F09EFA07463046B7
:101F5000009E2F4C2F4DD6E900234146FFF7FCFD94
:101F6000DDE90823FFF70EFD064688463846FFF7F1
:101F7000DBFD02460B463046414600F0E3FA2246BE
:101F80002B46FFF7FFFC064600988446D0E9022363
:101F90008846DCE90401FFF7DFFDDDE90823FFF7F0
:101FA000F1FC22462B46FFF7EDFC04460D46DDE929
:101FB000080152465B46FFF7E5FC22462B46FFF739
:101FC000CBFD32464346FFF7C7FDCDE9020112982B
:101FD00008B10780002700970022064B02A800F0F6
:101FE0000FFEE8B101281FD02AE000BF0000E03F4B
:101FF0000000E0BF0000F03F0000F0FF0000F07FB5
:10200000CD3B7F669EA0E63F000050400000903F21
:10201000EF39FAFE422EE63F0000E0C00000E0404B
:102020000020CDE9020007E00020014902E000BFE6
:102030000000F07FCDE9020100F05AFC222101608E
:1020400001980028DDE9020118BF81F000410AB0C3
:10205000BDE8F08D10B582B000240094FFF7F0FDCC
:102060001CBD000000000000000000000000F0BFE8
:102070000000000000000080000000000000008060
:102080000000000000000000000000C05294EEBFFD
:1020900000000048204E51BE000000F86467BCBC40
:1020A0000000000000000000000000208133EDBFB0
:1020B00000000080B3DB14BE000000506706A3BC24
:1020C0000000000000000000000000D0E9DCEBBFD1
:1020D00000000008C39259BE00000080B0D3B8BC15
:1020E000000000000000000000000070F98FEABF4F
:1020F000000000C0A51028BE000000E8BFC0B0BCB2
:10210000000000000000000000000070284CE9BF43
:1021100000000060134B42BE000000C03D20B8BC70
:10212000000000000000000000000050FA10E8BFAE
:10213000000000C05FF62BBE000000905C71A7BCE1
:10214000000000000000000000000020FCDDE6BFF1
:10215000000000C0F8F154BE00000018E9F6B9BC58
:102160000000000000000000000000D0C3B2E5BF86
:1021700000000070E43254BE00000050DB06B4BC26
:10218000000000000000000000000010EF8EE4BF1F
:1021900000000020F36252BE000000C02A879ABCF3
:1021A0000000000000000000000000B02272E3BF49
:1021B000000000F0E8E056BE00000028352DBDBC50
:1021C0000000000000000000000000000A5CE2BF08
:1021D000000000B0FA8E41BE00000040AE6FBDBCF2
:1021E000000000000000000000000000564CE1BFAD
:1021F000000000F015CD5FBE00000000141C90BC74
:10220000000000000000000000000040BD42E0BFF0
:1022100000000030F93457BE000000E06C1E93BC93
:102220000000000000000000000000E0F57DDEBFBF
:10223000000000B08A535EBE00000080DA77AABCBE
:102240000000000000000000000000C09D81DCBF15
:1022500000000000FFA226BE0000006057E2B0BCF4
:10226000000000000000000000000060F98FDABFED
:10227000000000580A8151BE000000F05F60B8BC49
:1022800000000000000000000000000098A8D8BF77
:10229000000000607A7F45BE000000D05433A3BC2C
:1022A0000000000000000000000000600FCBD6BF5F
:1022B000000000D091CB40BE000000406D1BA0BCD0
:1022C0000000000000000000000000A0FBF6D4BFEA
:1022D00000000098C5CE52BE000000003A397EBC16
:1022E0000000000000000000000000E0FE2BD3BF53
:1022F0000000004073872BBE00000000926879BC8C
:10230000000000000000000000000040C069D1BFD4
:1023100000000058F16353BE00000080438D7CBC78
:10232000000000000000000000000080D85FCFBF68
:10233000000000181F8354BE000000B03F42A2BC42
:1023400000000000000000000000008067FCCBBF20
:1023500000000060FAFF53BE00000050E00DB8BC62
:1023600000000000000000000000000098A8C8BFA6
:10237000000000607A7F35BE000000C0543393BC7B
:10238000000000000000000000000000DC63C5BF8A
:1023900000000058D6FF54BE00000000396490BC15
:1023A0000000000000000000000000C0AD2DC2BF12
:1023B00000000080A45915BE000000E0484BABBCF3
:1023C0000000000000000000000000801A0BBEBFEB
:1023D00000000050BF3C5ABE000000A0B364B6BC71
:1023E00000000000000000000000008004D6B7BF1D
:1023F00000000040BBCF36BE0000008076CEA8BCF7
:1024000000000000000000000000008032BBB1BFEF
:10241000000000402A0043BE00000028C60CBDBCDE
:102420000000000000000000000000009473A7BF3F
:10243000000000182B3B59BE000000C0E55DA5BCA4
:10244000000000000000000000000000EE4397BF05
:10245000000000A0E6C340BE00000020958DB5BC82
:1024600000000000000000000000000000000080EC
:10247000000000000000008000000000000000805C
:102480000000000000000000F446400D40EAC120BA
:10249000490006D200F014F8004248BF6FF0004037
:1024A000604700F00DF84FF0004188428CBF0846AD
:1024B00040426047400D40EAC120490080F00D8055
:1024C00040F00040490DA1F58061491C05D4D1F1CF
:1024D0001F0154BFC840C01770474FF0000070473D
:1024E00090420CD141EA030C50EA4C0C07D09942BF
:1024F00005D14FF4001C1CEB410F38BF89427047D7
:102500005FEA000C830706D011F8013B00F8013B9D
:10251000B3B18307F8D10A68B2F1013323EA0203A9
:1025200013F0803F02BF40F8042B51F8042FF3E76B
:1025300011F8013B00F8013B13B111F8013BF9E739
:1025400060467047F0B44FF0004591EA030F44BF76
:102550006B40FFF70BBB00BF841A71EB030604D27C
:102560006E40001BB141121973414FF4001C1CEB6B
:10257000410F34BF7CEB430684E00C0DA4EB1356F3
:10258000362E7DDC012E43DC45EAC32343EA525359
:1025900012BFD20292025B08240545EAC12141EA3A
:1025A0005051D2EBC020994125D407D1B0FA80F622
:1025B00010FA06F164D00020203608E0B1FA81F666
:1025C000B140C6F1200220FA02F21143B0404FEAB6
:1025D000F474B4EB465434F001064FEA74040AD89C
:1025E000D6F50016760D04F00044F04061FA06F2CC
:1025F0005040F1404840C00A40EA415021F00041BB
:1026000028BF5FEA500550F1000044EBD12137E0CC
:1026100045EAC323DB0A45EAC121C90AB6F1200510
:102620000EDD42EA0242120CC5F1200603FA06F65C
:10263000EB4042EA06056D42984161F100010DE070
:1026400062FA06F5F240554063FA06FC82EA0C0293
:10265000F3405A406D42904161EB030111F4801F39
:1026600005D1641E620502D06D004041494121F44C
:102670008011430875F1004350F1000041EB045113
:10268000F0BC70471CEB410F15D223F0004352EA17
:1026900043060BD04FEA4C0CBCEB410F04D80C0D99
:1026A000661E342EB7DDEBE7801A994150EA4106E9
:1026B00008BF0021E4E708BF1CEB430F28BF6FF001
:1026C0000001DDE74FF4001C1CEB410F94BF1CEB35
:1026D000430F09E041EA030C50EA4C0C52EA0C0C9F
:1026E00003D2994208BF9042704714BF8B42824286
:1026F000704700004FF4001C1CEB410F94BF1CEB13
:10270000430F09E041EA030C50EA4C0C52EA0C0C6E
:1027100003D28B4208BF8242704714BF9942904255
:10272000704700000CB41CB5044604A801900A468A
:10273000009401AB694607487844183000F0BEFBAE
:10274000009A0021117000285CBF0098001B16BC85
:102750005DF80CFBBFF1FFFF40F2FF7C1CEA115259
:1027600040F2FE33D21ACCBFD2F1350316E0B2F1FB
:10277000150309DA6FEA4C53D340094201D5401ED4
:1027800059410020994370476FF00002DA40094236
:1027900002D5801851F1000190437047352A09DABB
:1027A00050EA41031CBF4FEA0C5101F1804138BF90
:1027B00000210020704700000278C9B28A421AB195
:1027C0001CBF10F8012FF9E718BF0020704710B4A4
:1027D00001E0491C521E6AB10B7804789C4205D076
:1027E00010BC2CBF01204FF0FF30704710F8013BA8
:1027F000002BEED110BC00207047000010B504463D
:10280000DFF8180001F027FC50F8240010BD80B557
:10281000DFF8080001F01FFC806902BD34020020CF
:10282000A0F141011A2938BF2030704730B4436805
:1028300003F000420121C3F313034360002B04BFE4
:102840000368002B08D10DE00368DD0F45EA44045E
:1028500044605B000360491E4468E302F4D5C4F39E
:102860001303436043681A434260084630BC704714
:102870004268C2F30A5240F2FF739A4209D141689A
:10288000090304BF0068002801D10120704702201D
:10289000704743685B0004BF0368002B25D040F2FB
:1028A00033439A1A521A012A1FDB352A06DB416884
:1028B00001F0004141600021016013E0012102F0BC
:1028C0001F039940491E920607D5426811404A40AD
:1028D000426002681143002202E0026811404A404F
:1028E000026011B14FF0FF307047002070470000C8
:1028F000014801F0B0BB0000280200202DE9F041A2
:1029000040F2FF7581EA030C0CF0004C15EA1154FB
:102910001DBF15EA1357AC42AF42E9E0BC41C1F319
:102920001301C3F31303801A994143F4801304D2B3
:10293000641E4000494180185941C90241EA505182
:10294000B1FBF3F603FB1611A2FB0675D7EBC02013
:10295000A94102D2761E80185941C90241EA50515C
:10296000B1FBF3FE03FB1E11A2FB0E75D7EBC020DB
:10297000A94103D2AEF1010E80185941890241EA02
:102980009051760546EA8E2EB1FBF3F603FB161145
:10299000A2FB0675D7EB8020A94102D2761E8018D3
:1029A0005941C90241EA50514EEA060EB1FBF3F615
:1029B00003FB1611A2FB0675D7EBC020A94102D27A
:1029C000761E80185941C90241EA5051B1FBF3F714
:1029D00003FB1711A2FB0735D3EBC020A94167F118
:1029E00000070CBF004247F0010766F3D5274FEA06
:1029F0001E31B80814F5806414DDBD0775F100427E
:102A000050EB0E5051EB045111F5801F5CBF41EAB1
:102A10000C01BDE8F0814CF07F6141F0E041002005
:102A2000BDE8F081BD076D0840EA0E5041F4801109
:102A3000D4F10104B4F120060ADAC4F12006020040
:102A4000E04001FA06F3E1401843B24015430EE0BE
:102A5000342C14DCC6F1200445EA40056D0820FA48
:102A600006F2154321FA06F0A1400D43002175F14D
:102A7000004250F1000051EB0C01BDE8F081002054
:102A80005FEA0C01BDE8F081CFB992185B41B3FA5F
:102A900083F704BFB2FA82F6BF190B3FB7F12006E5
:102AA0002FBF02FA06F3BB40C7F1200622FA06F652
:102AB00038BF3343BA401CB1E419641E2FE77F428C
:102AC00031F00041B1FA81F404BFB0FA80F6A419E4
:102AD0000B3CB4F120062FBF00FA06F1A140C4F16F
:102AE000200620FA06F638BF3143A0403C1B16E70B
:102AF000AC421ABF05EA1357AF4214E050EA410650
:102B00001CBF52EA4306BFE750EA41073046614620
:102B10001CBF41EA0551BDE8F08152EA430C08BFF1
:102B2000C143BDE8F08100204FF4001616EB410FC1
:102B300098BF16EB430F08BF16EB410F24BFC143EC
:102B400005E016EB430F0CBF61464CEA0551BDE8AA
:102B5000F081000038B504460D461B481B4922464B
:102B60002B46FEF70FFF1A4A1A4BFEF7F5FF2246D7
:102B70002B46FEF707FF184A184BFEF7EDFF2246DB
:102B80002B46FEF7FFFE164A164BFEF7E5FF2246E0
:102B90002B46FEF7F7FE144A144BFEF7DDFF2246E4
:102BA0002B46FEF7EFFE124A124BFEF7D5FF2246E8
:102BB0002B46FEF7E7FE01B0BDE830400E4A0F4B52
:102BC000FEF7CABF00000000F7DE29BFD8F8C23FF9
:102BD000F4B3FECC1A99C33F62CB68D96F46C73FA6
:102BE000C6C912DAC471CC3F4AE98A942449D23F5B
:102BF000F75F97999999D93FBC5555555555E53F7C
:102C00002DE9F04D804686B0D8E9006714461D4690
:102C10003046394601F020FA82462046294601F026
:102C20001BFABAF1000F06D500284DD4022806D1B0
:102C3000C8E900453FE1BAF1020FF7D121E050B9F0
:102C40000022524B30463946FFF74AFC0FD0C8E904
:102C5000004500202FE1012815D100224C4B3046C1
:102C60003946FFF73DFC18BFC8E900454FD1FFF7D3
:102C70003FFE212101604FF0FF306FF00041C8E9B5
:102C80000001022017E1BAF1000F0FD1C8E9004599
:102C90000E99404601F0FAF9040018BF012C40F0EB
:102CA0000981FFF725FE2221016003E10022374B55
:102CB00030463946FFF714FC0DD120462946FEF771
:102CC00061FEC8E9000122E0304639460022314B5E
:102CD000FFF7F8FC0AD2002320462946FEF752FEF1
:102CE000C8E9000106B00020BDE8F08D01222A4BA2
:102CF000FFF700FD0DD80022244B20462946FEF7A1
:102D000041FEC8E90001FFF7F3FD22210160012027
:102D1000D1E0224A224BFEF735FE00220023FFF7C6
:102D2000D1FC34BF1F4B414BFEF716FFFFF7ACFB46
:102D30000290FEF7F9FE82468B464FF078421A4B1E
:102D4000FEF720FE02460B4630463946FFF7FAFBF7
:102D500006460F46154A164B50465946FEF712FED8
:102D600002460B4630463946FFF7ECFB4FF0FF3288
:102D7000104BFFF7BFFC06460F461FD800220E4B34
:102D8000FFF7A0FC1AD22046294683E00000F07F1E
:102D90000000F0FF00C89CC000C89C40FE822B656C
:102DA0004715F73F0000E0BF422EE63FF2E4D5BCF6
:102DB000E7E84B3EFFFF8FBC0000903C32463B46AD
:102DC000FEF7E0FD82468B46194A1A4BFEF7DAFD04
:102DD000194A1A4BFEF7C0FE02460B4650465946AA
:102DE000FEF7D0FDCDE90401154A164B5046594671
:102DF000FEF7C8FD144A154BFEF7AEFE02460B4621
:102E000050465946FEF7BEFD0022084BFEF7A4FED1
:102E100002460B4630463946FEF7B4FDDDE9042391
:102E200006468B46FEF798FE094F13E00000E03F90
:102E3000112E5781A03F503F5843128C8F71BC3FD9
:102E40004BE8A541B752013F0BBDF3DAE8708C3F68
:102E50000000F03F02460B4600203946FEF77CFE9C
:102E6000CDE900013246DDE904015B46FFF76AFB6C
:102E700002460B4600203946FEF76EFE02460B4620
:102E8000DDE90001FFF73AFD02460B4620462946E0
:102E9000FEF778FDC8E9000102980E99091840462E
:102EA00001F0F4F8040018BF012C03D1FFF720FD56
:102EB00022210160204606B0BDE8F08D2DE9F04FDB
:102EC00082460FF25860A5B015461E46D0E9002391
:102ED000CDE9122303AF00207960B8620DF15009EB
:102EE00000E045440020ADF8020012AB4FF0FF3285
:102EF00029460DF1020001F04FF98046B8F1010FAB
:102F000008DA2878B0F1010868EB08086FEA0800D1
:102F10004FEAD078BDF8020025280CBFA8F1010BBC
:102F2000C346BBF1010F0EDB2C4614F8011B786879
:102F3000D0470028786000F0F880B86A401CBBF1E8
:102F4000010BB862F1D1BDF80200252807D100209D
:102F500038617861B861F8613862786205E000280C
:102F6000BFD1B86AE2E240F0010015F8011F202944
:102F7000F9D023290DD02B2904D02D2906D03029B2
:102F80000AD00CE040F0020080B2EEE740F004000E
:102F9000FAE740F00800F7E740F01000F4E72A29CC
:102FA0000ED13168316051F8042B3160002A3A6348
:102FB00004D5514240F00400396380B26D1C13E027
:102FC000002139630BE0396B6FF00043994205D063
:102FD00001EB810302EB4301303939636D1C2A7820
:102FE000A2F130010A29EED329782E2903D04FF01F
:102FF000FF31F9621FE015F8011F2A2907D1316856
:1030000031606D1C51F8042B3160FA6213E000212D
:10301000F9620BE0F96A6FF00043994205D001EBC9
:10302000810302EB43013039F9626D1C2A78A2F169
:1030300030010A29EED3B8860FF2E8402978FFF76D
:10304000BBFB08B115F8010B8DF842009DF842005A
:10305000682802BF29786829622005D06C2804BF3F
:1030600028786C2803D171208DF842006D1C14A8BB
:10307000F86015F8014BB4F125002AD01C3800F097
:10308000DB80001F022840F2D780133800F0FB805D
:10309000093800F0D180801E00F06581401E00F0EC
:1030A0003C81401E022840F2C780001F00F035819D
:1030B000401F00F09280401E00F0E580401E37D097
:1030C000C01E0BD0801E00F0DE80C01E00F0DB8032
:1030D0006CE125208DF85000012070E19DF8420040
:1030E0006C283068306016D050F8048B3060C7F818
:1030F0000880FC6A002C04D54046FEF7A7FB044676
:1031000007E022460021404601F056F808B1A0EB46
:1031100008047C6154E150F8042B306002A9504649
:1031200000F03EFA002840F14B814FF0FF30FDE106
:1031300031683160002251F8040B31604FF03C0ED1
:103140000021CDE9020114A8B860DDE90201914235
:10315000FC6808BF904201D1FA6AC2B100F00F03C7
:103160003033DBB23A2BA8BF2733AEF1010200099E
:10317000A354964640EA017009090022914208BF13
:10318000904204D0BA6804EB0E039A42E6D304EBF3
:103190000E01B960CEF13C00F96A7861884207DA25
:1031A000081AF8614FF6EF71B88E0840B88607E14B
:1031B000002940F1058197F8341001F0140110291D
:1031C00040F0FE80396B3A69891AFA69891A081A3F
:1031D0000128C0F2F580F861F2E09DF84200622813
:1031E0001AD0682806D06A280CD06C281CD0712808
:1031F00008D019E03068306050F8041B3060B86ABD
:103200000880DDE03068306050F8042B3060B86A28
:10321000C117C2E90001D3E03068306050F8041BE8
:103220003060B86A0870CBE03068306050F8041B3A
:103230003060B86A0860C3E03068C01D20F0070243
:103240003260D2E9000108323260CDE90201002982
:1032500002D538692D2109E0B88E810702D5386979
:103260002B2103E0C00705D53869202109F800109B
:10327000401C386114A839690844B860214602A886
:1032800000F09AFB9CE09DF842006C280DD071285C
:1032900018BF6A2809D13068C01D20F007023260CB
:1032A000D2E900010832326005E03168316051F83E
:1032B000040B31600021CDE902019DF8420068282D
:1032C00003D1DDE9020180B20BE0622803D1DDE920
:1032D0000201C0B205E0742818BF7A2804D1DDE9E4
:1032E00002010021CDE9020197F83400000731D531
:1032F000DDE902230020834208BF82422AD044F045
:103300002000782826D13869302109F80010401CA7
:10331000411C396109F800401CE09DF8420031462B
:1033200000F007F9CDE90201DDE9022300218B421B
:1033300002DA38692D2109E0B88E810702D5386993
:103340002B2103E0C00705D53869202109F80010BA
:10335000401C386114A839690844B860214602A8A5
:1033600000F0A4FA2CE09DF842006C2809D001205E
:1033700038613068306050F8041B30608DF85010B0
:103380001EE03068306001AA50F8041B3060ADF8D0
:1033900004100020ADF8060002A94FF0FF30F862DB
:1033A000504600F0FDF800280AD5BEE625208DF82D
:1033B0005000012038611CB189F8014002203861B9
:1033C000386B3969401AF969401A7969401A396AC3
:1033D000401AB969401A796AA0EB010897F83400DD
:1033E000400711D42020B8F1010F8DF800000BDB4D
:1033F000444601236A4602A9504600F007FE002811
:103400007FF493AE641EF4D1D7F810B0BBF1000F77
:1034100014AC0DD014F8011B7868D04700287860F0
:103420003FF483AEB86A401CBBF1010BB862F1D126
:1034300030208DF80000FC69012C0ADB01236A466C
:1034400002A9504600F0E2FD00287FF46EAE641E33
:10345000F4D1D7F814B0BC68BBF1000F0DD014F84C
:10346000011B7868D047002878603FF45EAEB86AE8
:10347000401CBBF1010BB862F1D130208DF8000087
:103480003C6A012C0ADB01236A4602A9504600F07F
:10349000BDFD00287FF449AE641EF4D1B868796997
:1034A000D7F818B04418BBF1000F0DD014F8011B69
:1034B0007868D047002878603FF437AEB86A401C7F
:1034C000BBF1010BB862F1D130208DF800007C6AAD
:1034D000012C0ADB01236A4602A9504600F096FD42
:1034E00000287FF422AE641EF4D197F83400400720
:1034F0007FF5F8AC2020B8F1010F8DF80000FFF641
:10350000F1AC01236A4602A9504600F07FFD002875
:103510007FF40BAEB8F10108F3D1E3E40000000042
:1035200000000000686A6C747A4C000025B0BDE8A9
:10353000F08F622826D068281DD06A2808D06C2811
:1035400027D0712804D0742823D07A280CD020E00A
:103550000868C01D20F007000860D0E9002308308B
:1035600008601946104670470A680A6052F8040B52
:103570000A60002170470A680A6052F8040B0A606A
:1035800000B20BE00A680A6052F8040B0A6040B20D
:1035900004E00A680A6052F8040B0A60C117704719
:1035A0002DE9F44F0D4694B0D5F830A0BAF1000FD4
:1035B000804648BF6FF0004A00F02AFE696B401851
:1035C00001900FF67820D0E90023CDE9022395F889
:1035D0003800400702D40198412805D240200DF15F
:1035E00010090190002609E001F0A6FC5FEA00093D
:1035F000F8D14FF0FF3056E1AAEB040ABAF1010FFF
:10360000C0F2CE801498018802AA0DF1010002F0E8
:103610007FF80028044600F1DE801498008810B975
:10362000641E00F1D880A245C0F2BA806869019991
:103630002218914280F0A2806E634042296A401AAB
:10364000A969401A696A401AE969401AA96A461AC2
:1036500095F83800400710D42020012E8DF8000086
:103660000BDB374601236A462946404600F0CEFC74
:10367000002840F0B0807F1EF4D1D5F814B0BBF123
:10368000000F4F460DD017F8011BA868C04700284F
:10369000A86000F0A080E86A401CBBF1010BE86262
:1036A000F1D130208DF800002F6A012F0ADB0123B1
:1036B0006A462946404600F0A9FC002840F08B806D
:1036C0007F1EF4D1D5F818B0EF68BBF1000F0CD015
:1036D00017F8011BA868C0470028A8607BD0E86ADB
:1036E000401CBBF1010BE862F2D130208DF80000E4
:1036F0006F6A012F09DB01236A462946404600F024
:1037000085FC002867D17F1EF5D1E868A969D5F846
:103710001CB04718BBF1000F0CD017F8011BA868AC
:10372000C0470028A86056D0E86A401CBBF1010BD6
:10373000E862F2D130208DF80000AF6A012F09DB7A
:1037400001236A462946404600F060FC002842D129
:103750007F1EF5D195F8380040070DD52020012EA9
:103760008DF8000008DB01236A462946404600F038
:103770004DFC80BB761EF6D100266E61224668693C
:103780000DF101014844FEF789F868692018686165
:103790001498801C1490801E008800287FF42CAFA1
:1037A000686B6969401A296A401AA969401A696AEE
:1037B000401AE969401AA96AA0EB010A95F8380095
:1037C000400710D4BAF1010F0DDB5446A868202140
:1037D000C047A86010B94FF0FF365DE0E86A401CB2
:1037E000641EE862F2D16B694A462946404600F001
:1037F0000DFC0028EFD12C6A012C0ADBA8683021CF
:10380000C0470028A860E6D0E86A401C641EE86251
:10381000F4D1AB69EA682946404600F0F7FB00287E
:10382000D9D16C6A012C0ADBA8683021C047002876
:10383000A860D0D0E86A401C641EE862F4D1E86851
:10384000A969EB6942182946404600F0DFFB0028D1
:10385000C1D1AC6A012C0ADBA8683021C04700281E
:10386000A860B8D0E86A401C641EE862F4D195F8FC
:10387000380040070ED5BAF1010F0BDBA8682021F4
:10388000C0470028A860A6D0E86A401CBAF1010A27
:10389000E862F3D16E616E6304A881451CBF48469F
:1038A00001F0A5FC304615B0BDE8F08F2DE9F343DB
:1038B000054608462F696F2808BF082405D041F047
:1038C0002001782914BF0A2410243C26D5E90023BE
:1038D000642818BF69289046994606D100218B427A
:1038E00003DAD8F1000869EB49090020814508BFD7
:1038F00080450CD1286B50B9082C38D195F8380088
:10390000000734D530203B2687F83B002FE0701E9F
:1039100000900646404649462246E31701F006FF5E
:1039200002F13000C0B23A2803DB9DF8041051398F
:103930000818B855494640462246E31701F0F6FEFE
:10394000804689460020814508BF804503D0E8684D
:10395000B9198842DBD3082C09D195F83800000743
:1039600005D5B85D302802D0761E3020B855B9197B
:10397000E960C6F13C00296BA861884208DA081AA0
:1039800028624FF6EF71288F08402887BDE8F3833F
:1039900000290ED595F8381001F01401102908D12E
:1039A000696B6A69891A2A6A891A0E1A012EA8BFD8
:1039B0002E62BDE8F38300002DE9F24F04468EB07D
:1039C000D4E90001CDE9020104AF9DF8380040F0D0
:1039D000200BBBF1610F0AD0206B002848BF0620E6
:1039E00004D408BFBBF1670F01D1012020636168D7
:1039F000C1F30A5040F2FF7290421CD1080304BF89
:103A00002068002809D10320A0619DF838006138A2
:103A10001A2835D30FF2386108E00320A0619DF821
:103A2000380061381A2828D30FF21C61E06803229D
:103A3000FDF734FFBDE1012815DA2046FEF7F6FE5A
:103A4000012810DB00250020BBF1610F1FD1E168C8
:103A500030220A708A1CE2609DF83820612A0CBF6F
:103A6000782258220FE0626840F2FE3161F31E5264
:103A7000451A62604FF0FF30E6E70FF2C851D5E714
:103A80000FF2C851D2E74A706169891C616110B9AF
:103A90000026002584E1BBF1610F40F09880206B87
:103AA000D4E900AB00284CBF2126461CDDE9020109
:103AB00000220023FEF706FE36B23ABF8BF000402C
:103AC000CDE902A0CDE902AB06F101082D1FB8F146
:103AD000010F8DF810200DF1110736DBDDE9020131
:103AE00000220023FEF706FE2FD21C2102A800F0C0
:103AF000CDFADDE90201FEF7C7FCA8F10708B8F12D
:103B0000010F814609DBFEF70FF802460B46DDE99F
:103B10000201FEF717FDCDE90201F81D072105E0BE
:103B200009F00F0200F8012D4FEA2919B9F1010F30
:103B300001DB491EF4D5491E5CBF002200F8012DAF
:103B4000F9D5C71DB8F1010FC8DA0DF11100391A06
:103B5000B142B8BF0E4636B230000DF111072FD476
:103B6000884206DA04A9014449780829A8BF0F2130
:103B700000DA002104AA024400E0761E12F801399E
:103B8000401E8B42F9D00F2904D104A901444A7880
:103B9000521C4A70002802D504AF761C2D1D36B287
:103BA000701E0DD439180A783032D2B23A2A03DBAB
:103BB0009DF838303A3B9A18401E01F80129F2D599
:103BC000206B002840F1EC80701E2063E8E0DDE906
:103BD000020100220023FEF775FD3CBF81F0004189
:103BE000CDE902012DB247F2975068434B49DFF807
:103BF000309190FBF1F52DB2C5F1070ABAF1010F32
:103C000090461CDBDDE902675FEACA7007D54246D1
:103C10004B4630463946FDF7B5FE06460F46404650
:103C2000494642464B464FEA6A0AFDF7ABFEBAF1F7
:103C3000000F80468946E7D1CDE9026724E0CAF14A
:103C4000000A0026374F14E05FEACA7007D54246E3
:103C50004B4630463946FDF795FE06460F46404630
:103C6000494642464B46FDF78DFE4FEA6A0A8046BA
:103C70008946BAF1000FE7D1DDE9020132463B4641
:103C8000FEF73CFECDE90201BBF1660F216BDFF8C8
:103C900098900CBF05F10A0006204618142EA8BF04
:103CA000132630208DF810000DF11107012E3DDB99
:103CB000DDE90201FEF7FEFB07F1080104220A23F9
:103CC000B0FBF3F303EB8307A0EB4700303001F8C0
:103CD000010C0A20B3FBF0F000EB8007A3EB4703D5
:103CE0003033521E01F8023DE9D1083E012E01F1A8
:103CF0000807DBDBDDE90201FEF7DCFBFDF71EFF59
:103D000002460B46DDE90201FEF71CFC00224B4691
:103D1000FDF738FECDE90201CAE700BFA086010029
:103D2000000024400000F03F84D797410DF11100BE
:103D3000381A0DF1110702E0401E6D1E7F1C397804
:103D40003029F9D0BBF1660F08BF691C04D0BBF164
:103D5000650F0CBF01210021226B8E1836B2B042D4
:103D6000B8BF064636B231001AD4814204DA785C14
:103D70003528A8BF392000DA30207A18521E00E01A
:103D8000761E12F80139491E8342F9D0392802D132
:103D9000785C401C7854002902D57F1E761C6D1C6F
:103DA0002DB29DF83810009533B23A46204600F007
:103DB00003F80FB0BDE8F08F2DE9F04786B0064656
:103DC0008A4690461D4601F046FD012D406A376B3C
:103DD00090F8009002DA01250FF278284AF02000CE
:103DE000BDF93840662808BF641C12D0672878D116
:103DF00014F1040F7BDBBC4279DA96F83800641CBE
:103E0000000702D4BD42B8BF2F4624B23F1B48BFB3
:103E1000002724B2F068B169012C23DA4A1C302350
:103E20004354012F03DA96F83800000703D5F068F1
:103E300000F80290521CE742B8BF7C4224B26042B4
:103E40007062E719AF42B261B8BF3D46F068B3692E
:103E50002DB2F5612A4641461844FDF71FFD781B37
:103E6000B062BCE022469542084416DA2A46414632
:103E7000FDF714FDB1696918601B012FB161706213
:103E800003DA96F83800000705D5F06800F80190CD
:103E9000F069401CF061B762A1E04146FDF7FEFC0D
:103EA000B06920182D1B012F03DA96F83810090786
:103EB00003D5F16801F80090401CB0612DB2AF420B
:103EC000B8BF3D46F068B3692DB22A4608EB04013D
:103ED0001844FDF7E3FCB0692818B061781B7062E4
:103EE0007DE0BAF1610F14D14FF0700A16E0BD42C7
:103EF00004DA96F83810090758BF2F467F1E48BFCE
:103F00000027BAF1670F14BF4FF0450A4FF0650A5A
:103F100004E0BAF1410F08BF4FF0500AB169F368ED
:103F2000481CB061012F18F8012B5A5403DA96F897
:103F30003810090717D5F168431CB36101F80090E8
:103F4000012F10DB6D1E2DB2AF42B8BF3D46F068A9
:103F50002DB22A4641461844FDF7A0FCB069281846
:103F6000B061781B7062F068B1690144200081F88B
:103F700000A004D42B20487001F1020804E02D2297
:103F80004A7001F102086442002502AF08E00A22EB
:103F9000684601F079FC019807F8010B6D1C009C44
:103FA00021B20129F3DA022D06DA4AF02000652851
:103FB00004BF302008F8010B4DB9302008F8010B80
:103FC00007E06D1E02A8405D303008F8010B012D9E
:103FD000F7DAF068B1690844A8EB0000F06196F8E0
:103FE000380000F0140010280DD17069B16908186C
:103FF000716A0818F1690818B16A0818716B88426B
:10400000BCBF081A306206B0BDE8F087F8B50446B8
:104010000D4616461F46002077B116F8011BA8680A
:10402000A047A86030B1E86A401CE86200207F1E0B
:10403000F3D1F2BD4FF0FF30F2BD000000000000F0
:10404000000000006E616E004E414E00696E660019
:10405000494E460030007047C1F30A5240F2FF73E8
:104060009A420AD012B14FF0FF307047C1F31301EA
:10407000084309D06FF001007047C1F313010843F2
:1040800001D00220704701207047000070B504463F
:104090000D466068C0F30A5040F2FF71884207D1B4
:1040A0006068000304BF2068002817D0022070BD9C
:1040B00020B92046FEF7BAFB012866DA012D0FDB96
:1040C00040F2FF71091A8D420AD36068002847BF89
:1040D00000202F4900202F49C4E90001012070BDB4
:1040E0004142A942616806DA6FF31E51401941EA64
:1040F0000050606040E0401E63684519012205F1F0
:10410000350062F31F53352801F00041636003D38B
:1041100061600020206070BD002015F11F0F04DADF
:10412000206823600022203562606A4212D0401E5F
:1041300025688041C2F12003C0439D4045EAD0700C
:1041400025686668D54006FA03F32B43236063684D
:10415000D340636062680A43B0F1004F626003D8E5
:104160000DD12078C0070AD52068401C2060206847
:1041700028B96068401C60604FF0FF3070BD606817
:10418000884204BF20680028F6D1002070BD00BF1F
:104190000000F0FF0000F07FF8B504460D4616461B
:1041A0001F46FEF734FB3B4632462946204601B007
:1041B000BDE8F04001F07DBBC9B2830706D0521EB6
:1041C00022D310F8013B9942F7D11FE0083A13D3EC
:1041D00002F1040241EA012141EA014150F8043BA5
:1041E000121F21BF4B40A3F1013C2CEA030C1CF031
:1041F000803FF3D0C9B2001F083210F8013B521EB5
:1042000028BF91EA030FF8D818BF0120401E70475D
:1042100080B5FEF7FCFA012002BD00004FF4E07209
:1042200010440268914203D343681A44914202D376
:1042300080680028F5D17047DFF85C07016891B904
:104240004FF4803181604FF4805141604FF0FF3175
:10425000C16001610421DFF844274161C2F8BC114B
:10426000DFF83C1701600120704701F1080313F0EB
:10427000070305D001F10803C3F1080303F00703A6
:104280001944D21A8161C26042F001034B601144AB
:1042900028234B60DFF800170969C16170472DE9D9
:1042A000F84F064601F1080010F0070008BF8846E5
:1042B00007D001F10800C0F1080000F0070001EB91
:1042C000000802F1080010F0070006D002F1080013
:1042D000C0F1080000F0070002441546A5EB0800F5
:1042E000A0EB030908EB030B43F00300C8F804003C
:1042F000AB4528BF01F000FB2879C00758BF01F08B
:10430000FBFAB9F1100F38BF01F0F6FAB069854237
:1043100009D1F0684844F060C6F818B040F00100D8
:10432000CBF8040070E1706985420BD1B068484455
:10433000B060C6F814B040F00101CBF804104BF89F
:10434000000061E1686800F00301012940F0AF80DE
:10435000C008C0000190C00820283BD2D5F808A0B2
:10436000EF680090BD4208BF01F0C6FA554508BF8E
:1043700001F0C2FA68680099C008C000B0EBC10F34
:1043800018BF01F0B9FA009806EBC00000F128014F
:104390008A4508D031698A45C0F08480DAF80C106B
:1043A000A94240F07F80574506D1009A306801212C
:1043B00091408843306077E02830874205D03069EB
:1043C00087426FD3B868A8426CD1CAF80C70C7F89E
:1043D00008A069E0EF68D5F818A0AF420CD0A86833
:1043E0003169884223D3C168A94204BFB968A94290
:1043F0001DD1C760B8601CE005F11400076837B92B
:1044000005F110000768A7B101E00846076807F149
:1044100014010A68002A02BF07F110010A68002A85
:10442000F3D13169884202D30021016001E001F03B
:1044300063FABAF1000F37D0E86906EB80004FF459
:104440009871084401688D4208D10760A7B9EA69EC
:104450007068012191408843706025E03069824591
:1044600008D3DAF81000A84214BFCAF81470CAF8CA
:10447000107001E001F040FAB7B13069874211D302
:10448000C7F818A0296929B1814226BF39618F6117
:1044900001F032FA686938B13169884202D3786133
:1044A000876101E001F028FA0198054481446868B9
:1044B0004008400068604FEAD90549F00100CBF898
:1044C00004004BF80990202D23D206EBC50000F123
:1044D0002807BA46B9F1100F38BF01F00DFA30685D
:1044E00020FA05F1C90704D40121A940084330602E
:1044F00006E0B868316988422CBF824601F0FCF9B9
:10450000C7F808B0CAF80CB0CBF808A0CBF80C700C
:104510007AE05FEA192108BF002023D0B1F5803F7F
:1045200028BF1F201ED2A1F58070000C00F00800EB
:104530008140A1F58052120C02F004029140A1F5D5
:1045400080431B0CC0F10E0003F00203801AC01A56
:10455000994000EBD130C11D29FA01F202F00101AE
:1045600001EB400006EB80014FF498721144CBF848
:104570001C000022CBF81420CBF81020726822FA1D
:1045800000F3DB0707D4012303FA00F01043706047
:10459000C1F800B01DE009681F281DBF4008C0F128
:1045A000190009FA00F0484600E011464A68D208AE
:1045B000D2004A4514D0C20F01EB820202F110036F
:1045C00040001A68002AF0D1306983421AD3C3F838
:1045D00000B0CBF81810CBF80CB0CBF808B013E053
:1045E00032698868914228BF90420BD3C0F80CB062
:1045F000C1F808B0CBF80800CBF80C100020CBF8BD
:10460000180001E001F078F908F10800BDE8E68F34
:104610002DE9FA4D0546DFF88003006882B008B93D
:10462000FFF70AFEDFF870030299806841182F3106
:10463000401E21EA00000299814280F0A9814FF4D6
:10464000D8716E18B16839B132688018824280F032
:104650009F818142C0F09C8101F052F900281EBF69
:104660000446D0F8008014F1010F00F09181306809
:10467000716840448142306038BF01467160A8696A
:1046800080BB286908B1844200D22C610020F0610F
:104690003461C6F8148005F12801BF4800686862DB
:1046A0004FF0FF3028620020C960896001F10802E4
:1046B0004A610A61801C10312028F5D3B748854231
:1046C00003D1A8F1280221462AE055F8040CC008BD
:1046D00005EBC000A0F1080104EB0800401AA0F1AE
:1046E00028021DE04FF4E0702918084600E08068B9
:1046F000D0B1026843681A449442F8D1027B120791
:1047000012D4AA6903689A420ED347683B449A427E
:104710000AD208EB07014160E868A96908EB0002CA
:104720002846FFF7A2FD1DE128698442084638BFEC
:104730002C6104EB080100E0806880B102688A42C5
:10474000FAD1017B09070AD4046041684144416001
:104750002146029B284604B0BDE8F04D9FE5AF69B5
:1047600039462846FFF75AFD4FF0000B01684068B4
:1047700008440190273810F0070101990EBF00206E
:10478000C0F1080000F0070008442F3807F11001BD
:10479000884234BF00970090009804F1080100F1AE
:1047A000180A11F00701A8F1280005D004F108014A
:1047B000C1F1080101F00701401A2144A961E86034
:1047C00040F001024A6008442822426072480069B1
:1047D000E8610098083010F0070018BF01F08CF86D
:1047E00000991B2048604FF4E0712944B1E80C5057
:1047F00000980830A0E80C503461C6F81480C6F860
:104800001CB000980830B061019801E00AF1040A78
:104810000721CAF804100BF1010B0AF108018142CB
:10482000F4D3BBF1020FB8BF01F066F80098B842AC
:1048300000F09880C01B3918C4084A68520852001A
:104840004A6040F0010179603850202C20D205EBFD
:10485000C40101F12806B046102838BF01F04CF819
:10486000286820FA04F1C90704D40121A1400843B3
:10487000286006E0B068296988422CBF804601F0B4
:104880003BF8B760C8F80C70C7F80880FE6069E0B4
:10489000010A23D0B1F5803F28BF1F211ED2A1F508
:1048A0008072120C02F008029140A1F580531B0C9B
:1048B00003F004039940A1F58044240CC2F10E02D8
:1048C00004F00204D21A121BA14002EBD131CA1D1E
:1048D00020FA02F303F0010202EB410105EB810231
:1048E0004FF498731A44F96100237B613B616B6854
:1048F00023FA01F4E40705D40120884018436860D6
:1049000017601CE012681F291DBF4908C1F1190179
:1049100000FA01F1014600E01A465368DB08DB00AB
:10492000834210D0CB0F02EB830303F11004490044
:104930002368002BF0D12869844211D32760BA6123
:10494000FF60BF600EE0296990688A4228BF8842F4
:1049500006D3C7609760B860FA600020B86101E0D4
:1049600000F0CAFFE8680299814211D2401AE8605B
:10497000A969029A0A44AA6140F0010050600298B5
:1049800040F00300486004B001F10800BDE8F08D7C
:10499000002004B0BDE8F08DD0A70020589D002075
:1049A0006859883C2DE9F84F0446002689465FEA9D
:1049B0001920C9F1000B08BF002123D0B0F5803FBA
:1049C00028BF1F211ED2A0F58071090C01F008013B
:1049D0008840A0F58052120C02F004029040A0F52D
:1049E00080431B0CC1F10E0103F00203891AC91A9E
:1049F000984001EBD030C11D29FA01F202F001010B
:104A000001EB400104EB8100D0F8300118B31F29FD
:104A10000FBF4A464A08C2F1190209FA02F20023FE
:104A200000E052004568ED08ED00A5EB09055D4585
:104A300003D25FEA050B06460BD04569D70F00EBA2
:104A40008700002D00691CBF85422B460028E8D155
:104A50001846B8BBC6BB012088404000414208430D
:104A60006168084000F05D8141420840401E010B32
:104A700001F01001C840420902F00802D04083084A
:104A800003F00403D840450805F002055118E8403A
:104A90005918C0F3400729443944F840401804EB42
:104AA0008000D0F830010DE008464168C908C9000F
:104AB000A1EB090159453CBF8B4606460169002917
:104AC000F2D140690028F0D1002E00F02A81A068C0
:104AD000A0EB0900834580F0248120698642C0F064
:104AE0001E817068C00809EB0B08C000404518BF64
:104AF00000F002FF06EB0905AE4280F01081F76876
:104B0000D6F818A0B7420CD0B0682169884223D3E8
:104B1000C168B14204BFB968B1421DD1C760B86075
:104B20001CE006F11400076837B906F110000768A9
:104B3000A7B101E00846076807F114010A68002AD6
:104B400002BF07F110010A68002AF3D121698842E7
:104B500002D30021016001E000F0CEFEBAF1000FA7
:104B600039D0F06904EB80004FF498710844016873
:104B70008E4209D10760380014D1F26960680121C2
:104B800091408843606026E02069824508D3DAF8C6
:104B90001000B04214BFCAF81470CAF8107001E0D7
:104BA00000F0AAFEBFB12069874212D3C7F818A04F
:104BB000306930B12169884226BF3861876100F0D1
:104BC0009BFE706938B12169884202D378618761A0
:104BD00001E000F091FEBBF1100F09D248F0030094
:104BE000706006EB0800416841F00101416095E00A
:104BF00049F0030070604BF0010068604FEADB0091
:104C000045F80BB020281DD204EBC00101F12807A4
:104C1000216821FA00F2D207BB4605D4012202FA2C
:104C200000F00843206006E0B868216988422CBF84
:104C3000834600F061FEBD60CBF80C50C5F808B0AB
:104C4000EF606BE05FEA1B2023D0B0F5803F28BF08
:104C50001F201ED2A0F58071090C01F008018840C8
:104C6000A0F58052120C02F004029040A0F580439F
:104C70001B0CC1F10E0103F00203891AC91A9840F6
:104C800001EBD030C11D2BFA01F202F0010101EB62
:104C9000400004EB80014FF498721144E861002257
:104CA0006A612A61626822FA00F3DB0706D40123F5
:104CB00003FA00F0104360600D601CE009681F28D3
:104CC0001DBF4008C0F119000BFA00F0584600E083
:104CD00011464A68D208D2005A4510D0C20F01EBE3
:104CE000820202F1100340001A68002AF0D1206904
:104CF000834211D31D60A961ED60AD600EE02269B1
:104D00008868914228BF904206D3C5608D60A86034
:104D1000E9600020A86101E000F0EEFD08E100F08C
:104D2000EBFD02E12DE9F84F0446884660684142F8
:104D30000840401E010B01F01001C840420902F07A
:104D40000802D040830803F00403D840450805F06A
:104D500002055118E8405918C0F34006294471185B
:104D6000F040401804EB8000D0F830014168C908D9
:104D7000C9000646A1EB080A09E008464168C908CF
:104D8000C900A1EB080151453CBF8A4606460169AE
:104D90000029F2D140690028F0D120698642C0F094
:104DA000C2807068C00808EB0A09C000484518BFF7
:104DB00000F0A2FD06EB080B5E4580F0B480F768BA
:104DC000B569B7420CD0B0682169884223D3C16865
:104DD000B14204BFB968B1421DD1C760B8601CE0E0
:104DE00006F11400076837B906F110000768A7B18B
:104DF00001E00846076807F114010A68002A02BFAB
:104E000007F110010A68002AF3D12169884202D310
:104E10000021016001E000F06FFD002D35D0F06948
:104E200004EB80004FF49871084401688E4209D168
:104E30000760380011D1F269606801219140884310
:104E4000606022E02069854205D32869B04214BF22
:104E50006F612F6101E000F04FFDB7B1206987421B
:104E600011D3BD61306930B12169884226BF3861F4
:104E7000876100F041FD706938B12169884202D331
:104E80007861876101E000F037FDBAF1100F09D2B7
:104E900049F00300706006EB0900416841F0010130
:104EA00041603FE048F0030070604AF00100CBF839
:104EB00004004BF80AA0D4F808804FEAD805202D4A
:104EC00028BF00F019FDB8F1000F27D0D4F81490D6
:104ED000009504EBC50000F128052F46B8F1100F2E
:104EE00038BF00F009FD2068009920FA01F2D107CF
:104EF00005D4009A012191400843206006E0A8688B
:104F0000216988422CBF074600F0F6FCC5F80890DE
:104F1000C7F80C90C9F80870C9F80C50C4F808A07C
:104F2000C4F814B004E000F0E7FC0020BDE8F28F04
:104F300006F10800BDE8F28F2DE9F04F83B0054679
:104F4000AFF30080F52DDFF8C04780F002810B2D14
:104F500031BF102705F10B00C708FF002068FE08CD
:104F6000F04010F0030F42D0C04300F0010086195A
:104F700004EBC60000F12808F700D8F8085068686C
:104F8000C008C000B84218BF00F0B6FCD5F80890C1
:104F9000454508BF00F0B0FC4D4508BF00F0ACFC33
:104FA0006868C008C000B84218BF00F0A5FCC8453A
:104FB00005D120680121B140884320600DE02069BF
:104FC000814508D3D9F80C00A84204D1C8F808904C
:104FD000C9F80C8001E000F08FFC47F00300686026
:104FE000E8190835416841F001014160F9E0A16824
:104FF000B94280F0C080002800F0A280012505FAA7
:1050000006F149004A42B04011430840414208407D
:10501000401E010B01F01001C840420902F00802D5
:10502000D040830803F00403D840460806F0020687
:105030005118F0405918C0F340087118414420FA43
:1050400008F000EB010804EBC80000F128094FEA62
:10505000C80AD9F808607068C008C000504518BF79
:1050600000F04AFCD6F808B04E4508BF00F044FCFA
:105070005E4508BF00F040FC7068C008C0005045A5
:1050800018BF00F039FCD94505D1206805FA08F1B0
:10509000884320600DE02069834508D3DBF80C00CD
:1050A000B04204D1C9F808B0CBF80C9001E000F090
:1050B00023FC47F003007060AAEB0708F019019089
:1050C00048F0010001994860019840F80880A768FD
:1050D0004FEAD70ABAF1200F28BF00F00DFC47B302
:1050E000CDF800A004EBCA00D4F8149000F1280A0F
:1050F000D346102F38BF00F0FFFB2068009920FA3C
:1051000001F2D10705D4009905FA01F108432060A6
:1051100007E0DAF80800216988422CBF834600F0D6
:10512000EBFBCAF80890CBF80C90C9F808B0C9F8A6
:105130000CA0C4F8088006F108050198606150E0F1
:105140006068C0B339462046FFF7ECFD050012D079
:1051500047E015F1400F28BF4FF0FF370BD205F1A4
:105160000B00C7086068FF0028B139462046FFF7EA
:1051700019FC050035D1A068B8421CD3C11B626977
:1051800010290AD3D0196061A16041F00103436086
:10519000415047F0030050600AE00021A1606161C6
:1051A00040F0030151601044416841F00101416049
:1051B00002F1080515E0E06887420DD2C01BA16925
:1051C000E060CA19A26140F00100506001F10805D9
:1051D00047F00300486004E039462046FFF718FA1C
:1051E0000546AFF30080284603B0BDE8F08F00B954
:1051F00070472DE9F047A0F10804AFF30080DFF815
:10520000085528698442C0F07982616801F0030280
:10521000012A00F07382CA084FEAC208CA0704EBE9
:10522000080937D4226811F0030F00F06982514257
:105230000C4484429044C0F0618269698C4200F061
:10524000D980D608202E70D2D4F80CA0A768544577
:1052500008BF00F051FBBC4208BF00F04DFB606886
:10526000C008C000B0EBC60F18BF00F045FB05EB4F
:10527000C60000F128018F4205D029698F4251D321
:10528000F968A1424ED1BA453DD128680121B1400B
:10529000884328604C4580F03182D9F80400C1076A
:1052A00040F12C82810700F17D81A969894540F098
:1052B000B680E868AC614044E86040F0010161609C
:1052C00069698C4202D100216961A960E969814262
:1052D00080F01682DFF83404006808B9FEF7ACFFEE
:1052E000A969002900F00C82E868292824BF284613
:1052F000FEF794FFE869E968884280F001824FF088
:10530000FF30E861FCE12830824506D028698245FB
:1053100008D3DAF80800A04204D1C7F80CA0CAF8F4
:105320000870B7E700F0E8FAB4E7E768A669A742B3
:105330000BD0A168814222D3C868A04204BFB868DC
:10534000A0421CD1CF60B9601BE004F114010F68CA
:1053500037B904F110010F689FB101E011460F68E1
:1053600007F114021368002B02BF07F11002136843
:10537000002BF3D1814202D30020086001E000F04D
:10538000BBFA002E86D0E06905EB80004FF49871DF
:10539000084401688C4209D10760380011D1E269E4
:1053A0006868012191408843686073E728698642F4
:1053B00005D33069A04214BF7761376101E000F086
:1053C0009BFA002F3FF466AF28698742AAD3BE61DB
:1053D000216929B1814226BF39618F6100F08CFAC1
:1053E000606900283FF456AF296988429AD37861F2
:1053F00087614FE799F8040000F0030003287FF469
:1054000049AFC5F80880D9F8040040084000C9F841
:10541000040048F00100606044F8088070E16969A8
:10542000894508D1A8686C614044A86040F001013A
:105430006160205064E1C008C0004FEAD00ABAF1B0
:10544000200F804437D2D9F80C70D9F80860B945DC
:1054500008BF00F051FAB14508BF00F04DFAD9F885
:105460000400C008C000B0EBCA0F18BF00F044FA37
:1054700005EBCA0000F128018E4207D029698E424F
:10548000C0F08380F168494540F07F80B74206D183
:105490002868012101FA0AF18843286077E0283062
:1054A000874205D0286987426FD3B86848456CD1D8
:1054B000F760BE606BE0D9F80C70D9F818604F4502
:1054C0000DD0D9F808002969884223D3C16849451D
:1054D00004BFB96849451DD1C760B8601CE009F137
:1054E0001400076837B909F110000768A7B101E097
:1054F0000846076807F114010A68002A02BF07F18D
:1055000010010A68002AF3D12969884202D30021D8
:10551000016001E000F0F0F9002E38D0D9F81C004D
:1055200005EB80004FF498710844016889450AD161
:105530000760380012D1D9F81C2068680121914019
:105540008843686023E02869864205D3306948456E
:1055500014BF7761376101E000F0CEF9BFB128696F
:10556000874212D3BE61D9F8101029B1814226BFFB
:1055700039618F6100F0C0F9D9F8140038B1296998
:10558000884202D37861876101E000F0B5F948F004
:105590000100606044F80880686984420BD1C5F856
:1055A0000880ADE040084000C9F8040048F0010060
:1055B000606044F808804FEAD807202F22D205EB1C
:1055C000C70000F128094E46B8F1100F38BF00F0AF
:1055D00093F9286820FA07F1C90704D40121B940DA
:1055E0000843286007E0D9F80800296988422CBFE1
:1055F000064600F081F9C9F80840F460A660C4F8D6
:105600000C907DE05FEA182008BF002123D0B0F5A0
:10561000803F28BF1F211ED2A0F58071090C01F028
:1056200008018840A0F58052120C02F0040290405C
:10563000A0F580431B0CC1F10E0103F00203891A8F
:10564000C91A984001EBD030C11D28FA01F202F0CE
:10565000010101EB400105EB81004FF49872104409
:10566000002262612261E1616A6822FA01F3DB07CC
:1056700006D4012303FA01F11143696004601CE0C0
:1056800000681F291DBF4908C1F1190108FA01F17D
:10569000414600E010464268D208D200424510D090
:1056A000CA0F00EB820202F1100349001A68002AB7
:1056B000F0D129698B4211D31C60A061E460A46021
:1056C0000EE02A698168904228BF914206D3CC60DF
:1056D0008460E060A1600020A06101E000F00CF9AE
:1056E000286A401E28620BD1D5F8C80100E0806806
:1056F0000028FCD14FF0FF30286201E000F0FCF8F8
:10570000AFF30080BDE8F087589D0020D0A70020AF
:1057100070B504460D461646FDF779F8324629461F
:105720002046BDE8704000F0B7B800001B4213D11E
:10573000094236D12AB18446B0FBF2F002FB10C216
:10574000704700F0F3B8FCD30022002370470B0031
:105750000200002100207047904271EB030CF6D349
:1057600070B5B1FA81F4B3FA83F52C1BA340C4F1F0
:10577000200532FA05F63343A2405FF00046E640CA
:1057800002E05B085FEA3202841A71EB030524BF72
:10579000204629467641F4D302000B003000002158
:1057A00070BD012ACFD970B5140C20D0B1FA81F4A4
:1057B000B2FA82F5C4F120046419B4F12006D6D3FC
:1057C000B2405FF00044F440002502E052085FEA76
:1057D0003303C61A71EB020E24BF30467146644192
:1057E0006D41F3D302000B002000290070BD0C4670
:1057F000B1FBF2F102FB11452D0445EA1045B5FB62
:10580000F2F402FB145580B240EA0545B5FBF2F014
:1058100002FB105240EA044070BD000080B51348FE
:10582000FEF719FC0FF24C020FF2440101604262D4
:1058300041600FF24402826381600FF24402C16052
:105840000161416181618162C16201634163C2633F
:105850000164416401BD10B50448FEF7FCFB044639
:10586000206808B9FFF7DAFF204610BDA00200202B
:10587000000000002E00000066616C7365000000EF
:10588000747275650000000091FBF2F303FB1211C6
:10589000C0E900317047000030B430B90FF2480061
:1058A000D0E90045C2E900451BE00170012030BC91
:1058B000704730B431B90FF23800D0E90045C3E980
:1058C00000450EE01AB930BC6FF00100704708B116
:1058D0000A7802800978481E804130BCC043C00F5E
:1058E0007047002030BC704700000000000000003E
:1058F0000000000000000000012000F019B80000C6
:105900000749086808B1002070470648C008C00071
:1059100008600549C908C900091A0160704700BF3D
:10592000E0AA0020370B0020300B00207047000059
:1059300080B5AFF30080024A11001820ABBEFBE730
:105940002600020080B50422DFF8941B4FF470603B
:1059500001F08AF90422DFF88C1B4FF4A06001F0FB
:1059600083F90422DFF8AC1D4FF4807001F07CF95C
:1059700001BD80B58021002001F01CF9002001F05C
:10598000F5F8FFF7DFFF0622DFF88C1D4FF41060FB
:1059900001F06AF901BD80B58021002001F00AF90B
:1059A000002001F0E3F80622DFF86C1D4FF41060D0
:1059B00001F05AF901BD30B583B0062269464FF4B3
:1059C000106001F01DF90120DFF8501D0968087012
:1059D0000120DFF8481D096848700620DFF83C1DEB
:1059E000096888700020DFF8341D0968C870DFF886
:1059F0002C0D0068001D0400DFF8240D0068000E67
:105A00002070DFF81C0D0068000C6070DFF8100DCE
:105A10000068000AA070DFF8080D0068E070002040
:105A2000DFF8F81C09680881DFF8F00C00680A301C
:105A3000040080202070002060700020DFF8DC1C53
:105A4000096808730020DFF8D41C09684873002037
:105A5000DFF8C81C096888730020DFF8C01C0968DB
:105A6000C8730020DFF8B41C096808740020DFF850
:105A7000AC1C096848740020DFF8A01C0968887411
:105A80000020DFF8981C0968C8740020DFF88C1C1F
:105A9000096808750020DFF8841C09684875002033
:105AA000DFF8781C096888750020DFF8701C096829
:105AB000C8750020DFF8641C096808760020DFF84C
:105AC0005C1C096848760020DFF8501C096888765D
:105AD0000020DFF8481C0968C876DFF83C0C007825
