:020000040800F2
:10000000100A0020290A01087DF600087FF6000882
:1000100093F6000895F6000897F600080000000027
:10002000000000000000000000000000A78500089C
:1000300099F6000800000000618500089BF60008A2
:100040008D0E0108910E0108950E0108990E010808
:100050009D0E0108A10E0108A50E0108A90E0108B8
:10006000AD0E0108B10E0108B50E0108B90E010868
:10007000A3F60008BD0E0108ADF60008C10E010888
:10008000C50E0108B7F60008C90E0108CD0E01081B
:10009000D10E0108D50E0108D90E0108DD0E0108A8
:1000A000E10E0108E50E0108E90E0108ED0E010858
:1000B000F10E0108F50E0108F90E0108FD0E010808
:1000C000010F0108050F0108090F01080D0F0108B4
:1000D000110F0108C1F60008D5F60008E9F600087E
:1000E000150F0108190F01081D0F0108210F010844
:1000F000FDF60008250F0108290F01082D0F010842
:10010000310F0108350F0108390F01083D0F0108B3
:1001100007F700081BF70008410F0108450F010809
:10012000490F01084D0F0108510F01082FF7000872
:100130004FF4E07210440268914203D343681A44BA
:10014000914202D380680028F5D17047DFF85C0740
:10015000016891B94FF4803181604FF48051416062
:100160004FF0FF31C16001610421DFF84427416194
:10017000C2F8BC11DFF83C1701600120704701F1A3
:10018000080313F0070305D001F10803C3F10803C6
:1001900003F007031944D21A8161C26042F00103DF
:1001A0004B60114428234B60DFF800170969C161D7
:1001B00070472DE9F84F064601F1080010F00700DE
:1001C00008BF884607D001F10800C0F1080000F020
:1001D000070001EB000802F1080010F0070006D04C
:1001E00002F10800C0F1080000F0070002441546C3
:1001F000A5EB0800A0EB030908EB030B43F0030099
:10020000C8F80400AB4528BF01F00CFA2879C007F4
:1002100058BF01F007FAB9F1100F38BF01F002FA28
:10022000B069854209D1F0684844F060C6F818B05A
:1002300040F00100CBF8040070E1706985420BD1F9
:10024000B0684844B060C6F814B040F00101CBF883
:1002500004104BF8000061E1686800F00301012917
:1002600040F0AF80C008C0000190C00820283BD2F9
:10027000D5F808A0EF680090BD4208BF01F0D2F9A0
:10028000554508BF01F0CEF968680099C008C00064
:10029000B0EBC10F18BF01F0C5F9009806EBC00024
:1002A00000F128018A4508D031698A45C0F0848070
:1002B000DAF80C10A94240F07F80574506D1009A29
:1002C0003068012191408843306077E028308742D0
:1002D00005D0306987426FD3B868A8426CD1CAF89C
:1002E0000C70C7F808A069E0EF68D5F818A0AF4215
:1002F0000CD0A8683169884223D3C168A94204BFE1
:10030000B968A9421DD1C760B8601CE005F11400AE
:10031000076837B905F110000768A7B101E0084682
:10032000076807F114010A68002A02BF07F11001EB
:100330000A68002AF3D13169884202D300210160A2
:1003400001E001F06FF9BAF1000F37D0E86906EB70
:1003500080004FF49871084401688D4208D107600D
:10036000A7B9EA697068012191408843706025E06F
:100370003069824508D3DAF81000A84214BFCAF8E1
:100380001470CAF8107001E001F04CF9B7B130698F
:10039000874211D3C7F818A0296929B1814226BF25
:1003A00039618F6101F03EF9686938B1316988427D
:1003B00002D37861876101E001F034F901980544C6
:1003C000814468684008400068604FEAD90549F0F8
:1003D0000100CBF804004BF80990202D23D206EB46
:1003E000C50000F12807BA46B9F1100F38BF01F077
:1003F00019F9306820FA05F1C90704D40121A94090
:100400000843306006E0B868316988422CBF8246F4
:1004100001F008F9C7F808B0CAF80CB0CBF808A08A
:10042000CBF80C707AE05FEA192108BF002023D0D6
:10043000B1F5803F28BF1F201ED2A1F58070000CAF
:1004400000F008008140A1F58052120C02F0040275
:100450009140A1F580431B0CC0F10E0003F0020394
:10046000801AC01A994000EBD130C11D29FA01F25F
:1004700002F0010101EB400006EB80014FF498729D
:100480001144CBF81C000022CBF81420CBF810202C
:10049000726822FA00F3DB0707D4012303FA00F0A5
:1004A00010437060C1F800B01DE009681F281DBF2F
:1004B0004008C0F1190009FA00F0484600E0114672
:1004C0004A68D208D2004A4514D0C20F01EB82021A
:1004D00002F1100340001A68002AF0D1306983420B
:1004E0001AD3C3F800B0CBF81810CBF80CB0CBF887
:1004F00008B013E032698868914228BF90420BD35C
:10050000C0F80CB0C1F808B0CBF80800CBF80C105C
:100510000020CBF8180001E001F084F808F1080091
:10052000BDE8E68F2DE9FA4D0546DFF88003006847
:1005300082B008B9FFF70AFEDFF8700302998068FD
:1005400041182F31401E21EA00000299814280F0BB
:10055000A9814FF4D8716E18B16839B1326880182A
:10056000824280F09F818142C0F09C8101F06AF854
:1005700000281EBF0446D0F8008014F1010F00F0DF
:1005800091813068716840448142306038BF0146D3
:100590007160A86980BB286908B1844200D22C61CF
:1005A0000020F0613461C6F8148005F12801BF48CD
:1005B000006868624FF0FF3028620020C9608960DF
:1005C00001F108024A610A61801C10312028F5D32C
:1005D000B748854203D1A8F1280221462AE055F800
:1005E000040CC00805EBC000A0F1080104EB0800F2
:1005F000401AA0F128021DE04FF4E07029180846C7
:1006000000E08068D0B1026843681A449442F8D18F
:10061000027B120712D4AA6903689A420ED3476874
:100620003B449A420AD208EB07014160E868A96995
:1006300008EB00022846FFF7A2FD1DE1286984426D
:10064000084638BF2C6104EB080100E0806880B1E7
:1006500002688A42FAD1017B09070AD40460416822
:10066000414441602146029B284604B0BDE8F04D5C
:100670009FE5AF6939462846FFF75AFD4FF0000B5A
:100680000168406808440190273810F0070101997B
:100690000EBF0020C0F1080000F0070008442F380A
:1006A00007F11001884234BF00970090009804F1D0
:1006B000080100F1180A11F00701A8F1280005D07F
:1006C00004F10801C1F1080101F00701401A2144B9
:1006D000A961E86040F001024A60084428224260B3
:1006E00072480069E8610098083010F0070018BFF0
:1006F00000F098FF00991B2048604FF4E0712944F6
:10070000B1E80C5000980830A0E80C503461C6F8ED
:100710001480C6F81CB000980830B061019801E060
:100720000AF1040A0721CAF804100BF1010B0AF1BF
:1007300008018142F4D3BBF1020FB8BF00F072FF91
:100740000098B84200F09880C01B3918C4084A6865
:10075000520852004A6040F0010179603850202C64
:1007600020D205EBC40101F12806B046102838BF9D
:1007700000F058FF286820FA04F1C90704D40121C9
:10078000A1400843286006E0B068296988422CBF70
:10079000804600F047FFB760C8F80C70C7F80880C3
:1007A000FE6069E0010A23D0B1F5803F28BF1F2118
:1007B0001ED2A1F58072120C02F008029140A1F540
:1007C00080531B0C03F004039940A1F58044240CD2
:1007D000C2F10E0204F00204D21A121BA14002EB75
:1007E000D131CA1D20FA02F303F0010202EB4101EC
:1007F00005EB81024FF498731A44F96100237B6181
:100800003B616B6823FA01F4E40705D401208840BA
:100810001843686017601CE012681F291DBF490853
:10082000C1F1190100FA01F1014600E01A465368CE
:10083000DB08DB00834210D0CB0F02EB830303F114
:10084000100449002368002BF0D12869844211D399
:100850002760BA61FF60BF600EE0296990688A4234
:1008600028BF884206D3C7609760B860FA6000204E
:10087000B86101E000F0D6FEE8680299814211D229
:10088000401AE860A969029A0A44AA6140F001008E
:100890005060029840F00300486004B001F1080085
:1008A000BDE8F08D002004B0BDE8F08D3CA4002030
:1008B000109A00206859883C2DE9F84F044600261C
:1008C00089465FEA1920C9F1000B08BF002123D037
:1008D000B0F5803F28BF1F211ED2A0F58071090C02
:1008E00001F008018840A0F58052120C02F00402C9
:1008F0009040A0F580431B0CC1F10E0103F00203F0
:10090000891AC91A984001EBD030C11D29FA01F2A9
:1009100002F0010101EB400104EB8100D0F830014D
:1009200018B31F290FBF4A464A08C2F1190209FA33
:1009300002F2002300E052004568ED08ED00A5EB4F
:1009400009055D4503D25FEA050B06460BD04569F4
:10095000D70F00EB8700002D00691CBF85422B4696
:100960000028E8D11846B8BBC6BB0120884040002B
:10097000414208436168084000F05D8141420840FF
:10098000401E010B01F01001C840420902F00802AC
:10099000D040830803F00403D840450805F0020561
:1009A0005118E8405918C0F3400729443944F84029
:1009B000401804EB8000D0F830010DE00846416893
:1009C000C908C900A1EB090159453CBF8B46064641
:1009D00001690029F2D140690028F0D1002E00F011
:1009E0002A81A068A0EB0900834580F0248120695A
:1009F0008642C0F01E817068C00809EB0B08C00079
:100A0000404518BF00F00EFE06EB0905AE4280F02F
:100A10001081F768D6F818A0B7420CD0B0682169E9
:100A2000884223D3C168B14204BFB968B1421DD125
:100A3000C760B8601CE006F11400076837B906F11A
:100A400010000768A7B101E00846076807F1140124
:100A50000A68002A02BF07F110010A68002AF3D1D0
:100A60002169884202D30021016001E000F0DAFD33
:100A7000BAF1000F39D0F06904EB80004FF498719F
:100A8000084401688E4209D10760380014D1F26928
:100A90006068012191408843606026E020698245BA
:100AA00008D3DAF81000B04214BFCAF81470CAF8BC
:100AB000107001E000F0B6FDBFB12069874212D38B
:100AC000C7F818A0306930B12169884226BF386163
:100AD000876100F0A7FD706938B12169884202D3AF
:100AE0007861876101E000F09DFDBBF1100F09D234
:100AF00048F00300706006EB0800416841F0010116
:100B0000416095E049F0030070604BF001006860BF
:100B10004FEADB0045F80BB020281DD204EBC001E2
:100B200001F12807216821FA00F2D207BB4605D45B
:100B3000012202FA00F00843206006E0B86821694B
:100B400088422CBF834600F06DFDBD60CBF80C5091
:100B5000C5F808B0EF606BE05FEA1B2023D0B0F56A
:100B6000803F28BF1F201ED2A0F58071090C01F024
:100B700008018840A0F58052120C02F00402904057
:100B8000A0F580431B0CC1F10E0103F00203891A8A
:100B9000C91A984001EBD030C11D2BFA01F202F0C6
:100BA000010101EB400004EB80014FF49872114405
:100BB000E86100226A612A61626822FA00F3DB07B9
:100BC00006D4012303FA00F0104360600D601CE0BE
:100BD00009681F281DBF4008C0F119000BFA00F07A
:100BE000584600E011464A68D208D2005A4510D053
:100BF000C20F01EB820202F1100340001A68002AC2
:100C0000F0D12069834211D31D60A961ED60AD6010
:100C10000EE022698868914228BF904206D3C560E1
:100C20008D60A860E9600020A86101E000F0FAFC96
:100C300008E100F0F7FC02E12DE9F84F0446884690
:100C4000606841420840401E010B01F01001C8409D
:100C5000420902F00802D040830803F00403D840A0
:100C6000450805F002055118E8405918C0F3400640
:100C700029447118F040401804EB8000D0F830018E
:100C80004168C908C9000646A1EB080A09E0084600
:100C90004168C908C900A1EB080151453CBF8A461B
:100CA000064601690029F2D140690028F0D1206987
:100CB0008642C0F0C2807068C00808EB0A09C00014
:100CC000484518BF00F0AEFC06EB080B5E4580F00F
:100CD000B480F768B569B7420CD0B0682169884222
:100CE00023D3C168B14204BFB968B1421DD1C76006
:100CF000B8601CE006F11400076837B906F110006F
:100D00000768A7B101E00846076807F114010A68FF
:100D1000002A02BF07F110010A68002AF3D12169F5
:100D2000884202D30021016001E000F07BFC002D2D
:100D300035D0F06904EB80004FF4987108440168E5
:100D40008E4209D10760380011D1F2696068012133
:100D500091408843606022E02069854205D328697C
:100D6000B04214BF6F612F6101E000F05BFCB7B1CE
:100D70002069874211D3BD61306930B12169884251
:100D800026BF3861876100F04DFC706938B1216978
:100D9000884202D37861876101E000F043FCBAF138
:100DA000100F09D249F00300706006EB090041689A
:100DB00041F0010141603FE048F0030070604AF0FB
:100DC0000100CBF804004BF80AA0D4F808804FEAE1
:100DD000D805202D28BF00F025FCB8F1000F27D042
:100DE000D4F81490009504EBC50000F128052F46B7
:100DF000B8F1100F38BF00F015FC2068009920FAF8
:100E000001F2D10705D4009A0121914008432060E6
:100E100006E0A868216988422CBF074600F002FC62
:100E2000C5F80890C7F80C90C9F80870C9F80C50BC
:100E3000C4F808A0C4F814B004E000F0F3FB0020EC
:100E4000BDE8F28F06F10800BDE8F28F2DE9F04F02
:100E500083B00546AFF30080F52DDFF8C04780F082
:100E600002810B2D31BF102705F10B00C708FF00D1
:100E70002068FE08F04010F0030F42D0C04300F09D
:100E80000100861904EBC60000F12808F700D8F825
:100E900008506868C008C000B84218BF00F0C2FB24
:100EA000D5F80890454508BF00F0BCFB4D4508BF8C
:100EB00000F0B8FB6868C008C000B84218BF00F076
:100EC000B1FBC84505D120680121B14088432060AD
:100ED0000DE02069814508D3D9F80C00A84204D15F
:100EE000C8F80890C9F80C8001E000F09BFB47F0BF
:100EF00003006860E8190835416841F0010141606C
:100F0000F9E0A168B94280F0C080002800F0A2801A
:100F1000012505FA06F149004A42B0401143084054
:100F200041420840401E010B01F01001C840420937
:100F300002F00802D040830803F00403D8404608BA
:100F400006F002065118F0405918C0F34008711815
:100F5000414420FA08F000EB010804EBC80000F15E
:100F600028094FEAC80AD9F808607068C008C000AC
:100F7000504518BF00F056FBD6F808B04E4508BFE4
:100F800000F050FB5E4508BF00F04CFB7068C008E5
:100F9000C000504518BF00F045FBD94505D1206879
:100FA00005FA08F1884320600DE02069834508D3E5
:100FB000DBF80C00B04204D1C9F808B0CBF80C90B3
:100FC00001E000F02FFB47F003007060AAEB070878
:100FD000F019019048F0010001994860019840F82B
:100FE0000880A7684FEAD70ABAF1200F28BF00F09F
:100FF00019FB47B3CDF800A004EBCA00D4F8149055
:1010000000F1280AD346102F38BF00F00BFB2068F0
:10101000009920FA01F2D10705D4009905FA01F1EF
:101020000843206007E0DAF80800216988422CBFF5
:10103000834600F0F7FACAF80890CBF80C90C9F88C
:1010400008B0C9F80CA0C4F8088006F1080501989A
:10105000606150E06068C0B339462046FFF7ECFDA0
:10106000050012D047E015F1400F28BF4FF0FF37C1
:101070000BD205F10B00C7086068FF0028B13946A4
:101080002046FFF719FC050035D1A068B8421CD3F3
:10109000C11B626910290AD3D0196061A16041F0B7
:1010A00001034360415047F0030050600AE0002113
:1010B000A160616140F0030151601044416841F05A
:1010C0000101416002F1080515E0E06887420DD298
:1010D000C01BA169E060CA19A26140F00100506024
:1010E00001F1080547F00300486004E03946204656
:1010F000FFF718FA0546AFF30080284603B0BDE8B5
:10110000F08F00B970472DE9F047A0F10804AFF364
:101110000080DFF8085528698442C0F07982616850
:1011200001F00302012A00F07382CA084FEAC208E4
:10113000CA0704EB080937D4226811F0030F00F046
:10114000698251420C4484429044C0F061826969D2
:101150008C4200F0D980D608202E70D2D4F80CA092
:10116000A768544508BF00F05DFABC4208BF00F014
:1011700059FA6068C008C000B0EBC60F18BF00F095
:1011800051FA05EBC60000F128018F4205D029690C
:101190008F4251D3F968A1424ED1BA453DD128685A
:1011A0000121B140884328604C4580F03182D9F854
:1011B0000400C10740F12C82810700F17D81A969FB
:1011C000894540F0B680E868AC614044E86040F092
:1011D0000101616069698C4202D100216961A960E5
:1011E000E969814280F01682DFF83404006808B9AA
:1011F000FEF7ACFFA969002900F00C82E8682928F5
:1012000024BF2846FEF794FFE869E968884280F029
:1012100001824FF0FF30E861FCE12830824506D0C2
:101220002869824508D3DAF80800A04204D1C7F83B
:101230000CA0CAF80870B7E700F0F4F9B4E7E76863
:10124000A669A7420BD0A168814222D3C868A042F8
:1012500004BFB868A0421CD1CF60B9601BE004F1A4
:1012600014010F6837B904F110010F689FB101E054
:1012700011460F6807F114021368002B02BF07F133
:1012800010021368002BF3D1814202D300200860C2
:1012900001E000F0C7F9002E86D0E06905EB800080
:1012A0004FF49871084401688C4209D107603800F6
:1012B00011D1E2696868012191408843686073E751
:1012C0002869864205D33069A04214BF776137612F
:1012D00001E000F0A7F9002F3FF466AF28698742CC
:1012E000AAD3BE61216929B1814226BF39618F61CC
:1012F00000F098F9606900283FF456AF29698842E8
:101300009AD3786187614FE799F8040000F00300F1
:1013100003287FF449AFC5F80880D9F804004008D5
:101320004000C9F8040048F00100606044F80880FB
:1013300070E16969894508D1A8686C614044A8607A
:1013400040F001016160205064E1C008C0004FEA34
:10135000D00ABAF1200F804437D2D9F80C70D9F8EE
:101360000860B94508BF00F05DF9B14508BF00F05D
:1013700059F9D9F80400C008C000B0EBCA0F18BF73
:1013800000F050F905EBCA0000F128018E4207D0A9
:1013900029698E42C0F08380F168494540F07F8022
:1013A000B74206D12868012101FA0AF18843286072
:1013B00077E02830874205D0286987426FD3B86824
:1013C00048456CD1F760BE606BE0D9F80C70D9F875
:1013D00018604F450DD0D9F808002969884223D3F9
:1013E000C168494504BFB96849451DD1C760B860A7
:1013F0001CE009F11400076837B909F1100007680B
:10140000A7B101E00846076807F114010A68002A3D
:1014100002BF07F110010A68002AF3D12969884246
:1014200002D30021016001E000F0FCF8002E38D06A
:10143000D9F81C0005EB80004FF49871084401684E
:1014400089450AD10760380012D1D9F81C20686894
:10145000012191408843686023E02869864205D3D2
:101460003069484514BF7761376101E000F0DAF870
:10147000BFB12869874212D3BE61D9F8101029B1D3
:10148000814226BF39618F6100F0CCF8D9F8140091
:1014900038B12969884202D37861876101E000F0A0
:1014A000C1F848F00100606044F80880686984422F
:1014B0000BD1C5F80880ADE040084000C9F8040031
:1014C00048F00100606044F808804FEAD807202FF8
:1014D00022D205EBC70000F128094E46B8F1100FE3
:1014E00038BF00F09FF8286820FA07F1C90704D434
:1014F0000121B9400843286007E0D9F808002969AC
:1015000088422CBF064600F08DF8C9F80840F46008
:10151000A660C4F80C907DE05FEA182008BF0021A7
:1015200023D0B0F5803F28BF1F211ED2A0F58071C7
:10153000090C01F008018840A0F58052120C02F05D
:1015400004029040A0F580431B0CC1F10E0103F092
:101550000203891AC91A984001EBD030C11D28FA3C
:1015600001F202F0010101EB400105EB81004FF4B3
:1015700098721044002262612261E1616A6822FA75
:1015800001F3DB0706D4012303FA01F1114369607B
:1015900004601CE000681F291DBF4908C1F1190142
:1015A00008FA01F1414600E010464268D208D20034
:1015B000424510D0CA0F00EB820202F1100349002D
:1015C0001A68002AF0D129698B4211D31C60A061EE
:1015D000E460A4600EE02A698168904228BF9142CD
:1015E00006D3CC608460E060A1600020A06101E0CF
:1015F00000F018F8286A401E28620BD1D5F8C801FF
:1016000000E080680028FCD14FF0FF30286201E044
:1016100000F008F8AFF30080BDE8F087109A0020D2
:101620003CA40020012000F023B88268521C826094
:10163000426832B10268531C036011704168491E50
:10164000416070470749086808B1002070470648A4
:10165000C008C00008600549C908C900091A01602E
:10166000704700BF94A60020170A0020100A00202F
:1016700080B5AFF30080024A11001820ABBEFBE733
:10168000260002002DE9F04F82460FF25860A5B007
:1016900015461E46D0E90023CDE9122303AF0020F2
:1016A0007960B8620DF1500900E045440020ADF8C2
:1016B000020012AB4FF0FF3229460DF1020001F09B
:1016C000AEF88046B8F1010F08DA2878B0F10108C9
:1016D00068EB08086FEA08004FEAD078BDF802000E
:1016E00025280CBFA8F1010BC346BBF1010F0EDB8F
:1016F0002C4614F8011B7868D0470028786000F069
:10170000F880B86A401CBBF1010BB862F1D1BDF89A
:101710000200252807D1002038617861B861F8619E
:101720003862786205E00028BFD1B86AE2E240F092
:10173000010015F8011F2029F9D023290DD02B29EC
:1017400004D02D2906D030290AD00CE040F0020048
:1017500080B2EEE740F00400FAE740F00800F7E757
:1017600040F01000F4E72A290ED13168316051F8B9
:10177000042B3160002A3A6304D5514240F0040042
:10178000396380B26D1C13E0002139630BE0396BC3
:101790006FF00043994205D001EB810302EB430156
:1017A000303939636D1C2A78A2F130010A29EED351
:1017B00029782E2903D04FF0FF31F9621FE015F888
:1017C000011F2A2907D1316831606D1C51F8042BA3
:1017D0003160FA6213E00021F9620BE0F96A6FF000
:1017E0000043994205D001EB810302EB43013039FC
:1017F000F9626D1C2A78A2F130010A29EED3B8866D
:101800000FF2E840297801F01FF808B115F8010B34
:101810008DF842009DF84200682802BF29786829A7
:10182000622005D06C2804BF28786C2803D1712071
:101830008DF842006D1C14A8F86015F8014BB4F146
:1018400025002AD01C3800F0DB80001F022840F25F
:10185000D780133800F0FB80093800F0D180801E5B
:1018600000F06581401E00F03C81401E022840F2DD
:10187000C780001F00F03581401F00F09280401E9D
:1018800000F0E580401E37D0C01E0BD0801E00F057
:10189000DE80C01E00F0DB806CE125208DF850005A
:1018A000012070E19DF842006C283068306016D04D
:1018B00050F8048B3060C7F80880FC6A002C04D50F
:1018C000404600F0CDFF044607E022460021404696
:1018D00000F0E2FF08B1A0EB08047C6154E150F88D
:1018E000042B306002A9504600F03EFA002840F177
:1018F0004B814FF0FF30FDE131683160002251F83B
:10190000040B31604FF03C0E0021CDE9020114A818
:10191000B860DDE902019142FC6808BF904201D144
:10192000FA6AC2B100F00F033033DBB23A2BA8BF22
:101930002733AEF101020009A354964640EA017034
:1019400009090022914208BF904204D0BA6804EB12
:101950000E039A42E6D304EB0E01B960CEF13C00CF
:10196000F96A7861884207DA081AF8614FF6EF7170
:10197000B88E0840B88607E1002940F1058197F844
:10198000341001F01401102940F0FE80396B3A69DF
:10199000891AFA69891A081A0128C0F2F580F861D3
:1019A000F2E09DF8420062281AD0682806D06A2822
:1019B0000CD06C281CD0712808D019E03068306039
:1019C00050F8041B3060B86A0880DDE03068306091
:1019D00050F8042B3060B86AC117C2E90001D3E0A7
:1019E0003068306050F8041B3060B86A0870CBE093
:1019F0003068306050F8041B3060B86A0860C3E09B
:101A00003068C01D20F007023260D2E900010832C0
:101A10003260CDE90201002902D538692D2109E0A3
:101A2000B88E810702D538692B2103E0C00705D5A0
:101A30003869202109F80010401C386114A8396960
:101A40000844B860214602A800F09AFB9CE09DF88B
:101A500042006C280DD0712818BF6A2809D130685F
:101A6000C01D20F007023260D2E900010832326066
:101A700005E03168316051F8040B31600021CDE997
:101A800002019DF84200682803D1DDE9020180B21D
:101A90000BE0622803D1DDE90201C0B205E0742841
:101AA00018BF7A2804D1DDE902010021CDE9020145
:101AB00097F83400000731D5DDE902230020834286
:101AC00008BF82422AD044F02000782826D1386905
:101AD000302109F80010401C411C396109F8004010
:101AE0001CE09DF84200314600F007F9CDE9020103
:101AF000DDE9022300218B4202DA38692D2109E059
:101B0000B88E810702D538692B2103E0C00705D5BF
:101B10003869202109F80010401C386114A839697F
:101B20000844B860214602A800F0A4FA2CE09DF811
:101B300042006C2809D0012038613068306050F8CC
:101B4000041B30608DF850101EE03068306001AA30
:101B500050F8041B3060ADF804100020ADF806000A
:101B600002A94FF0FF30F862504600F0FDF800285F
:101B70000AD5BEE625208DF85000012038611CB141
:101B800089F8014002203861386B3969401AF969D7
:101B9000401A7969401A396A401AB969401A796A53
:101BA000A0EB010897F83400400711D42020B8F1C9
:101BB000010F8DF800000BDB444601236A4602A9A1
:101BC000504600F007FE00287FF493AE641EF4D167
:101BD000D7F810B0BBF1000F14AC0DD014F8011BF6
:101BE0007868D047002878603FF483AEB86A401C1C
:101BF000BBF1010BB862F1D130208DF80000FC6917
:101C0000012C0ADB01236A4602A9504600F0E2FDDE
:101C100000287FF46EAE641EF4D1D7F814B0BC680F
:101C2000BBF1000F0DD014F8011B7868D0470028D5
:101C300078603FF45EAEB86A401CBBF1010BB8623D
:101C4000F1D130208DF800003C6A012C0ADB012321
:101C50006A4602A9504600F0BDFD00287FF449AE57
:101C6000641EF4D1B8687969D7F818B04418BBF18C
:101C7000000F0DD014F8011B7868D0470028786059
:101C80003FF437AEB86A401CBBF1010BB862F1D12A
:101C900030208DF800007C6A012C0ADB01236A46A3
:101CA00002A9504600F096FD00287FF422AE641E83
:101CB000F4D197F8340040077FF5F8AC2020B8F154
:101CC000010F8DF80000FFF6F1AC01236A4602A96E
:101CD000504600F07FFD00287FF40BAEB8F10108FC
:101CE000F3D1E3E40000000000000000686A6C74B7
:101CF0007A4C000025B0BDE8F08F622826D0682815
:101D00001DD06A2808D06C2827D0712804D07428E8
:101D100023D07A280CD020E00868C01D20F00700EE
:101D20000860D0E900230830086019461046704763
:101D30000A680A6052F8040B0A60002170470A68BA
:101D40000A6052F8040B0A6000B20BE00A680A60ED
:101D500052F8040B0A6040B204E00A680A6052F8C4
:101D6000040B0A60C11770472DE9F44F0D4694B07B
:101D7000D5F830A0BAF1000F804648BF6FF0004A96
:101D800000F0B6FD696B401801900FF67820D0E99D
:101D90000023CDE9022395F83800400702D40198CA
:101DA000412805D240200DF110090190002609E0DC
:101DB000FFF74CF85FEA0009F8D14FF0FF3056E129
:101DC000AAEB040ABAF1010FC0F2CE801498018880
:101DD00002AA0DF1010000F090FD0028044600F178
:101DE000DE801498008810B9641E00F1D880A245E6
:101DF000C0F2BA80686901992218914280F0A280ED
:101E00006E634042296A401AA969401A696A401AF9
:101E1000E969401AA96A461A95F83800400710D4B3
:101E20002020012E8DF800000BDB374601236A4687
:101E30002946404600F0CEFC002840F0B0807F1ECE
:101E4000F4D1D5F814B0BBF1000F4F460DD017F800
:101E5000011BA868C0470028A86000F0A080E86ABD
:101E6000401CBBF1010BE862F1D130208DF800007D
:101E70002F6A012F0ADB01236A462946404600F0FB
:101E8000A9FC002840F08B807F1EF4D1D5F818B053
:101E9000EF68BBF1000F0CD017F8011BA868C04712
:101EA0000028A8607BD0E86A401CBBF1010BE86207
:101EB000F2D130208DF800006F6A012F09DB012379
:101EC0006A462946404600F085FC002867D17F1EFF
:101ED000F5D1E868A969D5F81CB04718BBF1000F27
:101EE0000CD017F8011BA868C0470028A86056D07E
:101EF000E86A401CBBF1010BE862F2D130208DF89A
:101F00000000AF6A012F09DB01236A4629464046DB
:101F100000F060FC002842D17F1EF5D195F8380012
:101F200040070DD52020012E8DF8000008DB01238D
:101F30006A462946404600F04DFC80BB761EF6D12D
:101F400000266E61224668690DF10101484400F0E7
:101F5000E1FC6869201868611498801C1490801E48
:101F6000008800287FF42CAF686B6969401A296AE1
:101F7000401AA969401A696A401AE969401AA96AAF
:101F8000A0EB010A95F83800400710D4BAF1010F10
:101F90000DDB5446A8682021C047A86010B94FF057
:101FA000FF365DE0E86A401C641EE862F2D16B69AE
:101FB0004A462946404600F00DFC0028EFD12C6A25
:101FC000012C0ADBA8683021C0470028A860E6D0B1
:101FD000E86A401C641EE862F4D1AB69EA682946ED
:101FE000404600F0F7FB0028D9D16C6A012C0ADBCF
:101FF000A8683021C0470028A860D0D0E86A401CFB
:10200000641EE862F4D1E868A969EB6942182946C0
:10201000404600F0DFFB0028C1D1AC6A012C0ADB8E
:10202000A8683021C0470028A860B8D0E86A401CE2
:10203000641EE862F4D195F8380040070ED5BAF175
:10204000010F0BDBA8682021C0470028A860A6D09C
:10205000E86A401CBAF1010AE862F3D16E616E636E
:1020600004A881451CBF4846FFF74BF8304615B021
:10207000BDE8F08F2DE9F343054608462F696F2828
:1020800008BF082405D041F02001782914BF0A2494
:1020900010243C26D5E90023642818BF69289046FF
:1020A000994606D100218B4203DAD8F1000869EB8A
:1020B00049090020814508BF80450CD1286B50B9E3
:1020C000082C38D195F83800000734D530203B264D
:1020D00087F83B002FE0701E0090064640464946B8
:1020E0002246E31700F052FC02F13000C0B23A2859
:1020F00003DB9DF8041051390818B855494640468D
:102100002246E31700F042FC8046894600208145C4
:1021100008BF804503D0E868B9198842DBD3082C92
:1021200009D195F83800000705D5B85D302802D0F0
:10213000761E3020B855B919E960C6F13C00296B0C
:10214000A861884208DA081A28624FF6EF71288FD2
:1021500008402887BDE8F38300290ED595F838108C
:1021600001F01401102908D1696B6A69891A2A6A79
:10217000891A0E1A012EA8BF2E62BDE8F383000053
:102180002DE9F24F04468EB0D4E90001CDE90201F9
:1021900004AF9DF8380040F0200BBBF1610F0AD06E
:1021A000206B002848BF062004D408BFBBF1670F8E
:1021B00001D1012020636168C1F30A5040F2FF722F
:1021C00090421CD1080304BF2068002809D10320D5
:1021D000A0619DF8380061381A2835D30FF23861B4
:1021E00008E00320A0619DF8380061381A2828D340
:1021F0000FF21C61E068032200F08CFBBDE10128B6
:1022000015DA204600F039FC012810DB00250020FB
:10221000BBF1610F1FD1E16830220A708A1CE260B5
:102220009DF83820612A0CBF782258220FE062689E
:1022300040F2FE3161F31E52451A62604FF0FF30EA
:10224000E6E70FF2C851D5E70FF2C851D2E74A705E
:102250006169891C616110B90026002584E1BBF128
:10226000610F40F09880206BD4E900AB00284CBF90
:102270002126461CDDE902010022002300F020FC9B
:1022800036B23ABF8BF00040CDE902A0CDE902ABF7
:1022900006F101082D1FB8F1010F8DF810200DF186
:1022A000110736DBDDE902010022002300F020FCEB
:1022B0002FD21C2102A800F033FCDDE9020100F05E
:1022C000B5FCA8F10708B8F1010F814609DB00F061
:1022D000D9FC02460B46DDE9020100F0EBFCCDE93A
:1022E0000201F81D072105E009F00F0200F8012D99
:1022F0004FEA2919B9F1010F01DB491EF4D5491E36
:102300005CBF002200F8012DF9D5C71DB8F1010FFF
:10231000C8DA0DF11100391AB142B8BF0E4636B213
:1023200030000DF111072FD4884206DA04A90144C8
:1023300049780829A8BF0F2100DA002104AA024425
:1023400000E0761E12F80139401E8B42F9D00F29A9
:1023500004D104A901444A78521C4A70002802D5CD
:1023600004AF761C2D1D36B2701E0DD439180A78B4
:102370003032D2B23A2A03DB9DF838303A3B9A1811
:10238000401E01F80129F2D5206B002840F1EC80B5
:10239000701E2063E8E0DDE902010022002300F066
:1023A0008FFB3CBF81F00041CDE902012DB247F225
:1023B000975068434B49DFF8309190FBF1F52DB20F
:1023C000C5F1070ABAF1010F90461CDBDDE902678F
:1023D0005FEACA7007D542464B463046394600F0A0
:1023E00029FD06460F464046494642464B464FEABF
:1023F0006A0A00F01FFDBAF1000F80468946E7D156
:10240000CDE9026724E0CAF1000A0026374F14E044
:102410005FEACA7007D542464B463046394600F05F
:1024200009FD06460F464046494642464B4600F0E7
:1024300001FD4FEA6A0A80468946BAF1000FE7D1EA
:10244000DDE9020132463B4600F0C6FDCDE902015E
:10245000BBF1660F216BDFF898900CBF05F10A0005
:1024600006204618142EA8BF132630208DF8100021
:102470000DF11107012E3DDBDDE9020100F0ECFB5F
:1024800007F1080104220A23B0FBF3F303EB8307EF
:10249000A0EB4700303001F8010C0A20B3FBF0F04C
:1024A00000EB8007A3EB47033033521E01F8023DD7
:1024B000E9D1083E012E01F10807DBDBDDE902016D
:1024C00000F0CAFB00F0E8FB02460B46DDE9020122
:1024D00000F0F0FB00224B4600F0ACFCCDE902011D
:1024E000CAE700BFA0860100000024400000F03FC2
:1024F00084D797410DF11100381A0DF1110702E050
:10250000401E6D1E7F1C39783029F9D0BBF1660F53
:1025100008BF691C04D0BBF1650F0CBF012100216D
:10252000226B8E1836B2B042B8BF064636B23100C2
:102530001AD4814204DA785C3528A8BF392000DA41
:1025400030207A18521E00E0761E12F80139491E1A
:102550008342F9D0392802D1785C401C7854002994
:1025600002D57F1E761C6D1C2DB29DF8381000958B
:1025700033B23A46204600F003F80FB0BDE8F08FC2
:102580002DE9F04786B006468A4690461D4600F083
:102590006CFE012D406A376B90F8009002DA01253D
:1025A0000FF278284AF02000BDF93840662808BFAD
:1025B000641C12D0672878D114F1040F7BDBBC4275
:1025C00079DA96F83800641C000702D4BD42B8BF1F
:1025D0002F4624B23F1B48BF002724B2F068B169E0
:1025E000012C23DA4A1C30234354012F03DA96F8D6
:1025F0003800000703D5F06800F80290521CE7424B
:10260000B8BF7C4224B260427062E719AF42B26147
:10261000B8BF3D46F068B3692DB2F5612A46414620
:10262000184400F077F9781BB062BCE0224695426E
:10263000084416DA2A46414600F06CF9B169691877
:10264000601B012FB161706203DA96F83800000751
:1026500005D5F06800F80190F069401CF061B762A0
:10266000A1E0414600F056F9B06920182D1B012F5A
:1026700003DA96F83810090703D5F16801F80090DD
:10268000401CB0612DB2AF42B8BF3D46F068B3699F
:102690002DB22A4608EB0401184400F03BF9B0695A
:1026A0002818B061781B70627DE0BAF1610F14D117
:1026B0004FF0700A16E0BD4204DA96F838100907A8
:1026C00058BF2F467F1E48BF0027BAF1670F14BFBF
:1026D0004FF0450A4FF0650A04E0BAF1410F08BF18
:1026E0004FF0500AB169F368481CB061012F18F827
:1026F000012B5A5403DA96F83810090717D5F168F8
:10270000431CB36101F80090012F10DB6D1E2DB248
:10271000AF42B8BF3D46F0682DB22A464146184444
:1027200000F0F8F8B0692818B061781B7062F068A2
:10273000B1690144200081F800A004D42B20487026
:1027400001F1020804E02D224A7001F102086442FE
:10275000002502AF08E00A22684600F09FFD0198BC
:1027600007F8010B6D1C009C21B20129F3DA022D40
:1027700006DA4AF02000652804BF302008F8010B73
:102780004DB9302008F8010B07E06D1E02A8405D2E
:10279000303008F8010B012DF7DAF068B169084410
:1027A000A8EB0000F06196F8380000F01400102843
:1027B0000DD17069B1690818716A0818F1690818B3
:1027C000B16A0818716B8842BCBF081A306206B043
:1027D000BDE8F087F8B504460D4616461F460020B2
:1027E00077B116F8011BA868A047A86030B1E86A65
:1027F000401CE86200207F1EF3D1F2BD4FF0FF3095
:10280000F2BD000000000000000000006E616E00DC
:102810004E414E00696E6600494E46003000F8B5E4
:1028200004460D4616461F4600F049FD3B4632461B
:102830002946204601B0BDE8F04000F056BD0268D0
:10284000531C0360117070470278C9B28A421AB1F2
:102850001CBF10F8012FF9E718BF002070470102D4
:1028600000F10103810704D010F8011B89B1810731
:10287000FAD10268B2F10131914311F0803F04BFF7
:1028800050F8042FF6E710F8011B11B110F8011BE6
:10289000FBE7C01A70470000C9B2830706D0521E7A
:1028A00022D310F8013B9942F7D11FE0083A13D325
:1028B00002F1040241EA012141EA014150F8043BDE
:1028C000121F21BF4B40A3F1013C2CEA030C1CF06A
:1028D000803FF3D0C9B2001F083210F8013B521EEE
:1028E00028BF91EA030FF8D818BF0120401E704797
:1028F00080B500F0E4FC012002BD70B504460D4631
:10290000164600F0DCFC324629462046BDE8704001
:1029100000F0DEBC62B38B0708D0521E11F8013BF9
:1029200000F8013B00F024808B07F6D1830740F0CC
:10293000208000BF103A07D330B4B1E83810103A05
:10294000A0E83810F9D230BC530724BFB1E8081012
:10295000A0E8081044BF51F8043B40F8043BD207FC
:1029600024BF31F8022B20F8022B44BF0B780370F0
:102970007047083A07D3B1E80810083A40F8043B1A
:1029800040F804CBF7D25307E4E700001B4213D111
:10299000094236D12AB18446B0FBF2F002FB10C2E4
:1029A000704700F0C5BCFCD30022002370470B0029
:1029B0000200002100207047904271EB030CF6D317
:1029C00070B5B1FA81F4B3FA83F52C1BA340C4F1BE
:1029D000200532FA05F63343A2405FF00046E64098
:1029E00002E05B085FEA3202841A71EB030524BF40
:1029F000204629467641F4D302000B003000002126
:102A000070BD012ACFD970B5140C20D0B1FA81F471
:102A1000B2FA82F5C4F120046419B4F12006D6D3C9
:102A2000B2405FF00044F440002502E052085FEA43
:102A30003303C61A71EB020E24BF3046714664415F
:102A40006D41F3D302000B002000290070BD0C463D
:102A5000B1FBF2F102FB11452D0445EA1045B5FB2F
:102A6000F2F402FB145580B240EA0545B5FBF2F0E2
:102A700002FB105240EA044070BD30B4436803F0DA
:102A800000420121C3F313034360002B04BF03681A
:102A9000002B08D10DE00368DD0F45EA44044460D3
:102AA0005B000360491E4468E302F4D5C4F31303DA
:102AB000436043681A434260084630BC70470000D8
:102AC0004FF4001C1CEB410F94BF1CEB430F09E0BB
:102AD00041EA030C50EA4C0C52EA0C0C03D2994226
:102AE00008BF9042704714BF8B428242704700007B
:102AF0004FF4001C1CEB410F94BF1CEB430F09E08B
:102B000041EA030C50EA4C0C52EA0C0C03D28B4203
:102B100008BF8242704714BF99429042704700003C
:102B200070B504460D466068C0F30A5040F2FF716C
:102B3000884207D16068000304BF2068002817D0CE
:102B4000022070BD20B92046FFF797FF012866DA02
:102B5000012D0FDB40F2FF71091A8D420AD3606824
:102B6000002847BF00202F4900202F49C4E9000159
:102B7000012070BD4142A942616806DA6FF31E511F
:102B8000401941EA0050606040E0401E636845190A
:102B9000012205F1350062F31F53352801F0004191
:102BA000636003D361600020206070BD002015F1D8
:102BB0001F0F04DA206823600022203562606A4219
:102BC00012D0401E25688041C2F12003C0439D40C1
:102BD00045EAD07025686668D54006FA03F32B43B2
:102BE00023606368D340636062680A43B0F1004FBA
:102BF000626003D80DD12078C0070AD52068401C38
:102C00002060206828B96068401C60604FF0FF3089
:102C100070BD6068884204BF20680028F6D100209B
:102C200070BD00BF0000F0FF0000F07FF446400DD3
:102C300040EAC120490006D200F014F8004248BF23
:102C40006FF00040604700F00DF84FF000418842FF
:102C50008CBF084640426047400D40EAC120490011
:102C600080F00D8040F00040490DA1F58061491CC5
:102C700005D4D1F11F0154BFC840C01770474FF0B1
:102C800000007047010040F10980F446404200F026
:102C900005F851F000416047010000BF09D0B0FACB
:102CA00080F18840C91CC1F58461090501EBD02180
:102CB00040057047F0B44FF0004591EA030F44BF60
:102CC0006B4000F037BB00BF841A71EB030604D2DF
:102CD0006E40001BB141121973414FF4001C1CEBF4
:102CE000410F34BF7CEB430684E00C0DA4EB13567C
:102CF000362E7DDC012E43DC45EAC32343EA5253E2
:102D000012BFD20292025B08240545EAC12141EAC2
:102D10005051D2EBC020994125D407D1B0FA80F6AA
:102D200010FA06F164D00020203608E0B1FA81F6EE
:102D3000B140C6F1200220FA02F21143B0404FEA3E
:102D4000F474B4EB465434F001064FEA74040AD824
:102D5000D6F50016760D04F00044F04061FA06F254
:102D60005040F1404840C00A40EA415021F0004143
:102D700028BF5FEA500550F1000044EBD12137E055
:102D800045EAC323DB0A45EAC121C90AB6F1200599
:102D90000EDD42EA0242120CC5F1200603FA06F6E5
:102DA000EB4042EA06056D42984161F100010DE0F9
:102DB00062FA06F5F240554063FA06FC82EA0C021C
:102DC000F3405A406D42904161EB030111F4801FC2
:102DD00005D1641E620502D06D004041494121F4D5
:102DE0008011430875F1004350F1000041EB04519C
:102DF000F0BC70471CEB410F15D223F0004352EAA0
:102E000043060BD04FEA4C0CBCEB410F04D80C0D21
:102E1000661E342EB7DDEBE7801A994150EA410671
:102E200008BF0021E4E708BF1CEB430F28BF6FF089
:102E30000001DDE7B0B581EA030C0CF0004C40F274
:102E4000FF7515EA11541DBF15EA1357AC42AF4286
:102E500039E0E41923EA455343F48013C90241F0F1
:102E6000004141EA505EC7021100A7FB02020028A0
:102E70004FF00000EEFB01204FF00001E3FB0721C3
:102E800018BF42F00102401800214941E3FB0E0146
:102E9000A4F580640F0302D252004041494154F12D
:102EA00001046CDD470872F1004250F1000051EB63
:102EB0000451A1F580115CBF41EA0C01B0BD4CEAA0
:102EC00005510020B0BD05EA1357AC4214BFAF4214
:102ED00041E050EA410E1CBF52EA430E02E0614657
:102EE0000020B0BD24423C441BD15FEA070EF6D05F
:102EF000090302BF01460020AEF1140EB1FA81F7BA
:102F0000AEEB070401FA07FE0C37C7F1200100FA07
:102F100007F7C8404EEA000E23EA455343F48013F6
:102F2000A2E733F00043B3FA83F704BFB2FA82FE9C
:102F300077440B3FE41BB7F1200E2FBF02FA0EF3CC
:102F4000BB40C7F1200E22FA0EFE38BF43EA0E0343
:102F5000BA40641C82E750EA410E14BF52EA430EA5
:102F60006FF000014FF4001717EB430F8ABF1946AB
:102F700017EB410FB5E74CEA05510020B0BDD4F185
:102F80000104B4F120070FDAC4F12007520828BF6A
:102F900042F0010210FA07F501FA07F7E1BF2A43F0
:102FA000E0403843E1400FE0352C98DCC7F12004C5
:102FB00052EA400220FA07F218BF42F0010231FA49
:102FC00007F0A1400A43002172F1004250F10000D5
:102FD00051EB0C01B0BD00002DE9F04140F2FF754E
:102FE00081EA030C0CF0004C15EA11541DBF15EAE0
:102FF0001357AC42AF42E9E0BC41C1F31301C3F344
:103000001303801A994143F4801304D2641E4000D4
:10301000494180185941C90241EA5051B1FBF3F6C8
:1030200003FB1611A2FB0675D7EBC020A94102D203
:10303000761E80185941C90241EA5051B1FBF3FE96
:1030400003FB1E11A2FB0E75D7EBC020A94103D2D2
:10305000AEF1010E80185941890241EA905176057E
:1030600046EA8E2EB1FBF3F603FB1611A2FB0675A2
:10307000D7EB8020A94102D2761E80185941C9029F
:1030800041EA50514EEA060EB1FBF3F603FB16116E
:10309000A2FB0675D7EBC020A94102D2761E80188C
:1030A0005941C90241EA5051B1FBF3F703FB171133
:1030B000A2FB0735D3EBC020A94167F100070CBF85
:1030C000004247F0010766F3D5274FEA1E31B808E2
:1030D00014F5806414DDBD0775F1004250EB0E500D
:1030E00051EB045111F5801F5CBF41EA0C01BDE8B2
:1030F000F0814CF07F6141F0E0410020BDE8F081BB
:10310000BD076D0840EA0E5041F48011D4F101046E
:10311000B4F120060ADAC4F120060200E04001FA08
:1031200006F3E1401843B24015430EE0342C14DCA2
:10313000C6F1200445EA40056D0820FA06F2154361
:1031400021FA06F0A1400D43002175F1004250F133
:10315000000051EB0C01BDE8F08100205FEA0C019A
:10316000BDE8F081CFB992185B41B3FA83F704BF91
:10317000B2FA82F6BF190B3FB7F120062FBF02FA51
:1031800006F3BB40C7F1200622FA06F638BF3343E8
:10319000BA401CB1E419641E2FE77F4231F00041B0
:1031A000B1FA81F404BFB0FA80F6A4190B3CB4F173
:1031B00020062FBF00FA06F1A140C4F1200620FA34
:1031C00006F638BF3143A0403C1B16E7AC421ABF9D
:1031D00005EA1357AF4214E050EA41061CBF52EA19
:1031E0004306BFE750EA4107304661461CBF41EA4B
:1031F0000551BDE8F08152EA430C08BFC143BDE868
:10320000F08100204FF4001616EB410F98BF16EB2B
:10321000430F08BF16EB410F24BFC14305E016EB77
:10322000430F0CBF61464CEA0551BDE8F081000038
:1032300080B5134800F0E8F80FF24C020FF2440199
:103240000160426241600FF24402826381600FF2CA
:103250004402C1600161416181618162C1620163B7
:103260004163C2630164416401BD10B5044800F0CC
:10327000CBF80446206808B9FFF7DAFF204610BDF6
:1032800080010020000000002E00000066616C73C9
:1032900065000000747275650000000091FBF2F398
:1032A00003FB1211C0E900317047000010B504465D
:1032B000DFF8180000F0A8F850F8240010BD80B521
:1032C000DFF8080000F0A0F8806902BD14010020BA
:1032D00030B430B90FF24800D0E90045C2E90045EA
:1032E0001BE00170012030BC704730B431B90FF2DF
:1032F0003800D0E90045C3E900450EE01AB930BCFA
:103300006FF00100704708B10A7802800978481E02
:10331000804130BCC043C00F7047002030BC7047B4
:10332000000000000000000000000000000000009D
:1033300070470000841A71EB030603D2001BB141F1
:10334000121973414FF4001C1CEB410F34BF7CEB8E
:10335000430443E00C0DA4EB1356352E50DC45EA34
:10336000C323DB0A45EAC121C912B6F120050DDDF0
:1033700063FA05F6EB4086EA0305124218BF45F0F2
:103380000105C01851F100010CD213E062FA06F5F4
:10339000F2405540F3415A40B340F3405A40801840
:1033A000594107D349085FEA30005FEA350528BF75
:1033B00045F0010501F58011420875F1004250F118
:1033C000000041EB0451F0BC4FF4001C1CEB410F1A
:1033D00038BF70470020090D090570471CEB410FED
:1033E00010D252EA43060BD0BCEB410F05D80C0DAE
:1033F000AB43661E342EB5DD02E0AB438018594165
:10340000F0BC7047F0BC70477047000070B5040016
:103410002000FFF725FA401C05002800DFF8E01423
:10342000096888470600002E01D1002005E02A0027
:1034300021003000FFF76EFA300070BD70B5282013
:10344000DFF8BC14096888470400002C06D0282542
:10345000002632002900200000F060FF200070BD2F
:1034600038B50400002C27D020680500E068C005AE
:1034700005D4A068002802D0A068FFF7F1FFE0683B
:10348000C00507D42069002804D02069DFF8BC15E6
:1034900009688847E068800507D4206A002804D0BE
:1034A000206ADFF8A815096888472000DFF89C1516
:1034B000096888472C00D5E731BD401E50EA6000FE
:1034C00050EAA00050EA201050EA202050EA2040A4
:1034D000401C70472DE9F84304000F00002C02D077
:1034E0002068002801D1002033E0A068C719606877
:1034F000B84203DB2068A16808442AE03800FFF7DF
:10350000DCFF06003000DFF8F81309688847050083
:10351000002D0AD12068DFF834150968884700209B
:10352000606000202060002013E0002D08D0D4F857
:103530000480D4F80090424649462800FFF7EAF993
:103540002068DFF808150968884766602560A0686C
:103550002844BDE8F28338B50400002C02D020686E
:10356000002801D1002008E02068A1680844050077
:103570002800FFF775F9A168401832BD2DE9F04128
:1035800080460E000027D8E90645002000212200D1
:103590002B0000F0F7FE15D1002E05D002213000DF
:1035A000FFF798FF070005E00220DFF854130968D1
:1035B00088470700002F00F092804BA1380000F0F0
:1035C000F1FE8CE0D8F81400FFF75CFB22002B0022
:1035D000FFF770FB31F000410122DFF82037FFF7E1
:1035E0006FFA27D220002900DFF81427DFF81437FC
:1035F000FFF766FA1ED2200029000022DFF8083704
:10360000FFF776FA16D8002E05D015213000FFF707
:1036100061FF070005E01520DFF8E412096888471C
:103620000700002F5BD0D8F8142030A1380000F03C
:10363000DBFE54E0002E05D040213000FFF74AFFAA
:10364000070005E04020DFF8B81209688847070046
:10365000002F44D02000290000F0E0FE22002B00C3
:10366000FFF728FB31F000410122DFF89036FFF729
:1036700027FA12D22000290031F00041DFF890260D
:10368000DFF89036FFF71CFA07D222002B00DFF894
:103690008816380000F0A8FE21E02000290031F053
:1036A0000041DFF87826DFF87836FFF709FA09D30A
:1036B0002000290031F000410122DFF86836FFF7D1
:1036C00017FA06D822002B0009A1380000F08CFE62
:1036D00005E022002B0007A1380000F085FE38002D
:1036E000BDE8F0810000000030000000256400000B
:1036F00025650000256600002DE9F84F04000D0047
:103700005FF000095FF0000A26003078002812D030
:103710003078002802D03078202805DB3078222845
:1037200002D030785C2801D1012000E0002050EA6E
:103730000A0A761CE9E7BAF1000F26D1301B814650
:10374000002D06D019F103012800FFF7C3FE8046C3
:1037500005E019F103006A49096888478046B8F115
:10376000000F01D10020B6E04746222038707F1CB0
:103770002100380000F016FE222007F80900002082
:1037800007EB090148704046A5E0002C17D1002D39
:1037900005D003212800FFF79DFE804604E00320AA
:1037A0005749096888478046B8F1000F01D10020C9
:1037B00091E052A1404600F0F5FD40468BE0260026
:1037C00030788346C0B2002819D019F10109B9F147
:1037D000000F14D05FFA8BFB5946DFF84C05FFF75A
:1037E00033F8002802D019F1010906E05FFA8BFBDB
:1037F000BBF1200F01DA19F10509761CE0E7002D75
:1038000006D019F103012800FFF764FE804605E0A9
:1038100019F103003A49096888478046B8F1000F5A
:1038200001D1002057E047462600222038707F1C37
:103830003078002848D0307820280ADB30782228D9
:1038400007D030785C2804D030783870761C7F1C24
:10385000EEE75C2038707F1C3078761C8346C0B25F
:10386000082813D0092821D00A2817D00C2811D0F5
:103870000D2817D0222805D05C281BD15C20387079
:103880007F1CD5E7222038707F1CD1E7622038707A
:103890007F1CCDE7662038707F1CC9E76E2038702A
:1038A0007F1CC5E7722038707F1CC1E77420387018
:1038B0007F1CBDE75FFA8BFB5A46DFF860193800C2
:1038C00000F092FD7F1DB3E7222038707F1C00209E
:1038D00038707F1C4046BDE8F28F38B504000D00FB
:1038E00029002069FFF708FF32BD10B5040000234E
:1038F00000220021200000F005F810BD2222000067
:10390000000000202DE9F04104000D0016001F000A
:103910005FF00008002C01D1002095E0002F55D069
:10392000207B00F0FF00C0B2002817D0022807D08B
:1039300022D3042834D02DD306283FD036D382E0BA
:1039400005213800FFF7C6FD8046B8F1000F04D00E
:10395000DFF86419404600F025FD74E006213800C8
:10396000FFF7B8FD8046B8F1000F04D0DFF84C191E
:10397000404600F017FD66E005213800FFF7AAFD7C
:103980008046B8F1000F04D0DFF83419404600F04B
:1039900009FD58E039002000FFF7F0FD804652E0B5
:1039A00039002000FFF799FF80464CE03B003200D1
:1039B0002900200000F04CF8804644E03B00320033
:1039C0002900200000F0B2F980463CE0207B00F0A6
:1039D000FF00C0B200280FD0022807D012D304285D
:1039E0001CD015D3062827D01ED32CE0DFF8C8083A
:1039F000FFF70CFD804626E0DFF8C008FFF706FD64
:103A0000804620E0DFF8B808FFF700FD80461AE0A6
:103A100000212000FFF7B2FD804614E000212000C5
:103A2000FFF75BFF80460EE00023320029002000F4
:103A300000F00EF8804606E0002332002900200046
:103A400000F074F980464046BDE8F0810400002093
:103A50002DE9F34F87B014001D0000275FF0050922
:103A60000798D0F808A000265FF0000B0020019016
:103A700000200390BAF1000F03D0761CDAF800A002
:103A8000F8E7002E15D1002D05D003212800FFF7FF
:103A900021FD070005E00320DFF8181809688847B2
:103AA0000700002F03D099A1380000F07BFC3800FC
:103AB00021E1002D67D0A868834601212800FFF787
:103AC00009FD8046B8F1000F01D1002013E15B2011
:103AD00088F80000A868401CA860079880688246A3
:103AE000BAF1000F39D00198002836D12B002200FE
:103AF0000898411C5046FFF705FF2800FFF72BFDF3
:103B0000A860DAF80000002824D0002C02D05FF072
:103B1000020901E05FF0010919F101012800FFF736
:103B2000D9FC8046B8F1000F01D10020E3E02C2041
:103B300088F8000018F10108002C04D0202088F833
:103B4000000018F10108002088F80000A86819EBAF
:103B50000000A860DAF800A0C2E702212800FFF701
:103B6000B9FC8046B8F1000F01D10020C3E05D2010
:103B700088F8000018F10108002088F80000286883
:103B800058440700B6E0B000DFF8281709688847F6
:103B900000900098002801D10020ACE0B000069011
:103BA0000020059000980290059A0699029800F06E
:103BB000B5FB0298079880688246BAF1000F26D0BC
:103BC0000198002823D1002322000898411C504668
:103BD000FFF798FE04900498009941F82B001BF120
:103BE000010B049800280DD00498FEF739FE002C34
:103BF00001D0012100E0002110EB0900081810F1AC
:103C0000020901E001200190DAF800A0D5E701984F
:103C1000002805D14846DFF89C1609688847070048
:103C2000002F01D1012001900198002819D0002017
:103C30008346B3450EDA009850F82B00002806D0D2
:103C4000009850F82B00DFF87C16096888471BF1B4
:103C5000010BEEE70098DFF86C1609688847002032
:103C600049E05B203870781C8046002088F800000E
:103C700000208346B3452EDA009850F82B00FEF75B
:103C8000EFFD039003980290009850F82B000590E8
:103C9000029A05994046FEF73DFE03988044701E47
:103CA00083450ED02C2088F8000018F10108002C64
:103CB00004D0202088F8000018F10108002088F8BE
:103CC0000000009850F82B00DFF8F81509688847C5
:103CD0001BF1010BCEE70098DFF8E815096888476B
:103CE0005D2088F8000018F10108002088F8000025
:103CF00018F10108380009B0BDE8F08F0000B03CB1
:103D00000100C0FFFFFFDF410000E0C15B5D00007C
:103D100044F3C2E4E4E9634CE80B01088DEDB5A07F
:103D2000F7C6B03E65CDCD41F00B01082DE9F14F4E
:103D30008EB00E0014001D000020009000200290A4
:103D40000020019007275FF000090E98D0F8088046
:103D5000002003900020059000200690B8F1000F8D
:103D600005D00398401C0390D8F80080F6E703982C
:103D7000002841D1002D09D0002C01D0311D00E0D8
:103D800003212800FFF7A6FB019009E0002C01D0D9
:103D9000301D00E00320DFF81C15096888470190FA
:103DA0000198002801D1002035E2019882467B204D
:103DB0008AF800001AF1010A002C11D00A208AF8B2
:103DC00000001AF1010A00208146701E814507DAC1
:103DD00009208AF800001AF1010A19F10109F4E733
:103DE0007D208AF800001AF1010A00208AF80000FC
:103DF0001AF1010A01980EE2002D00F0CF80A868A8
:103E00008146002C01D0022700E00127791C280000
:103E1000FFF760FB8246BAF1000F01D10020FAE102
:103E20007B208AF800001AF1010A002C04D00A2035
:103E30008AF800001AF1010A00208AF80000A86838
:103E40003818A8600E9880688046761CB8F1000F7C
:103E50007BD0002C18D031002800FFF73BFB8246B6
:103E6000BAF1000F01D10020D5E100208346B3450F
:103E700007DA09208AF800001AF1010A1BF1010B88
:103E8000F5E7A8683018A8602900D8F82000FFF7E7
:103E900033FC2800FFF75FFBA860002C01D002274D
:103EA00000E0012739002800FFF714FB8246BAF131
:103EB000000F01D10020AEE13A208AF800001AF18B
:103EC000010A002C04D009208AF800001AF1010A26
:103ED000A8683818A8602B00220031004046FFF780
:103EE00011FD2800FFF737FBA860002C01D001204E
:103EF00000E00020D8F80010002901D0012100E0E6
:103F000000210F18791C2800FFF7E4FA8246BAF165
:103F1000000F01D100207EE1D8F80000002804D075
:103F20002C208AF800001AF1010A002C04D00A2083
:103F30008AF800001AF1010A00208AF80000A86837
:103F40003818A860D8F8008080E7002C01D0711CD8
:103F500000E002212800FFF7BDFA8246BAF1000F07
:103F600001D1002057E1002C0CD000208146701EAA
:103F7000814507DA09208AF800001AF1010A19F1CF
:103F80000109F4E77D208AF800001AF1010A0020F7
:103F90008AF800002868484401903BE103988000BB
:103FA000DFF810130968884700900098002801D1B5
:103FB000002030E103988000DFF8F8120968884794
:103FC00002900298002806D10098DFF8F8120968DC
:103FD000884700201FE1039880000C9000200B9080
:103FE000009804900B9A0C99049800F097F90498A3
:103FF000039880000A900020079002980490079A86
:104000000A99049800F08AF904980E98806880460E
:10401000761C002C00D0F719B8F1000F31D0002128
:10402000D8F82000FFF768FB0890029941F82900B2
:104030000023220031004046FFF764FC09900099FC
:1040400041F8290019F101090898002814D00998AD
:10405000002811D00998FEF703FC04900898FEF799
:10406000FFFB002C01D0B11C00E00021049AD21902
:1040700080180818871C01E001200590D8F80080FE
:10408000CAE70598002804D138008A49096888479A
:1040900001900198002801D1012005900598002881
:1040A00027D0002081460398814518DA029850F8FD
:1040B0002900002805D0029850F829008149096894
:1040C0008847009850F82900002805D0009850F83B
:1040D00029007C490968884719F10109E3E702983A
:1040E0007849096888470098764909688847002018
:1040F00091E07B20019908700198401C8246002CB9
:1041000004D00A208AF800001AF1010A00208AF877
:10411000000000208146039881455ADA002C0BD01C
:1041200000208346B34507DA09208AF800001AF117
:10413000010A1BF1010BF5E7029850F82900FEF780
:104140008FFB069006980490029850F8290007907B
:10415000049A07995046FEF7DDFB069882443A2000
:104160008AF800001AF1010A002C04D009208AF80C
:1041700000001AF1010A009850F82910504600F08A
:1041800011F9009850F82900FEF76AFB8244039861
:10419000401E814504D02C208AF800001AF1010A43
:1041A000002C04D00A208AF800001AF1010A00202D
:1041B0008AF80000029850F82900424909688847A7
:1041C000009850F829003F490968884719F101090A
:1041D000A1E702983B49096888470098394909686E
:1041E0008847002C0CD000208146701E814507DADC
:1041F00009208AF800001AF1010A19F10109F4E70F
:104200007D208AF800001AF1010A00208AF80000D7
:104210001AF1010A01980FB0BDE8F08FF80B010800
:1042200001604860704770B504000D00A668002D5D
:104230000ED0002E01D1A5600AE0002E04D0306817
:10424000002801D03668F8E729003000FFF7E8FFC2
:1042500070BD70B504000D001600002E0ED0306A3F
:10426000002803D0306A1749096888472800FFF7FB
:10427000CDF8306231002000FFF7D5FF70BD70B57A
:1042800004000D001600002E12D0F068800506D440
:10429000306A002803D0306A0A49096888473562C5
:1042A000F06850F40070F06031002000FFF7BBFFB1
:1042B00070BD000000000020000C0108080C01087F
:1042C000100C01080400002070B504000D00FFF779
:1042D000B5F80600002E08D00320F060C6E90645B8
:1042E00020002900FEF7A2FC7061300070BD38B5D7
:1042F0000400FFF7A3F80500002D05D00420E860B6
:104300002000FFF783F82861280032BD80B5FFF751
:1043100095F8002801D00621C16002BD62F30F228A
:1043200062F31F42401810F0030308D0C91A1FD3CC
:10433000DB0748BF00F8012D28BF20F8022D13002D
:1043400030B414461546103928BF20E93C00FAD88D
:10435000490728BF20E90C0048BF40F8042D890018
:1043600028BF20F8022D48BF00F8012D30BC70474F
:10437000C91818BF00F8012DCB0728BF00F8012D80
:104380007047000090420CD141EA030C50EA4C0CFB
:1043900007D0994205D14FF4001C1CEB410F38BFE8
:1043A000894270475FEA000C830706D011F8013B91
:1043B00000F8013BB3B18307F8D10A68B2F10133C9
:1043C00023EA020313F0803F02BF40F8042B51F8A8
:1043D000042FF3E711F8013B00F8013B13B111F88A
:1043E000013BF9E7604670470CB41CB5044604A8CD
:1043F00001900A46009401AB69460748784418309A
:10440000FDF740F9009A0021117000285CBF009868
:10441000001B16BC5DF80CFB27E4FFFF40F2FF7C9D
:104420001CEA115240F2FE33D21ACCBFD2F135034E
:1044300016E0B2F1150309DA6FEA4C53D340094292
:1044400001D5401E59410020994370476FF000028A
:10445000DA40094202D5801851F1000190437047BB
:10446000352A09DA50EA41031CBF4FEA0C5101F129
:10447000804138BF002100207047000000B589B09E
:10448000DFF8800A00680090684600F0DFFEDFF881
:10449000781A0860DFF8740AD0E90023CDE9012317
:1044A000002101A800F0C9FFDFF8B81A086003A8CE
:1044B000DFF8B41A1422FEF73DFA002103A800F039
:1044C000A0FEDFF8181B032001F01DF909B000BDA4
:1044D00010B50400DFF8940A01F007FDDFF88C0A3C
:1044E00001F01DFDDFF8881A032001F00CF905200A
:1044F00000F09EFEDFF8740A01F011FD4FF47A71AE
:10450000DFF8040A006800F0A7FE0028EFD100F0F1
:10451000D2F800F0DCF900F088FADFF8580A0068F9
:10452000002808D0DFF84C0A006801F087FE002060
:10453000DFF8401A0860DFF8D009006800F0CFFE0D
:10454000D5E710B50400DFF8300A006AA04214D0A5
:1045500001F093FFDFF8200A046201F0ABFF002CAA
:104560000BD101F08AFFDFF88C0B006850F00100DE
:10457000DFF8801B086001F09DFF10BD2DE9F041C0
:1045800004000D00002600275FF00008ADB240F2E5
:10459000DD50854202DB40F2DC500500DFF8D8092F
:1045A000807F02282AD1ADB2A81C01F0B5FD07001A
:1045B000002F23D0B846A8F8005018F10208ADB279
:1045C0002A0021004046FEF7A5F94FF47A7239001F
:1045D000DFF89009006800F039FF0600002E02D1D4
:1045E000280000B20CE03200DFF80C1B032001F0C1
:1045F0008AF8380001F022FE002001E05FF0FF3071
:10460000BDE8F0815FF0FF30DFF86C19C97F052944
:1046100006D0DFF86419C97F022901D00021080003
:10462000DFF85419C97F04290BD1DFF84C19897FB1
:10463000022906D1DFF8BC1A0978490701D4012103
:10464000080040B2704770B504000D001600DFF896
:104650002809C06884420CD12800DFF81C19098A97
:1046600080B2884205D13000DFF80C1949698842D0
:1046700018D001F002FFDFF80009C460DFF8F80885
:104680000582DFF8F40846610420DFF8EC1888772B
:10469000DFF8600A006850F00400DFF8581A08607C
:1046A00001F008FF002C05D0ADB2002D02D0012092
:1046B000FFF747FF70BD80B5DFF8BC08408B1528B9
:1046C00009DADFF8B408808B152804DADFF8240A49
:1046D0000078C00719D501F0D0FEDFF8180A00688D
:1046E00040084000DFF80C1A086001F0E3FE0020EB
:1046F000DFF8841848830020DFF87C18888300F0F6
:1047000017FB0020DFF87018C877DFF86C08C07F4F
:10471000002804D001280FD003281DD03CE0DFF88A
:104720005808006A002806D0DFF8D019032000F0EE
:10473000EAFF00F05BFA2FE000F0EAFB012801D16C
:10474000042000E00320DFF83018C87700F074FB85
:10475000DFF8241808761FE001F026FFDFF8A8191B
:104760000968401A47F23051884214D301F01CFF07
:10477000DFF89419086000F0CBFB002807D1DFF8C0
:10478000F807808B401CDFF8F017888303E00420D3
:10479000DFF8E417C877FFE7DFF8DC07C07F0428FD
:1047A00040F09080DFF84C09007840072ED5DFF804
:1047B000C807807F05281DD0DFF8BC07807F002850
:1047C00018D000F0E5FA01F0EFFEDFF840190860BC
:1047D00000F055FBDFF8A017887701F04EFEDFF8F8
:1047E0001409006830F00400DFF80819086001F0CF
:1047F00061FE0BE001F041FEDFF8F808006830F0E0
:104800000400DFF8F018086001F054FEDFF86807D4
:10481000807F002807D0022827D027D3042825D05E
:1048200023D305284DD101F0BFFEDFF8E41808605E
:1048300001F0BAFEDFF8D4180860DFF83C07C06862
:10484000002811D0DFF83007008A00280CD0DFF8EC
:104850002807018ADFF82007C06800F0ADFA00F0F1
:104860000EFBDFF81417887730E02FE001F09CFE94
:10487000DFF89C180968401A44F62061884205D385
:1048800000F072FA0520DFF8F016887701F08CFE50
:10489000DFF878180968401A40F6B831884210D31A
:1048A00001F082FEDFF86418086000F0E8FADFF833
:1048B000C8168877DFF8C006807F042801D100F091
:1048C00053FA03E00020DFF8B016887701BD70B519
:1048D000002400250026022001F0A4FF0600B6B245
:1048E000002E61D0711E89B2022001F0B0FF0A28AB
:1048F0000BD1B11E89B2022001F0A9FF0D2804D10D
:10490000022001F0DDFF142805D2022001F0D8FFBB
:10491000B0F57A7F48D3B6B240F2FF70864202DB30
:1049200040F2FF700600B6B2701C01F0F5FB050006
:10493000002D39D0320092B22900022001F09FFFF1
:1049400006000020B6B2A8552C00DFF8C8172000DA
:1049500002F0D8FA002806D1DFF8BC17200002F0D8
:10496000D1FA002804D000F08AFADFF80C16887714
:10497000DFF8A817200002F0C5FA00280ED000F0DA
:10498000C7FA012801D1042000E00320DFF8E81570
:10499000C87700F051FADFF8E0150876280000F03B
:1049A00004F8280001F04AFC70BD70B50400002531
:1049B0000026DFF86C17200002F0A4FA0600002E93
:1049C00032D03078002804D03000461C00782C28E3
:1049D000F7D13078002804D03000461C00782C280D
:1049E000F7D1300001F06EF905003078002804D0CE
:1049F0003000461C00780A28F7D1DFF87C054069B2
:104A0000002806D0290089B23000DFF86C255269F1
:104A10009047ADB206EB0500461CDFF808173000E2
:104A200002F070FA0600CAE770BD3EB5002400250A
:104A3000DFF84405807F022820D10222DFF8240518
:104A40000168684600F035FD0098102816D10198DD
:104A5000050028880400AD1CA4B2002C0ED0210053
:104A600089B2280000F08AFA002804D100F007FA81
:104A7000DFF804158877019801F0E0FB37BD38B501
:104A8000002400250522DFF8A016022001F0F7FD22
:104A90006421DFF8980600F0A3FA0522DFF89016EB
:104AA000022001F0ECFD6421DFF8800600F098FAA6
:104AB00041F28831DFF87C0600F092FADFF87826C0
:104AC000DFF87816022001F04BFE6421DFF85C0667
:104AD00000F086FADFF86826DFF86016022001F0A1
:104AE0003FFE6421DFF8440600F07AFADFF854262E
:104AF000DFF84816022001F033FE6421DFF82C06AF
:104B000000F06EFADFF84026DFF83016022001F0E0
:104B100027FE6421DFF8140600F062FADFF82C2685
:104B2000DFF81816022001F01BFE6421DFF8FC05F7
:104B300000F056FADFF81826DFF80016022001F020
:104B40000FFE6421DFF8E40500F04AFADFF80426DE
:104B5000DFF8E815022001F003FE6421DFF8CC0540
:104B600000F03EFADFF8F025DFF8D015022001F062
:104B7000F7FD6421DFF8B40500F032FADFF8DC2538
:104B8000DFF8B815022001F0EBFD6421DFF89C0589
:104B900000F026FADFF8C825DFF8A015022001F0A2
:104BA000DFFD6421DFF8840500F01AFADFF8B42590
:104BB000DFF88815022001F0D3FD4FF47A71DFF899
:104BC000740500F00DFA0400002C08D0DFF89815E9
:104BD000200002F097F9002801D001200500DFF83D
:104BE0008C15032000F08FFD280032BD10B5002485
:104BF0005FF40020DFF8781508605FF08070DFF860
:104C0000741508604FF47A7000F012FB5FF4E13124
:104C1000022001F071FE4FF48070DFF85815086033
:104C20000820DFF84C15086043F69821DFF84805A6
:104C300000F0D6F9002812D05FF40020DFF830151C
:104C40000860FFF71CFF002804D00120DFF82813BC
:104C5000C87758E00220DFF82013C87753E05FF4EC
:104C60000020DFF80C1508600422DFF81015022080
:104C700001F005FD4FF47A71DFF8B00400F0B0F9EF
:104C80000422DFF8F814022001F0F9FC4FF47A71E5
:104C9000DFF8980400F0A4F9002822D05FF4E13294
:104CA000DFF8DC14022001F05BFD6421DFF87C04F6
:104CB00000F096F90522DFF8CC14022001F0DFFCA9
:104CC000C821DFF8680400F08BF9FFF7D8FE002850
:104CD00003D00120A849C87715E00220A649C8776B
:104CE00011E0DFF8A414032000F00DFD0520A24917
:104CF000C8775FF40020DFF8781408605FF08070F8
:104D0000DFF8701408609C48C07F02280ED1DFF8DD
:104D10007C14032000F0F7FC5FF40020DFF850144F
:104D200008605FF08070DFF84C140860200010BD50
:104D300010B500240820DFF83814086040F6B831B8
:104D4000DFF84C0400F04CF9002801D001200400E9
:104D50005FF40020DFF8181408605FF08070DFF85F
:104D600014140860200010BD80B5DFF82824DFF897
:104D7000CC13022001F0F4FC40F6B831DFF8AC03AC
:104D800000F02EF9002801D0012000E0002002BD33
:104D900080B5DFF80424DFF8A413022001F0E0FC62
:104DA00042F21071DFF8F40300F01AF9002801D084
:104DB000012000E0002002BD70B504000D000026B7
:104DC000DFF8DC23DFF87413022001F0C9FC4FF494
:104DD0007A71DFF8D00300F003F90600002E1CD032
:104DE0003078002804D03000461C00782C28F7D1F9
:104DF0003078312811D1ADB22B002200DFF8A81392
:104E0000022001F0ADFC40F6B831DFF8200300F0DD
:104E1000E7F8002801D001200DE0DFF89023DFF84B
:104E20001C13022001F09CFC40F6B831DFF8FC02B4
:104E300000F0D6F8002070BD38B50024002566A229
:104E4000DFF8F812022001F08BFC4FF47A71DFF8E2
:104E5000600300F0C5F80500002D0DD0287800286B
:104E600006D0287802F056F8002801D16D1CF5E72D
:104E7000280000F027FF04002000C0B232BD38B582
:104E800005240025DFF82C23DFF8B012022001F002
:104E900067FC4FF47A71DFF8200300F0A1F80500F9
:104EA000002D2BD02878002804D02800451C00783D
:104EB0002C28F7D12878002804D02800451C007839
:104EC0002C28F7D12878002804D02800451C007829
:104ED0002C28F7D12878002804D02800451C007819
:104EE0002C28F7D12878002804D02800451C007809
:104EF0002C28F7D1280000F0E5FE04002000C0B205
:104F000032BD0000440E0108D0A50020500C01085D
:104F100038B500240025DFF8A422DFF82012022093
:104F200001F01EFC4FF47A71DFF8F00100F058F840
:104F30000500002D0BD02878002804D02800451C3F
:104F400000782C28F7D1280000F0BCFE0400E4B261
:104F5000012C02D0E4B2052C01D1012000E0002098
:104F600032BD0000C8A500209008010820000020E4
:104F70006C070108D4A5002090A3002070B50400A0
:104F80000D000026002C24D0ADB2002D21D0ADB2F2
:104F90002A00DFF82C12022001F0E2FB4FF47A71B4
:104FA00057A000F01DF8002813D02A0092B221006B
:104FB000022001F064FB012252A1022001F05FFBFC
:104FC00040F6B831DFF8FC0100F00AF8002800D004
:104FD0002E00300080B270BD4353510028090108F3
:104FE0002DE9F04104000D00002600275FF00008C5
:104FF00001F0DAFA070001F0D7FAC01BADB2854222
:1050000068D3022001F00EFC0600B6B2002E5DD07F
:10501000022001F055FC0A2858D3711E89B20220E3
:1050200001F015FC0A2806D1B11E89B2022001F058
:105030000EFC0D2808D020783E2805D0022001F073
:105040003FFCB0F57A7F41D3B6B240F2FF708642A2
:1050500002DB40F2FF7006005B480068002806D0C3
:105060005948006801F0EAF8002057490860B6B2D4
:10507000701C01F051F8544908605348006800283A
:1050800024D0320092B250480168022001F0F7FBB0
:10509000060000204C490968B6B288552000FDF78B
:1050A000DFFB03009BB2320092B221004648006849
:1050B00000F0CCFD8046B8F1000F06D143494248CC
:1050C000006801F01FFF002800D003E0022000F07C
:1050D000AFF890E7B8F1000F05D13D48408B401C78
:1050E0003B49488302E00020394948834046BDE8F7
:1050F000F0810000CCA50020CCFF0008F0FF0008E4
:105100003E0000001A000000D8A50020E0A5002005
:10511000DCA5002068080108740A0108600C010879
:1051200038090108680C0108700C0108780C0108A6
:10513000800C0108880C0108980C0108900C0108EB
:10514000A00C0108A80C0108800A0108B00C010895
:10515000B80C010848090108C00C01088C0A0108B4
:10516000C80C0108D00C0108D80C01084003010844
:1051700010100140100C0140E00C0108E80C01087F
:10518000980A0108F00C010888050108600301086D
:1051900058090108A40A0108B00A0108BC0A01085C
:1051A000F80C0108000D010814000108080D0108A1
:1051B000100D0108C80A0108D40A0108180D0108D9
:1051C0007C080108E00A0108D4A50020200D010890
:1051D00090A300200100002009B2842902D009B266
:1051E000CA1C10187047EFF30580002801D0012079
:1051F00000E00020C0B2704780B501F0C4FF00207D
:1052000002BD3EB504000D00B4F90800FFF7E2FF4F
:1052100002A9019100902B00226992B22168606876
:1052200001F07EFE012801D0002000E002983EBD82
:1052300038B504000120B4FBF0F5002D01D02800A2
:1052400000E0012001F078FF002032BD10B504001D
:10525000012002F09DFC10BD70B582B004000D006D
:1052600000200090002C01D1802037E000200600B3
:1052700015F1010F03D15FF0FF30060009E0002DAA
:1052800007D00120B5FBF0F00600002E01D101206F
:105290000600FFF7A8FF002815D06A46002120006D
:1052A00002F030FF012801D0FF2017E0009800280D
:1052B00013D05FF08050DFF8C0120860BFF34F8F4B
:1052C000BFF36F8F09E0002332000021200002F0BD
:1052D0002BFE012801D0FF2000E0002076BD38B56C
:1052E0000400002500200090FFF77DFF002814D067
:1052F0006946200002F0ACFD012801D0FF2017E034
:105300000098002813D05FF08050DFF86C1208601E
:10531000BFF34F8FBFF36F8F09E0002300220021FE
:10532000200002F045FC012801D0FF2005002800E4
:1053300032BD70B504000D00012D0FD103220021F4
:10534000012002F0CFFB0600002E05D00023002232
:105350000021300002F02CFC300000E0002070BD85
:1053600070B582B004000D0000200090002C01D127
:10537000802037E00020060015F1010F03D15FF017
:10538000FF30060009E0002D07D00120B5FBF0F04A
:105390000600002E01D101200600FFF724FF00289F
:1053A00015D06A460021200002F0ACFE012801D091
:1053B000FF2017E00098002813D05FF08050DFF83E
:1053C000B8110860BFF34F8FBFF36F8F09E0002360
:1053D00032000021200002F0A7FD012801D0FF20AB
:1053E00000E0002076BD38B50400002500200090C4
:1053F000FFF7F9FE002814D06946200002F028FDCE
:10540000012801D0FF2017E00098002813D05FF09A
:105410008050DFF864110860BFF34F8FBFF36F8FC8
:1054200009E0002300220021200002F0C1FB012836
:1054300001D0FF200500280032BD38B504000D0062
:1054400000226168206802F04DFB32BD73B5040094
:105450001500002000900120B5FBF0F00600002EA2
:1054600001D101200600FFF7BEFE002815D0002361
:105470006A4601A9200002F074FC012801D0FF2037
:1054800016E00098002812D05FF080503A4908607A
:10549000BFF34F8FBFF36F8F09E00023320001A9E4
:1054A000200002F085FB012801D0FF2000E0002051
:1054B00076BDF0B585B007000C0015000294002001
:1054C0000190002C07D18020009068460EC80EC7BE
:1054D0000C380C3F46E0002003900020060015F138
:1054E000010F03D15FF0FF30060009E0002D07D067
:1054F0000120B5FBF0F00600002E01D101200600CE
:10550000FFF771FE002817D003AA01A9200002F0BE
:10551000F9FD012802D11020009001E00020009048
:105520000398002819D05FF0805013490860BFF33A
:105530004F8FBFF36F8F10E00023320001A92000CE
:1055400002F0F2FC012802D11020009005E0002EAC
:1055500001D1002000E04020009068460EC80EC730
:105560000C380C3F05B0F0BD80B502F01EF90128E3
:1055700001D000F0B8FF01BD04ED00E000B585B03A
:105580000520DFF860160870012000F0E9F84FF4FC
:105590008072DFF85416DFF8540600F0EBFC684622
:1055A000DFF84C161422FDF7C5F900216846FFF715
:1055B00028FEDFF8400600F00AFCDFF83C16032066
:1055C00000F0A1F805B000BD10B50400DFF82C16FE
:1055D000032000F098F800F072F90A20FFF728FE87
:1055E000F9E738B504000D002A0092B22100DFF877
:1055F000F405007800F07CFA31BD70B504000D00B0
:105600000026ADB22A002100DFF8E00500F0E1FC41
:105610000600300080B270BD80B5DFF8D00500F024
:10562000D1FC80B202BD0EB478B5040000254FF461
:10563000806000F071FD0500002D13D005A8060064
:10564000330022004FF48061280002F07FFE280022
:10565000FDF706F9010089B22800FFF7C2FF280014
:1056600000F0ECFD71BC5DF810FB2DE9F047040083
:105670000D005FF000095FF0000A002C41D0ADB2D0
:10568000002D3ED0ADB2102095FBF0F100FB115083
:10569000002801D0012600E00026ADB2102095FBC5
:1056A000F0F08619332000F037FD8246BAF1000F82
:1056B00027D0002080464046310080B289B288421F
:1056C0001CD2B5EB09000700BFB2112F01DB10207F
:1056D00007003A0092B25146200000F0DCFC52462E
:1056E0001FFA89F94946DFF81C05FFF79CFFBFB296
:1056F0003C4417EB090918F10108DCE7504600F0BB
:105700009DFDBDE8F0870CB4F8B504000D0000263F
:10571000E4B2002C21D0DFF8F00400782100C9B2F7
:1057200088421AD34FF4806000F0F6FC0600002E89
:1057300013D006A807003B002A004FF48061300018
:1057400002F004FE3000FDF78BF8010089B2300052
:10575000FFF747FF300000F071FDF1BC5DF80CFB76
:1057600010B50400DFF8A4040068844206D000F0FD
:1057700084FEDFF89804046000F09CFE10BD10B5B4
:1057800004002000DFF880140978C0B2884206D0F7
:1057900000F073FEDFF87004047000F08BFE10BDA3
:1057A000F8B50027002400255FF0FF360120070030
:1057B000062F4BDA3800C0B201F034F80500ADB264
:1057C000002D41D0DFF81C04007887421BD1ADB218
:1057D000681C00F0A1FC0400002C35D02A0092B215
:1057E00021003800C0B201F04AF80020ADB2605587
:1057F0002A0092B221003800C0B200F028F8200040
:1058000000F01CFD20E03800C0B200F0B6F8060041
:10581000002E19D4ADB2681C00F07EFC0400002CF0
:1058200012D02A0092B221003800C0B201F027F84D
:105830000020ADB2605504EB06013800C0B200F0A4
:10584000F5F8200000F0FAFC7F1CB1E7F1BD70B55F
:1058500004000D0016002000DFF888130978C0B29C
:10586000884211D1DFF8A4030068002804D0310079
:1058700089B22800FFF7B5FEB6B232002900DFF882
:105880006C0300F0CCFB04E029002000C0B200F063
:10589000CDF870BD10B50400002C0FD02000FCF72F
:1058A000DFFF020092B22100CE480078FFF7CFFF61
:1058B00002229EA1CB480078FFF7C9FF10BD70B54A
:1058C000002400250026C94800F07CFB0400A4B297
:1058D000002C51D0A4B2611EC44800F0C9FB0600E0
:1058E000F6B20D2E02D0F6B20A2E3ED1A4B2601C42
:1058F00000F012FC0500002D37D0A4B222002900D0
:10590000BA4800F066FB04000020A4B22855A4B2F7
:1059100005EB040010F8010C0D2806D0A4B205EB2D
:10592000040010F8010C0A2805D10020A4B205EBF0
:10593000040101F8010CA4B205EB040010F8020CFC
:105940000D2806D0A4B205EB040010F8020C0A28BA
:1059500005D10020A4B205EB040101F8020C2800D7
:1059600000F053FA280000F069FCA4B2B4F5807F7F
:1059700002D19E4800F02AFB70BDF8B50400002754
:10598000002500262000A2490978C0B2884208D12B
:105990002000C0B200F094FFB0F57A7F01D3002060
:1059A00043E02000C0B200F03DFF0600B6B20B2E6F
:1059B00039DB2000C0B200F083FFB0F57A7F32D32C
:1059C000002007003800310080B289B288422AD214
:1059D000390089B22000C0B200F039FF732820D10D
:1059E000B6B2BFB2F01B07281BDB00200500ADB22A
:1059F000062D0ADAE91989B22000C0B200F027FFAB
:105A00008449ADB248556D1CF1E700208149887189
:105A10008149804802F0B8FC002802D1BFB23800AA
:105A200003E07F1CCEE75FF0FF30F2BD2DE9F843C5
:105A300004000D002E00794FDFF8E481DFF8E491D7
:105A400006227549300002F0C0FC002825D13078CC
:105A5000002804D03078202801D0761CF7E7307871
:105A6000002804D03078202801D1761CF7E73000D8
:105A700000F09CF96C49300002F086FC002835D11A
:105A8000634804703800FCF7EBFE020092B2390064
:105A90002000C0B200F02CF828E020005C49097812
:105AA000C0B2884222D1300000F080F95F49300056
:105AB00002F06AFC00280CD14A4804704046FCF70A
:105AC000CFFE020092B241462000C0B200F010F8B2
:105AD0000CE000204E4908704046FCF7C1FE020071
